:100000000C9477030C94380B0C9494030C948B048D
:100010000C9494030C9494030C9494030C94940304
:100020000C9494030C942D0C0C9494030C94940352
:100030000C9494030C9494030C9494030C946D0608
:100040000C9494030C9494030C9494030C949403D4
:100050000C9494030C9494030C9494030C949403C4
:100060000C9494030C9494030C9494030C949403B4
:10007000084AD73B3BCE016E84BCBFFDC12F3D6C0F
:1000800074319ABD56833DDA3D00C77F11BED9E475
:10009000BB4C3E916BAAAABE000000803F0000004E
:1000A0000000005C00000C000C007C287C2858DC60
:1000B00068002410480028542840000C00000078F4
:1000C00084008478000054385400107C1000804074
:1000D0000000101010000040000060100C003854A8
:1000E0003800487C40004864580044542C001C10E0
:1000F0007C005C5424003854240064140C006854C0
:100100002C004854380000480000804800001028A7
:1001100044002828280044281000045408003844CB
:100120005C00781478007C542800384428007C4413
:1001300038007C5444007C140400384474007C1063
:100140007C00447C440020403C007C106C007C40DF
:1001500040007C187C0078103C00384438007C1447
:1001600008003844B8007C14680048542400047C1B
:1001700004007C407C003C603C007C307C006C10C7
:100180006C000C700C0064544C00007C44000C109B
:100190006000447C000008040800808080000004A7
:1001A0000800304878007C4830003048480030482B
:1001B0007C00306850001078140090A878007C080B
:1001C000700050744000808074007C106800447C93
:1001D0004000781078007808700030483000F82827
:1001E00010003048F8007810080050582800083CEB
:1001F000480038407800384038007820780048308F
:10020000480098A078004868580010788400007C66
:1002100000008478100008040804000000000000BA
:10022000005F00000007000700147F147F14242AD9
:100230007F2A1223130864623649552250000503B1
:100240000000001C2241000041221C00082A1C2A38
:100250000808083E08080050300000080808080890
:10026000006060000020100804023E5149453E0035
:10027000427F400042615149462141454B311814AB
:10028000127F1027454545393C4A494930017109DB
:1002900005033649494936064949291E00363600C4
:1002A00000005636000000081422411414141414DF
:1002B00041221408000201510906324979413E7E6B
:1002C0001111117E7F494949363E414141227F410A
:1002D00041221C7F494949417F090901013E4141B1
:1002E00051327F0808087F00417F41002040413F94
:1002F000017F081422417F404040407F0204027F7A
:100300007F0408107F3E4141413E7F090909063EB6
:100310004151215E7F091929464649494931010168
:100320007F01013F4040403F1F2040201F7F201899
:10033000207F631408146303047804036151494562
:100340004300007F4141020408102041417F00002A
:100350000402010204404040404000010204002029
:10036000545454787F4844443838444444203844F2
:1003700044487F3854545418087E09010208145424
:10038000543C7F0804047800447D40002040443DF4
:1003900000007F10284400417F40007C041804784E
:1003A0007C0804047838444444387C141414080845
:1003B0001414187C7C080404084854545420043F46
:1003C0004440203C4040207C1C2040201C3C4030CD
:1003D000403C44281028440C5050503C4464544C39
:1003E00044000836410000007F000000413608004C
:1003F0000201030201000000000000000000065F8F
:100400005F060000000007070007070000147F7F59
:10041000147F7F1400242E6B6B3A12000046663066
:10042000180C666200307A4F5D377A480004070383
:100430000000000000001C3E63410000000041631A
:100440003E1C000000082A3E1C1C3E2A0808083EEC
:100450003E0808000000A0E0600000000008080856
:10046000080808000000006060000000006030180C
:100470000C060301003E7F594D7F3E000042427F43
:100480007F40400000627359496F66000022634953
:10049000497F360000181C16137F7F100027674520
:1004A000457D3900003C7E4B497930000003637183
:1004B000190F070000367F49497F360000064F4973
:1004C000693F1E000000006C6C0000000000A0EC02
:1004D0006C00000000081C36634100000014141476
:1004E0001414140000004163361C0800000203517C
:1004F000590F0600003E7F415D5D1F1E007C7E138C
:10050000137E7C0000417F7F49497F36001C3E639B
:100510004141632200417F7F41637F1C00417F7F17
:10052000495D416300417F7F491D0103001C3E631B
:1005300041517372007F7F08087F7F000000417F78
:100540007F41000000307040417F3F0100417F7FCC
:10055000081C776300417F7F41406070007F7F0609
:100560000C067F7F007F7F060C187F7F001C3E6398
:1005700041633E1C00417F7F49090F06001E3F2159
:10058000717F5E0000417F7F19396F460026674DFD
:10059000597B32000003417F7F410300007F7F4091
:1005A000407F7F00001F3F60603F1F00007F7F3063
:1005B00018307F7F0063771C081C776300074F7833
:1005C000784F0700006773594D47637100007F7FC4
:1005D00041410000000103060C1830600000414159
:1005E0007F7F000000080C0603060C080080808056
:1005F00080808080807909097F48484F00207454AA
:10060000543C784000413F7F44447C3800387C446F
:10061000446C280000307848493F7F4000387C54C3
:10062000545C180000487E7F490302000098BCA477
:10063000A4F87C0400417F7F08047C780000447D9E
:100640007D4000000040C484FD7D000000417F7FAC
:1006500010386C440000417F7F400000007C7C0C1F
:10066000180C7C78007C7C04047C780000387C4486
:10067000447C38000084FCF8A4243C1800183C2476
:10068000A4F8FC8400447C78441C180000485C54A6
:10069000547424000000043E7F442400003C7C404D
:1006A000403C7C40001C3C60603C1C00003C7C608A
:1006B00030607C3C00446C3810386C44009CBCA01A
:1006C000A0FC7C00004C64745C4C64000008083E94
:1006D000774141000000000077770000004141773A
:1006E0003E08080000587C660202667C580011240F
:1006F0001FBECFEFD4E0DEBFCDBF12E0A0E0B1E07F
:10070000E4EAF2E302C005900D92A03DB107D9F7EB
:1007100023E0A0EDB2E001C01D92A130B207E1F7E5
:100720000E9496030C9450190C940000CF93DF9311
:10073000CDB7DEB72E970FB6F894DEBF0FBECDBF94
:10074000F8940E94D3030E94DE030E9473040E9467
:1007500040060E940D070E947F080E94660A789456
:10076000CE0101960E949A04BE01655F7F4FCE01C3
:1007700001960E9465098FEF9FEB0197F1F700C08A
:1007800000000E949307F0CF5D9BFECF8CB90895C7
:100790005F9BFECF8CB1089590BD89B988E18AB97D
:1007A0008EE880BD08958FE190E00E94CC0368EC54
:1007B00073E084EC93E00E949315089585B78068F8
:1007C00085BF80B7806280BF0895FC01F85E6083BA
:1007D0000895FC01F85E8081082E000C990B0895A5
:1007E000CF92DF92EF92FF920F931F93CF93DF93FD
:1007F00082E191E00E94F4150E9483157C010E9421
:100800008815C12CD12CC0E0D0E008E211E00E9494
:100810008315F601F85E808320812817A1F09927BF
:100820009F938F931F922F93DF92CF921F930F93DB
:100830000E94DE1521968DB79EB708960FB6F894E4
:100840009EBF0FBE8DBF9FEFC91AD90AC11488E0A1
:10085000D806E9F6C7010E94881500E010E0E12CF7
:10086000F12C0F2EF2E6CF2EF1E0DF2EF02D0E94BC
:100870008315F801F85E20812817B1F099279F931E
:100880008F931F922F931F930F93DF92CF920E940B
:10089000DE159FEFE91AF90A8DB79EB708960FB6D5
:1008A000F8949EBF0FBE8DBF0F5F1F4F011598E0DC
:1008B0001907E9F6FF92EF92DF93CF9380EA91E078
:1008C0009F938F930E94DE150F900F900F900F90C3
:1008D0000F900F90DF91CF911F910F91FF90EF90AC
:1008E000DF90CF9008958BB78BBF86B786BF8AB74E
:1008F00080628ABF8BB780628BBFBA98BB9808951D
:10090000809300148091D0028823E1F31092D002EA
:100910008091001408951F920F920FB60F92112428
:100920008F9381E08093D0028F910F900FBE0F9034
:100930001F901895CF92DF92EF92FF920F931F9323
:10094000CF93DF938C016894CC24C2F8D12CC0E003
:10095000D0E0E12CF12C85E090E00E948004E80ECC
:10096000F11C84E090E00E948004C80FD11D83EC4C
:1009700099E00197F1F700C0000091E0C91AD10891
:1009800051F7B701769567957695679580E090E089
:100990000E94B8122AE838EC48E45FE30E949913F9
:1009A00020E030E048EC52E40E942C110E948212B8
:1009B000F80175836483BE01769567957695679592
:1009C00080E090E00E94B8122AE838EC48E45FE347
:1009D0000E94991320E030E048EC52E40E942C1170
:1009E0000E948212F801778366831182108213823B
:1009F000128211861086DF91CF911F910F91FF9087
:100A0000EF90DF90CF900895CF93DF93EC0185E0D6
:100A100090E00E948004682F70E080E090E00E94E7
:100A2000BA122AE838EC48E45FE30E94991320E008
:100A300030E048EC52E40E942C110E94821279832B
:100A4000688384E090E00E948004682F70E080E07A
:100A500090E00E94BA122AE838EC48E45FE30E9472
:100A6000991320E030E048EC52E40E942C110E94DF
:100A700082127B836A83DF91CF91089586B383FBD3
:100A8000882780F9089586B382FB882780F9089526
:100A90008F929F92AF92BF92EF92FF920F931F930C
:100AA000CF93DF93EC0108811981EA80FB80B801C4
:100AB000012E000C880B990B0E94BA124B015C01AD
:100AC000B7010F2C000C880B990B0E94BA12A501DC
:100AD00094010E94AC1120E030E044E353E40E9412
:100AE00099132BED3FE049E450E40E9410120E945C
:100AF00082122C813D81021B130B980122F42227C4
:100B00003327201B310B2F30310584F42E813F8198
:100B1000E21AF30A970122F4222733272E193F09FC
:100B20002F3031051CF4198618862BC09B012D52DD
:100B300031092A35310528F481E090E099878887CA
:100B400020C09B01235D3F4F2A35310528F484E006
:100B500090E09987888715C09B0129573F4F2A3518
:100B6000310528F482E090E0998788870AC0AB01BC
:100B70004A575F4F4D30514020F083E090E0998715
:100B80008887DF91CF911F910F91FF90EF90BF90D9
:100B9000AF909F908F900895CF93DF93CDB7DEB73E
:100BA0002A970FB6F894DEBF0FBECDBFFC0181E0DF
:100BB0008A8383E0898390819C599B8382818C59AD
:100BC0008C830E9443058D83CE0101960E948A0A80
:100BD0002A960FB6F894DEBF0FBECDBFDF91CF913E
:100BE0000895CF93DF93EC010E940405CE010E948B
:100BF0004805DF91CF910895CF93DF93EC0187E013
:100C000090E00E948004282F30E03983288386E01A
:100C100090E00E948004282F30E03B832A83DF91FC
:100C2000CF910895CF93DF93CDB7DEB72A970FB654
:100C3000F894DEBF0FBECDBF22E02A832983FC01DA
:100C4000228133812B8380818C83C90199279F93D3
:100C50008F938CEF91E09F938F930E94DE15CE01CE
:100C600001960E948A0A0F900F900F900F902A967B
:100C70000FB6F894DEBF0FBECDBFDF91CF910895C0
:100C8000E0E0F0E18EEA808381EA80838AED808370
:100C900082E1808388EC808388EA80838FE380838D
:100CA00085ED808380E8808381E8808380E5808390
:100CB00089ED808381E2808380E2808310828BEDE6
:100CC000808380E380838DEA8083108284EA80833E
:100CD00086EA80838FEA808308951F920F920FB671
:100CE0000F9211240F900FBE0F901F9018958093B4
:100CF000001008958093001208958093D102E0E0DF
:100D0000F0E192E2908380838F5F808381E2808331
:100D100010828FE7808308958093D202E0E0F0E1B3
:100D200091E2908380838FE780830895E1EDF2E084
:100D300010821182E0E0F0E182E28083108281E0A3
:100D4000808381E2808310828FE780830895E1EDC4
:100D5000F2E080836183E0E0F0E192E290838083BF
:100D60008F5F808381E2808360838FE78083089533
:100D700021E030E03093D4022093D302E82FF0E05A
:100D8000F45E60830895A1EDB2E021E030E01396B7
:100D90003C932E93129728E0829FC0011124FC01FE
:100DA000EB50FD4F2C9111968C9190E030E8239FF1
:100DB000800D911D1124DC01B45E885F934E249157
:100DC0002D933196A817B907D1F70895EF92FF92A6
:100DD0000F931F93CF93DF93FC0101900020E9F75D
:100DE0003197E81BF90B1E161F0684F4EC017C01F9
:100DF000EE0EFF1E01ED12E089910E94C306F8017C
:100E00009181985F9183CE15DF05B1F7DF91CF9186
:100E10001F910F91FF90EF900895E0E0FCE109C071
:100E20001192E817F907E1F7FC01E11580E2F807F4
:100E300021F0CF0180589F4FF3CF0E94960608956E
:100E40000E947D068091D10220E8829FC00111247A
:100E5000FC01F45E8058934E1192E817F907E1F710
:100E60000895EF92FF920F931F93CF93DF937C012E
:100E70000E940D070E949606D7018D919C91B1E0CA
:100E80008B3F9B0719F00E94E60605C0F70182819F
:100E900093810E94E606D70154968C918823D9F05D
:100EA0008701085F1F4FC0E0D0E02196CE010E946D
:100EB0007D068FE090E00E948C06D801ED91FD91B7
:100EC0008D01828193810E94E606F701248930E03A
:100ED000C217D30754F3D70114968D919C9115979F
:100EE0008B5F914069F080E090E00E948C0687E083
:100EF00090E00E947D06F701848195810E94E606BC
:100F0000DF91CF911F910F91FF90EF90089590E0A6
:100F10000E947D0680E090E00E948C068BE192E0CA
:100F20000E94E60608958F929F92AF92BF92CF9251
:100F3000DF92EF92FF920F931F93CF93DF930E9464
:100F40009606A12CB12C00E010E0812C912C0F2EE4
:100F5000C12CF2E1DF2EF02D16C0BE01C8010E94A7
:100F6000A706F701EC0FFD1F9081F60190832196F3
:100F7000C038D10591F70F5F1F4FF0E8AF0EB11CDD
:100F80000830110531F0C82DD92D7501F4EEFF1A86
:100F9000E4CFDF91CF911F910F91FF90EF90DF9001
:100FA000CF90BF90AF909F908F9008959093E40260
:100FB0008093E302E091E502F091E602A681B78119
:100FC00015969C938E931497958384830895AF927E
:100FD000BF92CF92DF92EF92FF920F931F93CF9326
:100FE000DF93EC015B016A01790189E190E00E94E5
:100FF0000A14DC011396BC92AE9212971196DC9201
:10100000CE921596FC92EE9214971796DC93CE939F
:101010001697FC013896469611921192E817F90737
:10102000D9F756961C930E93559758961C921E927C
:10103000579754961C925497EC89EF5FEC8BF0E035
:101040003396EE0FFF1FEC0FFD1FB183A083CD0180
:10105000DF91CF911F910F91FF90EF90DF90CF9094
:10106000BF90AF900895AF92BF92CF92DF92EF9270
:10107000FF920F931F93CF93DF93EC015B016A0103
:10108000790189E190E00E940A14DC011396BC9278
:10109000AE9212971196DC92CE921596FC92EE9239
:1010A00014971796DC93CE931697FC0138964696C4
:1010B00011921192E817F907D9F756961C921E92D1
:1010C000559758961C930E93579754961C92549785
:1010D000EC89EF5FEC8BF0E03396EE0FFF1FEC0F27
:1010E000FD1FB183A083CD01DF91CF911F910F919F
:1010F000FF90EF90DF90CF90BF90AF900895CF9288
:10110000DF92EF92FF920F931F93CF93DF9389E1CA
:1011100090E00E940A14DC019093E9028093E802B7
:101120008DE192E09093E4028093E30282E292E008
:1011300013969C938E9312978BEF91E011969C934C
:101140008E9315969C938E93149717961C921E92CD
:10115000169754961C925497FD013896CD014696E9
:1011600011921192E817F907D9F7B093E602A0930C
:10117000E50200E010E02DE132E04BEF51E06CE2DF
:1011800072E0CD010E94E7077C012BEF31E0A9015D
:1011900067E372E08091E8029091E9020E94E7071C
:1011A0006C0104E91BE02BEF31E0A90164E472E07B
:1011B000C7010E94330800E010E02BEF31E04AE461
:1011C00052E067E572E0C7010E94E707EC012BEFF0
:1011D00031E04AE452E062E672E0C7010E94E707AC
:1011E00006ED17E02BEF31E0A9016DE172E0CE01D1
:1011F0000E94E7072BEF31E0A9016DE672E0CE0116
:101200000E94E7072BEF31E0A90164E772E0CE010D
:101210000E94E7070BEB10E12BEF31E0A90169E732
:1012200072E0C6010E94330800E010E02BEF31E0CD
:1012300042E852E067E572E0C6010E94E70781E0FC
:101240008093E702DF91CF911F910F91FF90EF9074
:10125000DF90CF900895DC012091E5023091E60205
:101260009091E702E92FF0E03396EE0FFF1FE20FB7
:10127000F31F0190F081E02D25893689265D3740E6
:1012800029F4828193810E94D60708952789308DA1
:101290008BE02439380779F4AB01BD018FE892E087
:1012A0000E94940B8091E8029091E9029093E602EB
:1012B0008093E50208952B5B304131F4AB01BD0111
:1012C00088E992E00E94BB1008950F931F93CF937B
:1012D000DF93EC018B010E94F105288539852230CE
:1012E000310509F460C028F42130310509F44DC0FE
:1012F0006CC02330310599F12430310509F065C007
:101300002091E5023091E6028091E702E82FF0E0BB
:101310003396EE0FFF1FE20FF31F0190F081E02DD7
:1013200080859185892B71F0F093E602E093E502C8
:1013300081E08093E7028FE493EC0197F1F700C01E
:10134000000043C085899689892B21F48789908D77
:10135000892BD9F1B801CE010E942B0936C0E0914A
:10136000E502F091E60286819781009771F19093F2
:10137000E6028093E50281E08093E7028FE493EC3C
:101380000197F1F700C0000020C08091E702823091
:10139000E0F081508093E7028FE493EC0197F1F73E
:1013A00000C0000012C08091E702E091E502F091D8
:1013B000E6029489891748F48F5F8093E7028FE4EF
:1013C00093EC0197F1F700C000008091E502909145
:1013D000E6020E9431078091E7020E948707DF91B1
:1013E000CF911F910F91089587B3806B87BB8DB10B
:1013F00081658DB908958FB9779BFECF8FB1089520
:10140000CF93C82FC49883E00E94FB098C2F0E94C1
:10141000FB098FEF0E94FB09C49ACF910895CF93E7
:10142000DF93D82FC62FC49882E00E94FB098D2F2E
:101430000E94FB098C2F0E94FB09C49ADF91CF9177
:101440000895C498813051F028F0823059F08330EB
:1014500069F00FC081E80E94FB090BC082E80E947E
:10146000FB0907C084E80E94FB0903C087E80E94CB
:10147000FB09C49A089580EA0E94000A08951F9308
:10148000CF93DF93182FD62FC42FC49885E00E94E6
:10149000FB09812F0E94FB098D2F0E94FB098C2FD5
:1014A0000E94FB09C49ADF91CF911F910895C498BF
:1014B00080EC0E94FB09C49A08950E94F4090E94DE
:1014C000570A60E08FE00E940F0A08950E945D0AAB
:1014D00040E060EE8FE00E943F0A60E680E60E94F6
:1014E0000F0A43E063E08BE20E943F0A40E061E0C4
:1014F0008CE20E943F0A85B7826085BF8BB780640B
:101500008BBF8AB780648ABFE5EDF2E088E0818313
:1015100082830895EF92FF920F931F93CF93DF93EF
:101520007C0160E081E30E940F0AF701618162950E
:10153000660F607E82E30E940F0AF701608185E3F7
:101540000E940F0AF70180818823C9F087010E5F8E
:101550001F4FC0E0D0E0F80161918F018C2F8A5CB1
:101560000E940F0A89EF90E00197F1F700C0000098
:101570002196F701208130E0C217D30764F380E0A1
:101580000E94210A87E893E10197F1F700C000006B
:10159000DF91CF911F910F91FF90EF9008959F924F
:1015A000AF92BF92CF92DF92EF92FF920F931F9371
:1015B000CF93DF93CDB7DEB72A970FB6F894DEBF8F
:1015C0000FBECDBF5C0185E60E94000A982E81E621
:1015D0000E94000A182F82E60E94000A82958695D2
:1015E0008770169516951695082F010F9920A9F06A
:1015F0007E0183E0E80EF11C9E01290D311DF901E9
:1016000033966F0116E6812F0E94000AF70181933D
:101610007F011F5FEC15FD05B1F740E061E08CE252
:101620000E943F0A99820A838AE0FE013196D50121
:1016300001900D928A95E1F7C5012A960FB6F894AC
:10164000DEBF0FBECDBFDF91CF911F910F91FF90F5
:10165000EF90DF90CF90BF90AF909F9008952AE0D9
:10166000E5EDF2E0DC0101900D922A95E1F7089595
:101670001F920F920FB60F9211242F933F934F9307
:101680005F936F937F938F939F93AF93BF93EF93EA
:10169000FF93CF93DF93CDB7DEB72A97DEBFCDBFE1
:1016A000CE0101960E94CF0A8AE0FE013196A5ED97
:1016B000B2E001900D928A95E1F72A960FB6F89460
:1016C000DEBF0FBECDBFDF91CF91FF91EF91BF91F4
:1016D000AF919F918F917F916F915F914F913F91CA
:1016E0002F910F900FBE0F901F90189510928B00A6
:1016F000EAE8F0E080818B7F808380818260808354
:10170000808181608083EDE7F0E080818460808368
:10171000ECE7F0E08081846080830895EAEEF2E0F7
:1017200082818F5F82830895CF92DF92FF920F9321
:101730001F93CF93DF93CDB7DEB7A8970FB6F8947A
:10174000DEBF0FBECDBF6B018A01EAEEF2E09183EE
:10175000808312821E8A81E08D8B8F8B0E940D0701
:1017600083E090E00E947D068CE992E00E94E6060C
:101770000E949307CE0145960E948A0A2FE38DE0CE
:1017800093E0215080409040E1F700C000000E94AB
:10179000760B0E940D0783E090E00E947D0687EAA9
:1017A00092E00E94E60684E090E00E947D068FEAC7
:1017B00092E00E94E6060E9493070F2EFAE0FF2EA9
:1017C000F02DC6010E94F105C8010E94FC05C80168
:1017D0000E941206CE014F960E942F0BFE017F96AB
:1017E000ADEEB2E08F2D01900D928A95E1F7CE011A
:1017F0000B960E942F0B9C859111E3CFCE01019691
:101800000E942F0B8B818111DCCF0E940D0783E09A
:1018100090E00E947D0688EB92E00E94E6060E941E
:1018200093072FE78AE196E0215080409040E1F74E
:1018300000C00000EDE7F0E080818B7F8083A896F8
:101840000FB6F894DEBF0FBECDBFDF91CF911F91D1
:101850000F91FF90DF90CF9008951F920F920FB6D7
:101860000F9211242F933F934F935F936F937F9326
:101870008F939F93AF93BF93EF93FF930E948E0B31
:10188000FF91EF91BF91AF919F918F917F916F9158
:101890005F914F913F912F910F900FBE0F901F902E
:1018A0001895E0E0FCE109C01192E817F907E1F7AB
:1018B000FC01E11580E2F80721F0CF0180589F4F2D
:1018C000F3CFE0E8FFE18BE48193E11590E2F907C3
:1018D000D9F70E94930708952F923F924F925F92FB
:1018E0006F927F928F929F92AF92BF92CF92DF9230
:1018F000EF92FF920F931F93CF93DF93CDB7DEB795
:101900006D970FB6F894DEBF0FBECDBF8C018091EE
:10191000E20281116BC0E12CF12C0F2EC12CF3E0FF
:10192000DF2EF02DA1E0B0E00F2EF7E0AF2EF02D6E
:10193000912C2801F201018110E098012E5F3F4FA8
:1019400002171307C4F146C0FA01EE0FFF1FE40DA2
:10195000F51DE60FF71FE781E0FF09C0FD01022E2C
:1019600002C0EE0FFF1F0A94E2F78E2B09C0FD01A3
:10197000022E02C0EE0FFF1F0A94E2F7E0958E23BD
:10198000215031094F5F5F4F2F3FFFEF3F07E1F6D7
:10199000F301E00FF11F8083F801F25E10820F5F08
:1019A0001F4FF201618170E09B012E5F3F4F0217D4
:1019B00013073CF00FC0B8019E2DBF2C3601F4EE8A
:1019C0007F1A492F5B2D2A2D392DF801E61BF70BC5
:1019D000BF01BACFF0E8CF1AD10828E0E20EF11C1F
:1019E00030E1E316F10409F0A5CFB4C18091E20221
:1019F000813009F0AFC1D8018C91482E46944694AD
:101A00004694842C912C482F409594012F5F3F4F92
:101A1000220F220F220F420F90E00F979C0112F429
:101A2000295F3F4F3595279535952795359527950E
:101A30007901FF248E149F040CF48CC1C40101971A
:101A4000FC01F695FE2FEE27F795E795F88FEF8BC3
:101A5000242F30E03A87298787E090E028E1522E52
:101A6000541A22242394312C28E030E0B901A985AE
:101A7000BA856A1B7B0B788B6F8720E1241B298B2F
:101A80008C8BFC01EA1BFB0BFB8BEA8B498E540110
:101A90006401D8018701492E898D8C1911966C90AB
:101AA0001197712C93012E5F3F4F621673060CF055
:101AB00044C190E04C01880C991C880C991C880C3E
:101AC000991C2F89388D345E3C872B874F89588D20
:101AD0004058544E5E874D876F89788D6058734E9D
:101AE0007E8B6D8BC401450178019D015C0101C1B4
:101AF000AC8DBD8D8C9190E0019687709927892BD4
:101B0000A1F511968C9111979301281B3109CF01F2
:101B10008A0D9B1D880F991F8A0F9B1F820F931F91
:101B2000DC0117968C9180FF09C0C101062E02C00E
:101B3000880F991F0A94E2F7582B09C0C101062E9D
:101B400002C0880F991F0A94E2F780955823B2E0EB
:101B5000CB16D10434F0AB81BC811C92AD81BE8127
:101B60001C92A981BA811C92A2C0C814D904B9F5EB
:101B7000AC8DBD8D11968C9111979301281B310965
:101B8000C9019F01220F331F2A0F3B1F820F931F92
:101B9000DC0117968C9180FF09C0C101002E02C0A4
:101BA000880F991F0A94E2F7582B09C0C101002E33
:101BB00002C0880F991F0A94E2F78095582329855F
:101BC0003A85E217F3070CF072C0C1010A8C02C01B
:101BD000880F991F0A94E2F78095582368C0EC1487
:101BE000FD04E9F5403150F5842F90E0AC8DBD8DBA
:101BF00011962C91D301A21BB1099D01880F991F49
:101C0000AC8DBD8D8A0F9B1F820F931FDC01179631
:101C10008C9180FF09C0C101062E02C0880F991F58
:101C20000A94E2F7582B13C0C101062E02C0880F98
:101C3000991F0A94E2F78095582309C0C101062E26
:101C400002C0880F991F0A94E2F780955823B2E0EA
:101C5000EB16F10464F1AB81BC811C9228C0AC8D01
:101C6000BD8D11968C9111979301281B31098A8D96
:101C70009B8D0197880F991F8A0F9B1F820F931FBF
:101C8000DC0117968C9180FF09C0C101062E02C0AD
:101C9000880F991F0A94E2F7582B09C0C101062E3C
:101CA00002C0880F991F0A94E2F780955823319655
:101CB000615071092A8D3B8D2F5F3F4F3B8F2A8FDB
:101CC0004F5F01501109451113CF2C8D3D8DEF81D0
:101CD000F8856D897E89E60FF71F50837FEF671ABD
:101CE000770AD90111968C9190E0029668167906D0
:101CF0000CF578866F82EB85FC85E60DF71DFC837D
:101D0000EB834D855E85460D571D5E834D836F8544
:101D100078897B8F6A8F49890A891B896C89742D20
:101D200050E0E0E0F0E0C301915E9A8389833D8F4B
:101D30002C8FDECE54018701D901E1E0CE1AD10803
:101D40002F89388D20583109388F2F8BC016D10636
:101D50000CF0A2CE6D960FB6F894DEBF0FBECDBFCD
:101D6000DF91CF911F910F91FF90EF90DF90CF9077
:101D7000BF90AF909F908F907F906F905F904F90AB
:101D80003F902F9008958F929F92AF92BF92CF92E3
:101D9000DF92EF92FF920F931F93CF93DF93FC019B
:101DA0006B01DB018C91882309F452C08B010F5F1A
:101DB0001F4FE12CF12CA12CB12C3DC0A038B10556
:101DC00080F4E60189819B01281B310987FD339549
:101DD000C901865F9E4FEC012881CD01915EEC0127
:101DE00028838281882381F02A2D3B2DCD018F5FAE
:101DF000904EEC01C20FD31F18822F5F3F4F4281DC
:101E000050E024173507ACF36F5F7F4F1196E40164
:101E10008881082E000C990B08966817790774F2D0
:101E2000DFEFED1AFD0A0E5F1F4FD6018C9190E097
:101E3000E816F9066CF44801E801A8816A2FAA0F98
:101E4000770BCB0108966817790754F7DB01B6CFFB
:101E5000DF91CF911F910F91FF90EF90DF90CF9086
:101E6000BF90AF909F908F900895AC0120E030E03C
:101E7000F901EE0FFF1FE40FF51F97819160978323
:101E8000F9013496EE0FFF1FE40FF51F908191606A
:101E900090832F5F3F4F2031310551F708950F9305
:101EA0001F93CF93DF93EC018B010E9440061092A9
:101EB000E1021092E2021092E0021092DF020E9410
:101EC000510C82E08A831B821C821D821E8287E362
:101ED000888385E08983CE010E94350FF801108246
:101EE000DF91CF911F910F910895CF93DF93EC0174
:101EF0000E94831566E070E00E94F510059711F0CE
:101F000021E001C022E098819F5F9883E92FF0E0F3
:101F1000EE0FFF1F3196EC0FFD1F88E780832183B2
:101F2000DF91CF910895FC019091E202913059F038
:101F300081E08093E20280E090E0A0EAB0E4838355
:101F40009483A583B6830895CF92DF92FF920F9377
:101F50001F93CF93DF932FE78AE196E021508040D3
:101F60009040E1F700C000000F2EC12CFCE1DF2EF5
:101F7000F02DFF24FA9413C0F99289EF90E00197B5
:101F8000F1F700C000000E949307C017D107A1F726
:101F900090E8C90ED11CC11420E2D20629F08601B6
:101FA000005C1F4FE601E8CF89EF90E00197F1F761
:101FB00000C0000081E08093E102DF91CF911F918A
:101FC0000F91FF90DF90CF9008958F929F92AF92E4
:101FD000BF92CF92DF92EF92FF920F931F93CF9316
:101FE000DF937C01EB016A018091DF029091E002B6
:101FF00001969093E0028093DF020E9483150E9475
:102000008815F70183809480A580B68020E030E0B9
:10201000A901C501B4010E940B128823E9F02DEC3F
:102020003CEC4CEC5EE3C501B4010E942C11F701BD
:102030006383748385839683808190E0C79764F07F
:102040008091E202882341F0138214821582168265
:1020500087E380831092E20288859985019719F4BD
:10206000C7010E94930F8091E202882391F0F7014B
:10207000608170E080E090E00E94BA12F701238155
:102080003481458156810E942C110E948212F701F1
:102090006083F6014081442359F1E601219600E076
:1020A00010E02881F7018281281B2883022E000C72
:1020B000330B818190E0AC014E5F5F4F42175307B5
:1020C0006CF0285F3F4F2817390744F0808190E07B
:1020D000C19724F082EC92E00E94F4150F5F1F4F2D
:1020E000F60140812296842F90E008171907CCF260
:1020F000E091DF02F091E0029F01A9E8BEE30E94B7
:10210000091196958795929582958F7089279F7072
:10211000892753E8589F9001599F300D1124E217E9
:10212000F30769F441110BC088EC92E09F938F9301
:102130000E94DE15C6010E94750F0F900F90C70117
:102140000E946C0CB601C7010E94C30E81EE94E0A0
:102150000197F1F700C000000E949307DF91CF9133
:102160001F910F91FF90EF90DF90CF90BF90AF90B5
:102170009F908F900895EF92FF920F931F93CF93AC
:10218000DF938B01CB010E94F10587E290E00E9472
:102190000A14EC0183E090E00E940A147C01BC0167
:1021A000CE010E944F0F8091E10281110FC0CE013C
:1021B0000E946C0CC8010E94F105A701B801CE0174
:1021C0000E94E50F9091E102992389F3CE010E94CC
:1021D0009F14C7010E949F140E944006DF91CF9177
:1021E0001F910F91FF90EF90089597FB072E16F423
:1021F000009407D077FD09D00E94181107FC05D084
:102200003EF4909581959F4F0895709561957F4F0D
:102210000895A29FB001B39FC001A39F700D811DBF
:102220001124911DB29F700D811D1124911D0895DF
:10223000AA1BBB1B51E107C0AA1FBB1FA617B707EC
:1022400010F0A61BB70B881F991F5A95A9F7809508
:102250009095BC01CD0108955058BB27AA270E9434
:1022600044110C9457130E94491338F00E945013E4
:1022700020F039F49F3F19F426F40C941F130EF448
:10228000E095E7FB0C941913E92F0E94681358F3AB
:10229000BA17620773078407950720F079F4A6F54B
:1022A0000C948A130EF4E0950B2EBA2FA02D0B017F
:1022B000B90190010C01CA01A0011124FF27591B8B
:1022C00099F0593F50F4503E68F11A16F040A22F91
:1022D000232F342F4427585FF3CF46953795279502
:1022E000A795F0405395C9F77EF41F16BA0B620B01
:1022F000730B840BBAF09150A1F0FF0FBB1F661F48
:10230000771F881FC2F70EC0BA0F621F731F841F8A
:1023100048F4879577956795B795F7959E3F08F0B0
:10232000B0CF9395880F08F09927EE0F9795879572
:1023300008950E94491360F080E891E009F49EEF4F
:102340000E94501328F040E851E071F45EEF0CC099
:102350000C941F130C948A13E92FE0780E946813E1
:1023600040F3092E052AB1F3261737074807590706
:1023700038F00E2E07F8E02569F0E025E0640AC089
:10238000EF6307F8009407FADB01B9019D01DC0156
:10239000CA01AD01EF930E9427120E9457130E94B9
:1023A000DC115F91552339F02BED3FE049E450FDFE
:1023B00049EC0C942D110895DF93DD27B92FBF77D9
:1023C00040E85FE31616170648075B0718F4D92F95
:1023D0000E9491139F938F937F936F930E94061493
:1023E000E0E7F0E00E9422130E9457132F913F91E3
:1023F0004F915F910E94AC13DD2351F09058A2EAF7
:102400002AED3FE049EC5FE3D0785D270E9444115C
:10241000DF910C9457130E94F51208F481E008959F
:102420000E9424120C9457130E94501358F00E94DB
:10243000491340F029F45F3F29F00C94191351110E
:102440000C948B130C941F130E94681368F3992348
:10245000B1F3552391F3951B550BBB27AA276217A0
:102460007307840738F09F5F5F4F220F331F441FAD
:10247000AA1FA9F335D00E2E3AF0E0E832D09150E1
:102480005040E695001CCAF72BD0FE2F29D0660FCE
:10249000771F881FBB1F261737074807AB07B0E811
:1024A00009F0BB0B802DBF01FF2793585F4F3AF017
:1024B0009E3F510578F00C9419130C948B135F3FD9
:1024C000E4F3983ED4F3869577956795B795F7959D
:1024D0009F5FC9F7880F911D9695879597F9089585
:1024E000E1E0660F771F881FBB1F62177307840721
:1024F000BA0720F0621B730B840BBA0BEE1F88F730
:10250000E09508950E9489126894B1110C948B1380
:1025100008950E94701388F09F5798F0B92F99275B
:10252000B751B0F0E1F0660F771F881F991F1AF0BE
:10253000BA95C9F714C0B13091F00E948A13B1E086
:1025400008950C948A13672F782F8827B85F39F085
:10255000B93FCCF3869577956795B395D9F73EF457
:1025600090958095709561957F4F8F4F9F4F0895FF
:10257000E89409C097FB3EF490958095709561951D
:102580007F4F8F4F9F4F9923A9F0F92F96E9BB27D3
:102590009395F695879577956795B795F111F8CF4F
:1025A000FAF4BB0F11F460FF1BC06F5F7F4F8F4FBA
:1025B0009F4F16C0882311F096E911C0772321F0B0
:1025C0009EE8872F762F05C0662371F096E8862F48
:1025D00070E060E02AF09A95660F771F881FDAF79F
:1025E000880F9695879597F90895990F0008550FCC
:1025F000AA0BE0E8FEEF16161706E807F907C0F089
:1026000012161306E407F50798F0621B730B840B90
:10261000950B39F40A2661F0232B242B252B21F46A
:1026200008950A2609F4A140A6958FEF811D811D0A
:10263000089597F99F6780E870E060E008959FEF44
:1026400080EC0895DF93CF931F930F93FF92EF9247
:10265000DF927B018C01689406C0DA2EEF010E94A4
:10266000AC13FE01E894A5912591359145915591C2
:10267000A6F3EF010E944411FE019701A801DA942C
:1026800069F7DF90EF90FF900F911F91CF91DF914D
:10269000089500240A9416161706180609060895C8
:1026A00000240A9412161306140605060895092E2E
:1026B0000394000C11F4882352F0BB0F40F4BF2B9D
:1026C00011F460FF04C06F5F7F4F8F4F9F4F0895DD
:1026D00057FD9058440F551F59F05F3F71F04795D3
:1026E000880F97FB991F61F09F3F79F087950895B8
:1026F000121613061406551FF2CF4695F1DF08C0D7
:10270000161617061806991FF1CF869571056105F3
:1027100008940895E894BB2766277727CB0197F99B
:1027200008959B01AC0160E070E080E89FE30C94A9
:1027300010120E94AC130C9457130E94491338F0E6
:102740000E94501320F0952311F00C9419130C944F
:102750001F1311240C948B130E94681370F3959F20
:10276000C1F3950F50E0551F629FF001729FBB2788
:10277000F00DB11D639FAA27F00DB11DAA1F649F24
:102780006627B00DA11D661F829F2227B00DA11DD7
:10279000621F739FB00DA11D621F839FA00D611D5D
:1027A000221F749F3327A00D611D231F849F600D7E
:1027B000211D822F762F6A2F11249F5750409AF0A7
:1027C000F1F088234AF0EE0FFF1FBB1F661F771F33
:1027D000881F91505040A9F79E3F510580F00C94FE
:1027E00019130C948B135F3FE4F3983ED4F3869552
:1027F00077956795B795F795E7959F5FC1F7FE2B9E
:10280000880F911D9695879597F908959B01AC01C6
:102810000C949913CF93DF938230910510F482E0EA
:1028200090E0E091F902F091FA0220E030E0C0E09F
:10283000D0E0309711F14081518148175907C0F01D
:102840004817590761F482819381209719F09B837F
:102850008A832BC09093FA028093F90226C0211537
:10286000310519F04217530718F49A01BE01DF0130
:10287000EF010280F381E02DDCCF2115310509F154
:10288000281B390B2430310590F412968D919C91C0
:1028900013976115710521F0FB019383828304C0B6
:1028A0009093FA028093F902FD01329644C0FD0133
:1028B000E20FF31F81939193225031092D933C93A2
:1028C0003AC02091F7023091F802232B41F4209175
:1028D0000201309103013093F8022093F702209116
:1028E0000001309101012115310541F42DB73EB7AA
:1028F0004091040150910501241B350BE091F70232
:10290000F091F802E217F307A0F42E1B3F0B2817F3
:10291000390778F0AC014E5F5F4F2417350748F058
:102920004E0F5F1F5093F8024093F70281939193EB
:1029300002C0E0E0F0E0CF01DF91CF9108950F9366
:102940001F93CF93DF93009709F48CC0FC0132975B
:10295000138212820091F9021091FA0201151105F9
:1029600081F420813181820F931F2091F7023091F1
:10297000F8022817390779F5F093F802E093F70287
:1029800071C0D80140E050E0AE17BF0750F4129676
:102990002D913C911397AD012115310509F1D90114
:1029A000F3CF9D01DA013383228360817181860F29
:1029B000971F8217930769F4EC0128813981260F4C
:1029C000371F2E5F3F4F318320838A819B81938302
:1029D0008283452B29F4F093FA02E093F90242C076
:1029E0001396FC93EE931297ED01499159919E0134
:1029F000240F351FE217F30771F480819181840F52
:102A0000951F029611969C938E93828193811396C3
:102A10009C938E931297E0E0F0E0D80112968D918E
:102A20009C911397009719F0F8018C01F6CF8D91C6
:102A30009C9198012E5F3F4F820F931F2091F702C8
:102A40003091F8022817390769F4309729F4109269
:102A5000FA021092F90202C0138212821093F80255
:102A60000093F702DF91CF911F910F9108958F92FC
:102A70009F92AF92BF92CF92DF92EF92FF92CF934D
:102A8000DF93EC01688179818A819B8161157105F1
:102A90008105910521F464E279ED8BE597E02DE164
:102AA00033EF41E050E00E94C51849015A019B01F3
:102AB000AC01A7EAB1E40E94E4186B017C01ACEE22
:102AC000B4EFA50194010E94F218DC01CB018C0D3A
:102AD0009D1DAE1DBF1DB7FF03C00197A109B048E2
:102AE00088839983AA83BB839F77DF91CF91FF90DF
:102AF000EF90DF90CF90BF90AF909F908F90089510
:102B00000E943715089586E091E00E9437150895D8
:102B1000A0E0B0E08093060190930701A093080124
:102B2000B093090108950F931F93CF93DF930097FC
:102B300031F46115710519F480E090E03AC08B0121
:102B4000EC016EE070E081E090E00E94F617FC017D
:102B5000892B91F380E883830115110571F01387A8
:102B6000028781E883838091FB029091FC02892B8C
:102B700021F4F093FC02E093FB022097C9F0D18787
:102B8000C0878381826083838091FD029091FE02E1
:102B9000892B71F4F093FE02E093FD028091FF0215
:102BA00090910003892B21F4F0930003E093FF023E
:102BB000CF01DF91CF911F910F910895A0E0B0E078
:102BC000E4EEF5E10C940719AE014B5F5F4FFA019B
:102BD00061917191AF018091FD029091FE020E947E
:102BE0002416E2E00C9423190F931F93CF93DF93E5
:102BF000E091FD02F091FE02238121FF1BC08C01B8
:102C0000D0E0C0E0F80181918F016091FD027091E8
:102C1000FE02DB011896ED91FC911997882331F0A3
:102C20000995892B79F3DFEFCFEFECCF8AE0099597
:102C3000892B19F08FEF9FEF02C08D2F9C2FDF9112
:102C4000CF911F910F910895ACE0B0E0EAE2F6E178
:102C50000C94F7187C016B018A01FC011782168223
:102C6000838181FFBDC1CE0101964C01F7019381A3
:102C7000F60193FD859193FF81916F01882309F4FB
:102C8000ABC1853239F493FD859193FF81916F013A
:102C9000853229F4B70190E00E942F18E7CF512C1C
:102CA000312C20E02032A0F48B3269F030F48032F5
:102CB00059F0833269F420612CC08D3239F08033B1
:102CC00039F4216026C02260246023C0286021C01E
:102CD00027FD27C030ED380F3A3078F426FF06C0C4
:102CE000FAE05F9E300D1124532E13C08AE0389E07
:102CF000300D1124332E20620CC08E3221F426FDBB
:102D00006BC1206406C08C3611F4206802C088367E
:102D100041F4F60193FD859193FF81916F0181113B
:102D2000C1CF982F9F7D9554933028F40C5F1F4F8F
:102D3000FFE3F9830DC0833631F0833771F08335BB
:102D400009F05BC022C0F801808189830E5F1F4FAC
:102D500044244394512C540115C03801F2E06F0E05
:102D6000711CF801A080B18026FF03C0652D70E0C2
:102D700002C06FEF7FEFC5012C870E9424182C0141
:102D800083012C852F77222E17C03801F2E06F0EB9
:102D9000711CF801A080B18026FF03C0652D70E092
:102DA00002C06FEF7FEFC5012C870E9412182C0123
:102DB0002C852068222E830123FC1BC0832D90E0EC
:102DC00048165906B0F4B70180E290E00E942F182F
:102DD0003A94F4CFF50127FC859127FE81915F019C
:102DE000B70190E00E942F1831103A94F1E04F1A89
:102DF00051084114510471F7E5C0843611F0893649
:102E000039F5F80127FF07C06081718182819381C4
:102E10000C5F1F4F08C060817181072E000C880B6A
:102E2000990B0E5F1F4F2F76722E97FF09C090955A
:102E30008095709561957F4F8F4F9F4F2068722EC0
:102E40002AE030E0A4010E946718A82EA81844C008
:102E5000853729F42F7EB22E2AE030E025C0F22FEC
:102E6000F97FBF2E8F36C1F018F4883579F0B4C0E1
:102E7000803719F0883721F0AFC02F2F2061B22E94
:102E8000B4FE0DC08B2D8460B82E09C024FF0AC08B
:102E90009F2F9660B92E06C028E030E005C020E1E3
:102EA00030E002C020E132E0F801B7FE07C06081E7
:102EB0007181828193810C5F1F4F06C06081718197
:102EC00080E090E00E5F1F4FA4010E946718A82EBB
:102ED000A818FB2DFF777F2E76FE0BC0372D3E7F87
:102EE000A51450F474FE0AC072FC08C0372D3E7E53
:102EF00005C0BA2C372D03C0BA2C01C0B52C34FF45
:102F00000DC0FE01EA0DF11D8081803311F4397E80
:102F100009C032FF06C0B394B39404C0832F8678EF
:102F200009F0B39433FD13C030FF06C05A2CB3141C
:102F300018F4530C5B18B32CB31468F4B70180E297
:102F400090E03C870E942F18B3943C85F5CFB314D2
:102F500010F43B1801C0312C34FF12C0B70180E3DC
:102F600090E03C870E942F183C8532FF17C031FD4E
:102F700003C088E790E002C088E590E0B7010CC08C
:102F8000832F867859F031FF02C08BE201C080E2C6
:102F900037FD8DE2B70190E00E942F18A51438F498
:102FA000B70180E390E00E942F185A94F7CFAA94BB
:102FB000F401EA0DF11D8081B70190E00E942F1805
:102FC000A110F5CF332009F451CEB70180E290E093
:102FD0000E942F183A94F6CFF7018681978102C09C
:102FE0008FEF9FEF2C96E2E10C9413190F931F9330
:102FF000CF93DF93869F8001879F100D969F100DC2
:103000001124C8010E940A14EC01009729F0A801BC
:1030100060E070E00E941D18CE01DF91CF911F91FA
:103020000F910895FC010590615070400110D8F790
:10303000809590958E0F9F1F0895DC0101C06D93C0
:1030400041505040E0F70895FC01615070400190FC
:103050000110D8F7809590958E0F9F1F08950F93BC
:103060001F93CF93DF93FB01238121FD03C08FEFDB
:103070009FEF28C022FF16C04681578124813581E9
:103080004217530744F4A081B1819D012F5F3F4F48
:10309000318320838C93268137812F5F3F4F378385
:1030A000268310C0EB01092F182F0084F185E02D35
:1030B0000995892BE1F68E819F8101969F838E83EE
:1030C000812F902FDF91CF911F910F910895FA01D9
:1030D000AA27283051F1203181F1E8946F936E7F57
:1030E0006E5F7F4F8F4F9F4FAF4FB1E03ED0B4E048
:1030F0003CD0670F781F891F9A1FA11D680F791F89
:103100008A1F911DA11D6A0F711D811D911DA11D99
:1031100020D009F468943F912AE0269F11243019A9
:10312000305D3193DEF6CF010895462F4770405D44
:103130004193B3E00FD0C9F7F6CF462F4F70405DF3
:103140004A3318F0495D31FD4052419302D0A9F74E
:10315000EACFB4E0A6959795879577956795BA9548
:10316000C9F700976105710508959B01AC010A2E0E
:1031700006945795479537952795BA95C9F7620FE5
:10318000731F841F951FA01D0895052E97FB1EF425
:1031900000940E94DC1857FD07D00E942E1907FCEE
:1031A00003D04EF40C94DC18509540953095219541
:1031B0003F4F4F4F5F4F0895909580957095619563
:1031C0007F4F8F4F9F4F08950E940911A59F900D2B
:1031D000B49F900DA49F800D911D11240895B7FFF9
:1031E0000C94E4180E94E418821B930B08952F920C
:1031F0003F924F925F926F927F928F929F92AF9287
:10320000BF92CF92DF92EF92FF920F931F93CF93D3
:10321000DF93CDB7DEB7CA1BDB0B0FB6F894DEBF6A
:103220000FBECDBF09942A88398848885F846E8490
:103230007D848C849B84AA84B984C884DF80EE80DA
:10324000FD800C811B81AA81B981CE0FD11D0FB6E3
:10325000F894DEBF0FBECDBFED010895A1E21A2E96
:10326000AA1BBB1BFD010DC0AA1FBB1FEE1FFF1F2A
:10327000A217B307E407F50720F0A21BB30BE40B7A
:10328000F50B661F771F881F991F1A9469F76095C1
:103290007095809590959B01AC01BD01CF0108957B
:0432A000F894FFCFD0
:1032A40000000103200001000000C0F0FCFFFFFC4F
:1032B400F0C05374617274696E67205352414D209B
:1032C400746573742E2E2E005772697465207068AD
:1032D400617365206572726F723A206578745F72EB
:1032E400616D5B2534645D203D20253032582028F3
:1032F40073686F756C642062652025303258290D1F
:103304000A0052657472696576616C207068617335
:1033140065206572726F723A206578745F72616DB0
:103324005B2534645D203D202530325820287368A5
:103334006F756C642062652025303258290D0A00AF
:103344005352414D207465737420636F6D706C65C6
:103354007465642077697468200D0A2534642065D7
:1033640072726F727320696E20777269746520704F
:103374006861736520616E64200D0A2534642065DC
:1033840072726F727320696E2072657472696576E9
:10339400616C2070686173650D0A0A00536C69647E
:1033A40065723A202564202020202020202020201F
:1033B4002020202020202020200D007E0045415385
:1033C40059004D61696E204D656E750050696E67D8
:1033D40020506F6E67210053706163652052756ED3
:1033E4006E65720053746172740053656C65637426
:1033F400204C6576656C00446966666963756C7417
:103404007900486967682053636F7265004E4F52B4
:103414004D414C004841524400537461727420532E
:10342400520053656C65637420737065656400486D
:103434006F726566616E74006B6D70004745542051
:1034440052454144592100504C4159494E4700507E
:10345400494E47504F4E4700594F55204449454423
:10346400210043524153480047454E204F425300E8
:00000001FF
