:100000000C9477030C94290C0C9494030C94AF0477
:100010000C9494030C9494030C9494030C94940304
:100020000C9494030C94210D0C9494030C9494035D
:100030000C9494030C9494030C9494030C949403E4
:100040000C9478080C9494030C9494030C949403EB
:100050000C9494030C9494030C9494030C949403C4
:100060000C9494030C9494030C9494030C949403B4
:10007000084AD73B3BCE016E84BCBFFDC12F3D6C0F
:1000800074319ABD56833DDA3D00C77F11BED9E475
:10009000BB4C3E916BAAAABE000000803F0000004E
:1000A0000000005C00000C000C007C287C2858DC60
:1000B00068002410480028542840000C00000078F4
:1000C00084008478000054385400107C1000804074
:1000D0000000101010000040000060100C003854A8
:1000E0003800487C40004864580044542C001C10E0
:1000F0007C005C5424003854240064140C006854C0
:100100002C004854380000480000804800001028A7
:1001100044002828280044281000045408003844CB
:100120005C00781478007C542800384428007C4413
:1001300038007C5444007C140400384474007C1063
:100140007C00447C440020403C007C106C007C40DF
:1001500040007C187C0078103C00384438007C1447
:1001600008003844B8007C14680048542400047C1B
:1001700004007C407C003C603C007C307C006C10C7
:100180006C000C700C0064544C00007C44000C109B
:100190006000447C000008040800808080000004A7
:1001A0000800304878007C4830003048480030482B
:1001B0007C00306850001078140090A878007C080B
:1001C000700050744000808074007C106800447C93
:1001D0004000781078007808700030483000F82827
:1001E00010003048F8007810080050582800083CEB
:1001F000480038407800384038007820780048308F
:10020000480098A078004868580010788400007C66
:1002100000008478100008040804000000000000BA
:10022000005F00000007000700147F147F14242AD9
:100230007F2A1223130864623649552250000503B1
:100240000000001C2241000041221C00082A1C2A38
:100250000808083E08080050300000080808080890
:10026000006060000020100804023E5149453E0035
:10027000427F400042615149462141454B311814AB
:10028000127F1027454545393C4A494930017109DB
:1002900005033649494936064949291E00363600C4
:1002A00000005636000000081422411414141414DF
:1002B00041221408000201510906324979413E7E6B
:1002C0001111117E7F494949363E414141227F410A
:1002D00041221C7F494949417F090901013E4141B1
:1002E00051327F0808087F00417F41002040413F94
:1002F000017F081422417F404040407F0204027F7A
:100300007F0408107F3E4141413E7F090909063EB6
:100310004151215E7F091929464649494931010168
:100320007F01013F4040403F1F2040201F7F201899
:10033000207F631408146303047804036151494562
:100340004300007F4141020408102041417F00002A
:100350000402010204404040404000010204002029
:10036000545454787F4844443838444444203844F2
:1003700044487F3854545418087E09010208145424
:10038000543C7F0804047800447D40002040443DF4
:1003900000007F10284400417F40007C041804784E
:1003A0007C0804047838444444387C141414080845
:1003B0001414187C7C080404084854545420043F46
:1003C0004440203C4040207C1C2040201C3C4030CD
:1003D000403C44281028440C5050503C4464544C39
:1003E00044000836410000007F000000413608004C
:1003F0000201030201000000000000000000065F8F
:100400005F060000000007070007070000147F7F59
:10041000147F7F1400242E6B6B3A12000046663066
:10042000180C666200307A4F5D377A480004070383
:100430000000000000001C3E63410000000041631A
:100440003E1C000000082A3E1C1C3E2A0808083EEC
:100450003E0808000000A0E0600000000008080856
:10046000080808000000006060000000006030180C
:100470000C060301003E7F594D7F3E000042427F43
:100480007F40400000627359496F66000022634953
:10049000497F360000181C16137F7F100027674520
:1004A000457D3900003C7E4B497930000003637183
:1004B000190F070000367F49497F360000064F4973
:1004C000693F1E000000006C6C0000000000A0EC02
:1004D0006C00000000081C36634100000014141476
:1004E0001414140000004163361C0800000203517C
:1004F000590F0600003E7F415D5D1F1E007C7E138C
:10050000137E7C0000417F7F49497F36001C3E639B
:100510004141632200417F7F41637F1C00417F7F17
:10052000495D416300417F7F491D0103001C3E631B
:1005300041517372007F7F08087F7F000000417F78
:100540007F41000000307040417F3F0100417F7FCC
:10055000081C776300417F7F41406070007F7F0609
:100560000C067F7F007F7F060C187F7F001C3E6398
:1005700041633E1C00417F7F49090F06001E3F2159
:10058000717F5E0000417F7F19396F460026674DFD
:10059000597B32000003417F7F410300007F7F4091
:1005A000407F7F00001F3F60603F1F00007F7F3063
:1005B00018307F7F0063771C081C776300074F7833
:1005C000784F0700006773594D47637100007F7FC4
:1005D00041410000000103060C1830600000414159
:1005E0007F7F000000080C0603060C080080808056
:1005F00080808080807909097F48484F00207454AA
:10060000543C784000413F7F44447C3800387C446F
:10061000446C280000307848493F7F4000387C54C3
:10062000545C180000487E7F490302000098BCA477
:10063000A4F87C0400417F7F08047C780000447D9E
:100640007D4000000040C484FD7D000000417F7FAC
:1006500010386C440000417F7F400000007C7C0C1F
:10066000180C7C78007C7C04047C780000387C4486
:10067000447C38000084FCF8A4243C1800183C2476
:10068000A4F8FC8400447C78441C180000485C54A6
:10069000547424000000043E7F442400003C7C404D
:1006A000403C7C40001C3C60603C1C00003C7C608A
:1006B00030607C3C00446C3810386C44009CBCA01A
:1006C000A0FC7C00004C64745C4C64000008083E94
:1006D000774141000000000077770000004141773A
:1006E0003E08080000587C660202667C580011240F
:1006F0001FBECFEFD4E0DEBFCDBF12E0A0E0B1E07F
:10070000EAEEF6E302C005900D92AA3BB107D9F7D5
:1007100022E0AAEBB2E001C01D92A33FB207E1F7CD
:100720000E9496030C94731B0C940000CF93DF93EC
:10073000CDB7DEB72E970FB6F894DEBF0FBECDBF94
:10074000F8940E94F7038FEF9FE50197F1F700C03F
:1007500000000E9402048FEF9FE50197F1F700C0AF
:1007600000000E9497048FEF9FE50197F1F700C00A
:1007700000000E94C7068FEF9FE50197F1F700C0C8
:1007800000000E94AF078FEF9FE50197F1F700C0CF
:1007900000000E9452098FEF9FE50197F1F700C01A
:1007A00000000E94570B8FEF9FE50197F1F700C003
:1007B00000007894CE0101960E94BE040E941404A9
:1007C000BE01655F7F4FCE0101960E943A0AF8CFC5
:1007D0005D9BFECF8CB908955F9BFECF8CB10895D1
:1007E00090BD89B988E18AB98EE880BD08958FE10E
:1007F00090E00E94F0036CEE73E088EE93E00E94BC
:10080000A617089585B7806885BF80B7806280BFCE
:100810000895FC01F85E60830895FC01F85E808114
:10082000082E000C990B0895CF92DF92EF92FF9261
:100830000F931F93CF93DF9383E191E00E940718FA
:100840000E9471177C010E947617C12CD12CC0E048
:10085000D0E009E211E00E947117F601F85E808392
:1008600020812817A1F099279F938F931F922F9390
:10087000DF92CF921F930F930E94F11721968DB7AD
:100880009EB708960FB6F8949EBF0FBE8DBF9FEF20
:10089000C91AD90AC11488E0D806E9F6C7010E942E
:1008A000761700E010E0E12CF12C0F2EF3E6CF2EAE
:1008B000F1E0DF2EF02D0E947117F801F85E208123
:1008C0002817B1F099279F938F931F922F931F930F
:1008D0000F93DF92CF920E94F1179FEFE91AF90A66
:1008E0008DB79EB708960FB6F8949EBF0FBE8DBF0A
:1008F0000F5F1F4F011598E01907E9F6FF92EF927D
:10090000DF93CF9381EA91E09F938F930E94F11739
:100910000F900F900F900F900F900F90DF91CF914D
:100920001F910F91FF90EF90DF90CF9008958BB7BC
:100930008BBF86B786BF8AB780628ABF8BB780625B
:100940008BBFBA98BB980895809300148091BA0227
:100950008823E1F31092BA028091001408951F9247
:100960000F920FB60F9211248F9381E08093BA02F9
:100970008F910F900FBE0F901F901895CF92DF921E
:10098000EF92FF920F931F93CF93DF938C016894A4
:10099000CC24C2F8D12CC0E0D0E0E12CF12C85E0D1
:1009A00090E00E94A404E80EF11C84E090E00E9414
:1009B000A404C80FD11D8FEF9FE20197F1F700C08B
:1009C000000091E0C91AD10851F7B70176956795F3
:1009D0007695679580E090E00E94A6142AE838ECAE
:1009E00048E45FE30E94871520E030E048EC52E4E1
:1009F0000E941A130E947014F80175836483BE016B
:100A0000769567957695679580E090E00E94A614AC
:100A10002AE838EC48E45FE30E94871520E030E0E4
:100A200048EC52E40E941A130E947014F801778374
:100A30006683118210821382128211861086DF91E2
:100A4000CF911F910F91FF90EF90DF90CF9008957D
:100A5000CF93DF93EC0185E090E00E94A404682F1F
:100A600070E080E090E00E94A8142AE838EC48E4A6
:100A70005FE30E94871520E030E048EC52E40E94DA
:100A80001A130E9470147983688384E090E00E94B6
:100A9000A404682F70E080E090E00E94A8142AE887
:100AA00038EC48E45FE30E94871520E030E048EC32
:100AB00052E40E941A130E9470147B836A83DF91B0
:100AC000CF9108958F929F92AF92BF92EF92FF9233
:100AD0000F931F93CF93DF93EC0108811981EA8074
:100AE000FB80B801012E000C880B990B0E94A81402
:100AF0004B015C01B7010F2C000C880B990B0E9475
:100B0000A814A50194010E949A1320E030E044E368
:100B100053E40E9487152BED3FE049E450E40E9426
:100B2000FE130E9470142C813D81021B130B98014F
:100B300022F422273327201B310B2F30310584F478
:100B40002E813F81E21AF30A970122F422273327EC
:100B50002E193F092F3031051CF4198618862BC039
:100B60009B012D5231092A35310528F481E090E0AE
:100B70009987888720C09B01235D3F4F2A35310527
:100B800028F484E090E09987888715C09B01295755
:100B90003F4F2A35310528F482E090E09987888715
:100BA0000AC0AB014A575F4F4D30514020F083E0FF
:100BB00090E099878887DF91CF911F910F91FF90E7
:100BC000EF90BF90AF909F908F900895CF93DF9359
:100BD000CDB7DEB72A970FB6F894DEBF0FBECDBFF4
:100BE00021E02A8322E02983FC0120813181A901AF
:100BF0004C595F4F6091BB02461B5109BA0122F468
:100C000066277727641B750B6630710594F4FC0129
:100C1000428153814C595F4F6091BC02461B510980
:100C2000BA0122F466277727641B750B66307105BD
:100C30007CF0DC012C592B83EBEBF2E02083129645
:100C40008C918C598C838183CE0101960E947B0B01
:100C50002A960FB6F894DEBF0FBECDBFDF91CF91BD
:100C60000895CF93DF93EC010E942805CE010E94E6
:100C70006205DF91CF910895CF93DF93EC0186E079
:100C800090E00E94A404282F30E03983288387E075
:100C900090E00E94A404282F30E03B832A83DF9158
:100CA000CF910895B39B08C08091C202811104C006
:100CB00081E08093C202089586B31092C20280E060
:100CC000089586B382FB882780F908950F931F93B8
:100CD000CF93DF93CDB7DEB72A970FB6F894DEBF78
:100CE0000FBECDBF8C0182E08A8383E089830E949E
:100CF00061068093BD02D8012D913C919091BE0276
:100D0000B901691B7109AB0122F444275527461B21
:100D1000570B46305105A4F49091BF02F80142816F
:100D20005381491B5109BA0122F466277727641BB6
:100D3000750B6630710524F49091C0028917E1F0BB
:100D40002B83EEEBF2E02083D80112969C919C83DA
:100D50009183882369F08091C002811104C081E0F1
:100D60008D838093C002CE0101960E947B0B04C04C
:100D70001D821092C002F7CF2A960FB6F894DEBFFC
:100D80000FBECDBFDF91CF911F910F910895E0E08D
:100D9000F0E18EEA808381EA80838AED808382E1BC
:100DA000808388EC808388EA80838FE3808385ED6D
:100DB000808380E8808381E8808380E5808389ED7B
:100DC000808381E2808380E2808310828BED808348
:100DD00080E380838DEA8083108284EA808386EAC0
:100DE00080838FEA808383B78F7B83BF83B78860DC
:100DF00083BF83B78F7E83BF83B78F7D83BF83B766
:100E0000816083BF83B78D7F83BF83B7846083BFD7
:100E10008FEF81BF89B7816089BF88B7816088BF44
:100E2000E3ECF2E081E090E0938382831082118210
:100E30000895809300100895809300120895809380
:100E4000C302E0E0F0E192E2908380838F5F8083D1
:100E500081E2808310828FE7808308958093C402AB
:100E6000E0E0F0E191E2908380838FE78083089552
:100E7000E3ECF2E010821182E0E0F0E182E28083B4
:100E8000108281E0808381E2808310828FE78083FB
:100E90000895E3ECF2E080836183E0E0F0E192E228
:100EA000908380838F5F808381E2808360838FE77C
:100EB0008083089521E030E03093C6022093C5027C
:100EC000E82FF0E0F45E60830895A3ECB2E021E047
:100ED00030E013963C932E93129728E0829FC00136
:100EE0001124FC01EB50FD4F2C9111968C9190E058
:100EF00030E8239F800D911D1124DC01B45E885FD2
:100F0000934E24912D933196A817B907D1F70895E0
:100F1000EF92FF920F931F93CF93DF93FC01019009
:100F20000020E9F73197E81BF90B1E161F0684F421
:100F3000EC017C01EE0EFF1E03EC12E089910E9491
:100F40006507F8019181985F9183CE15DF05B1F7B0
:100F5000DF91CF911F910F91FF90EF900895E0E006
:100F6000FCE109C01192E817F907E1F7FC01E1156E
:100F700080E2F80721F0CF0180589F4FF3CF0E9405
:100F8000380708950E941F078091C30220E8829FBE
:100F9000C0011124FC01F45E8058934E1192E817B1
:100FA000F907E1F70895EF92FF920F931F93CF9304
:100FB000DF937C010E94AF070E943807D7018D9113
:100FC0009C91B1E08C3F9B0719F00E94880705C0F7
:100FD000F701828193810E948807D70154968C91F2
:100FE0008823D9F08701085F1F4FC0E0D0E0219629
:100FF000CE010E941F078FE090E00E942E07D801CB
:10100000ED91FD918D01828193810E948807F70106
:10101000248930E0C217D30754F3D70114968D9179
:101020009C9115978C5F914069F080E090E00E9460
:101030002E0787E090E00E941F07F70184819581C9
:101040000E948807DF91CF911F910F91FF90EF9041
:10105000089590E00E941F0780E090E00E942E0714
:101060008DEF91E00E94880708958F929F92AF9232
:10107000BF92CF92DF92EF92FF920F931F93CF9385
:10108000DF930E943807A12CB12C00E010E0812CE6
:10109000912C0F2EC12CF2E1DF2EF02D16C0BE01D7
:1010A000C8010E944907F701EC0FFD1F9081F6016E
:1010B00090832196C038D10591F70F5F1F4FF0E85C
:1010C000AF0EB11C0830110531F0C82DD92D7501B6
:1010D000F4EEFF1AE4CFDF91CF911F910F91FF90B3
:1010E000EF90DF90CF90BF90AF909F908F9008953A
:1010F0001F920F920FB60F9211242F933F934F938D
:101100005F936F937F938F939F93AF93BF93EF936F
:10111000FF938091C5029091C602892B11F412BEF3
:1011200007C00E9435081092C6021092C50212BE76
:10113000FF91EF91BF91AF919F918F917F916F91AF
:101140005F914F913F912F910F900FBE0F901F9085
:1011500018959093D6028093D502E091D702F09132
:10116000D802A681B78115969C938E931497958388
:1011700084830895AF92BF92CF92DF92EF92FF9255
:101180000F931F93CF93DF93EC015B016A01790109
:1011900089E190E00E94F815DC011396BC92AE92B2
:1011A00012971196DC92CE921596FC92EE921497BD
:1011B0001796DC93CE931697FC01389646961192BB
:1011C0001192E817F907D9F756961C930E93559785
:1011D00058961C921E92579754961C925497EC89DD
:1011E000EF5FEC8BF0E03396EE0FFF1FEC0FFD1F6F
:1011F000B183A083CD01DF91CF911F910F91FF901B
:10120000EF90DF90CF90BF90AF900895AF92BF92D4
:10121000CF92DF92EF92FF920F931F93CF93DF93C2
:10122000EC015B016A01790189E190E00E94F81507
:10123000DC011396BC92AE9212971196DC92CE927C
:101240001596FC92EE9214971796DC93CE93169710
:10125000FC013896469611921192E817F907D9F7D2
:1012600056961C921E92559758961C930E9357971C
:1012700054961C925497EC89EF5FEC8BF0E0339618
:10128000EE0FFF1FEC0FFD1FB183A083CD01DF9197
:10129000CF911F910F91FF90EF90DF90CF90BF9073
:1012A000AF900895CF92DF92EF92FF920F931F932A
:1012B000CF93DF9389E190E00E94F815DC019093D1
:1012C000DB028093DA028FEF91E09093D602809355
:1012D000D50284E092E013969C938E9312978CEF44
:1012E00091E011969C938E9315969C938E931497F0
:1012F00017961C921E92169754961C925497FD01B5
:101300003896CD01469611921192E817F907D9F750
:10131000B093D802A093D70200E010E02FEF31E0A5
:101320004CEF51E06EE072E0CD010E94BA087C0102
:101330002CEF31E0A90169E172E08091DA0290912D
:10134000DB020E94BA086C0105E81CE02CEF31E0DA
:10135000A90166E272E0C7010E94060900E010E000
:101360002CEF31E04CE252E069E372E0C7010E94E9
:10137000BA08EC012CEF31E04CE252E064E472E098
:10138000C7010E94BA0809EA18E02CEF31E0A90170
:101390006FEF71E0CE010E94BA082CEF31E0A90195
:1013A0006FE472E0CE010E94BA082CEF31E0A9018F
:1013B00066E572E0CE010E94BA080BEC12E12CEF58
:1013C00031E0A9016BE572E0C6010E94060900E068
:1013D00010E02CEF31E044E652E069E372E0C60130
:1013E0000E94BA0881E08093D9028091D70290913F
:1013F000D8020E94D3078091D9020E942908DF9168
:10140000CF911F910F91FF90EF90DF90CF900895B3
:10141000DC012091D7023091D8029091D902E92FB6
:10142000F0E03396EE0FFF1FE20FF31F0190F08103
:10143000E02D25893689295A384029F48281938103
:101440000E94A90808952789308D8CE02538380737
:1014500039F4AB01BD0181E792E00E94850C08954B
:101460002B5C324131F4AB01BD018AE792E00E946E
:10147000CB1208950F931F93CF93DF93EC018B0151
:101480000E943106288539852230310509F47CC057
:1014900028F42130310509F465C089C023303105B5
:1014A00009F44AC02430310509F081C02091D702E7
:1014B0003091D8028091D902E82FF0E03396EE0FF8
:1014C000FF1FE20FF31F80819181FC012085318590
:1014D000232B71F09093D8028093D70221E02093C0
:1014E000D9020E94D3078091D9020E9429081AC00C
:1014F000FC0125893689232B21F48789908D892B3E
:1015000089F0B801CE010E94080A81E08093D902D7
:101510008091D7029091D8020E94D3078091D9027E
:101520000E942908FFEF2FE382E0F1502040804025
:10153000E1F700C000003BC0E091D702F091D80273
:1015400086819781009799F19093D8028093D70272
:1015500021E02093D9020E94D3078091D9020E94F2
:10156000290825C08091D902823008F181508093EA
:10157000D9028091D7029091D8020E94D30780911E
:10158000D9020E94290813C0E091D702F091D80235
:101590009091D9028489981750F49F5F9093D90253
:1015A000CF010E94D3078091D9020E9429089FEFA2
:1015B000EFE3F2E09150E040F040E1F700C00000BE
:1015C000DF91CF911F910F91089587B3806B87BBF7
:1015D0008DB181658DB908958FB9779BFECF8FB19D
:1015E0000895CF93C82FC49883E00E94EC0A8C2FF3
:1015F0000E94EC0A8FEF0E94EC0AC49ACF910895E2
:10160000CF93DF93D82FC62FC49882E00E94EC0AB4
:101610008D2F0E94EC0A8C2F0E94EC0AC49ADF9155
:10162000CF910895C498813051F028F0823059F05C
:10163000833069F00FC081E80E94EC0A0BC082E899
:101640000E94EC0A07C084E80E94EC0A03C087E805
:101650000E94EC0AC49A089580EA0E94F10A089553
:101660001F93CF93DF93182FD62FC42FC49885E0F4
:101670000E94EC0A812F0E94EC0A8D2F0E94EC0A36
:101680008C2F0E94EC0AC49ADF91CF911F9108958C
:10169000C49880EC0E94EC0AC49A08950E94E50A5E
:1016A0000E94480B60E08FE00E94000B08950E94AA
:1016B0004E0B40E060EE8FE00E94300B60E680E66B
:1016C0000E94000B43E063E08BE20E94300B40E09D
:1016D00061E08CE20E94300B85B7826085BF8BB7DA
:1016E00080648BBF8AB780648ABFE7ECF2E088E051
:1016F000818382830895EF92FF920F931F93CF937C
:10170000DF937C0160E081E30E94000BF7016181BF
:101710006295660F607E82E30E94000BF701608194
:1017200085E30E94000BF70180818823C9F08701BF
:101730000E5F1F4FC0E0D0E0F80161918F018C2F48
:101740008A5C0E94000B8CEC94E00197F1F700C0DA
:1017500000002196F701208130E0C217D30764F31F
:1017600080E00E94120B8FEF9FE50197F1F700C018
:101770000000DF91CF911F910F91FF90EF9008959E
:101780009F92AF92BF92CF92DF92EF92FF920F9310
:101790001F93CF93DF93CDB7DEB72A970FB6F89498
:1017A000DEBF0FBECDBF5C0185E60E94F10A982E18
:1017B00081E60E94F10A182F82E60E94F10A8295C2
:1017C00086958770169516951695082F010F992006
:1017D000A9F07E0183E0E80EF11C9E01290D311D68
:1017E000F90133966F0116E6812F0E94F10AF70185
:1017F00081937F011F5FEC15FD05B1F740E061E0CB
:101800008CE20E94300B99820A838AE0FE013196B5
:10181000D50101900D928A95E1F7C5012A960FB680
:10182000F894DEBF0FBECDBFDF91CF911F910F9116
:10183000FF90EF90DF90CF90BF90AF909F90089572
:101840002AE0E7ECF2E0DC0101900D922A95E1F745
:1018500008951F920F920FB60F9211242F933F936A
:101860004F935F936F937F938F939F93AF93BF93A8
:10187000EF93FF93CF93DF93CDB7DEB72A97DEBF09
:10188000CDBFCE0101960E94C00B8AE0FE013196C9
:10189000A7ECB2E001900D928A95E1F72A960FB677
:1018A000F894DEBF0FBECDBFDF91CF91FF91EF91D6
:1018B000BF91AF919F918F917F916F915F914F9168
:1018C0003F912F910F900FBE0F901F90189510927F
:1018D0008B00EAE8F0E080818B7F808380818260EA
:1018E0008083808181608083EDE7F0E08081846087
:1018F0008083ECE7F0E08081846080830895ECEDE4
:10190000F2E082818F5F82830895DF92EF92FF92EF
:101910000F931F93CF93DF93CDB7DEB7A8970FB682
:10192000F894DEBF0FBECDBF7B018A01ECEDF2E083
:101930009183808312821E8A81E08D8B8F8B0E941F
:10194000AF0783E090E00E941F078EE792E00E94BD
:1019500088070E943508CE0145960E947B0B2FEF29
:101960008FEF9EE0215080409040E1F700C00000E2
:101970000E94670C0E94AF0783E090E00E941F075F
:1019800089E892E00E94880784E090E00E941F07A7
:1019900081E992E00E9488070E9435080F2EFAE044
:1019A000DF2EF02DC7010E943106C8010E943C06BF
:1019B000C7010E94E605C8010E946606CE014F9647
:1019C0000E94200CFE017F96AFEDB2E08D2D0190BC
:1019D0000D928A95E1F7CE010B960E94200C8C8522
:1019E0008111E0CFCE0101960E94200C8B818111E4
:1019F000D9CF0E94AF0783E090E00E941F078AE9D9
:101A000092E00E9488070E9435082FEF8FEF9DE13A
:101A1000215080409040E1F700C00000EDE7F0E089
:101A200080818B7F8083A8960FB6F894DEBF0FBEAF
:101A3000CDBFDF91CF911F910F91FF90EF90DF907D
:101A400008951F920F920FB60F9211242F933F9378
:101A50004F935F936F937F938F939F93AF93BF93B6
:101A6000EF93FF930E947F0CFF91EF91BF91AF9195
:101A70009F918F917F916F915F914F913F912F91A6
:101A80000F900FBE0F901F901895E0E0FCE109C089
:101A90001192E817F907E1F7FC01E11580E2F80778
:101AA00021F0CF0180589F4FF3CFE0E8FFE18BE4B6
:101AB0008193E11590E2F907D9F70E94350808955E
:101AC0002F923F924F925F926F927F928F929F924E
:101AD000AF92BF92CF92DF92EF92FF920F931F933C
:101AE000CF93DF93CDB7DEB76F970FB6F894DEBF15
:101AF0000FBECDBF8C018091D402811167C0E12C53
:101B0000F12C0F2EC12CF3E0DF2EF02DB12C41E093
:101B100050E00F2EF7E09F2EF02DA12C360128016A
:101B2000D20111966C9170E0CB010296681779078B
:101B30007CF140C02081213049F49A01082E02C076
:101B4000220F331F0A94E2F7B22A09C09A01082E25
:101B500002C0220F331F0A94E2F72095B2220197A8
:101B600032968F3F2FEF920729F7F601EA0FFB1FFE
:101B7000B082B25E1C926F5F7F4FD20111968C9142
:101B800090E09C012E5F3F4F6217730744F012C034
:101B9000CB018701095F1F4F6301B4EEDB1ADB0144
:101BA000F801E60FF71FE81BF90BE40DF51D892D71
:101BB0009A2DC0CFE0E86E1A7108F0E1EF0EF11C2B
:101BC00020E2E216F10409F0ABCFC6C18091D40245
:101BD000813009F0C1C1D8018C91482E46944694B9
:101BE0004694642C712C93012F5F3F4F482F4095F2
:101BF000922F990F990F990F490F90E00F97BC0101
:101C000012F4695F7F4F7595679575956795759522
:101C100067957B01FF246E147F040CF49DC13695FB
:101C2000322F222737952795C3010197FC01F6959E
:101C3000FE2FEE27F795E795FB8FEA8F642F70E074
:101C40007A87698787E090E058E1552E541A22245C
:101C50002394312CD901B45EB98FA88F28E030E0ED
:101C6000F901E61BF70BF88BEF8720E1241B8B8B28
:101C70009C8BAC01461B570B5A8B498B4D8A6301D9
:101C80005301D8018701422E8D898A1911966C90D3
:101C90001197712C93012E5F3F4F621673060CF063
:101CA0004EC190E04C01880C991C880C991C880C42
:101CB000991C6A8D7B8D745E7C876B878A8D9B8D6A
:101CC0008058944E9E878D87EA8DFB8DE058F34EA9
:101CD000FF8BEE8BC401460178019D016C010BC1A5
:101CE000AE8DBF8D8C9190E0019687709927892BDE
:101CF000A1F511968C9111979301281B3109CF0101
:101D00008C0D9D1D880F991F8A0F9B1F820F931F9B
:101D1000DC0117968C91813049F4C101062E02C076
:101D2000880F991F0A94E2F7582B09C0C101062EAB
:101D300002C0880F991F0A94E2F780955823B2E0F9
:101D4000AB16B10434F0AB81BC811C92AD81BE8175
:101D50001C92A981BA811C92A2C0A814B904B9F539
:101D6000AE8DBF8D11968C9111979301281B31096F
:101D7000C9019F01220F331F2A0F3B1F820F931FA0
:101D8000DC0117968C91813049F4C101002E02C00C
:101D9000880F991F0A94E2F7582B09C0C101002E41
:101DA00002C0880F991F0A94E2F78095582329856D
:101DB0003A85E217F3070CF072C0C1010C8C02C027
:101DC000880F991F0A94E2F78095582368C0EA1497
:101DD000FB04E9F5403150F5842F90E0AE8DBF8DC6
:101DE00011962C91D301A21BB1099D01880F991F57
:101DF000AE8DBF8D8A0F9B1F820F931FDC0117963C
:101E00008C91813049F4C101062E02C0880F991FC0
:101E10000A94E2F7582B13C0C101062E02C0880FA6
:101E2000991F0A94E2F78095582309C0C101062E34
:101E300002C0880F991F0A94E2F780955823B2E0F8
:101E4000EB16F10464F1AB81BC811C9228C0AE8D0D
:101E5000BF8D11968C9111979301281B31098C8DA0
:101E60009D8D0197880F991F8A0F9B1F820F931FCB
:101E7000DC0117968C91813049F4C101062E02C015
:101E8000880F991F0A94E2F7582B09C0C101062E4A
:101E900002C0880F991F0A94E2F780955823319663
:101EA000615071092C8D3D8D2F5F3F4F3D8F2C8FE1
:101EB0004F5F01501109451113CF2E8D3F8DEE89D3
:101EC000FF896F817885E60FF71F50837D89753014
:101ED00038F4EF81F885888D998DE80FF91F10820D
:101EE0009FEF691A790AD90111968C9190E00296B8
:101EF000681679060CF578866F82EB85FC85E60D11
:101F0000F71DFC83EB834D855E85460D571D5E8373
:101F10004D836F8578897D8F6C8F442D09891A894F
:101F20006B897C8950E0E0E0F0E0C301915E9A8328
:101F300089833F8F2E8FD4CE64018701D901E1E0E0
:101F4000AE1AB1082A8D3B8D205831093B8F2A8F5C
:101F5000A016B1060CF098CE6F960FB6F894DEBFBF
:101F60000FBECDBFDF91CF911F910F91FF90EF90EA
:101F7000DF90CF90BF90AF909F908F907F906F90A9
:101F80005F904F903F902F900895CF93DF93EC0197
:101F90000E94711798819F5F9883E92FF0E0EE0F00
:101FA000FF1F3197EC0FFD1F80E8808382E0818363
:101FB000DF91CF9108952F923F924F925F926F924F
:101FC0007F928F929F92AF92BF92CF92DF92EF92C9
:101FD000FF920F931F93CF93DF93CDB7DEB72A976E
:101FE0000FB6F894DEBF0FBECDBF9C012B01DB0105
:101FF0008C91882309F4A8C0FB013296FE83ED83FF
:102000001B01FFEF2F1A3F0A18861F82689488244D
:1020100087F8912C77247A94612CB901AD81BE8127
:10202000AC90B12C1A141B040CF079C0E12C0F2ECB
:10203000F3E0FF2EF02D19821A82F1016501B1E063
:10204000CB1AD108BC82AB82D1014C91042E000C7A
:10205000550BCA010896481759070CF04FC0870165
:10206000145EA980BA807A876987BA014038510521
:10207000C0F5CA14DB0481F4D20111968C91DA0107
:10208000A81BB10987FDB395A55FBE4F8C91D80100
:10209000A40FB51F8C9304C0D801A40FB51F7C9268
:1020A000A985BA8512968C9190E09401281B390B72
:1020B00042175307B4F4181619069CF4862D90E0C5
:1020C0006E0D7F1D6F5F734EDB01A80FB91F1C9251
:1020D0000196A985BA8512962C9130E08217930754
:1020E0009CF34F5F5F4F8081082E000C990B089680
:1020F000481759070CF4B9CF69857A8529813A8147
:102100002F5F3F4F3A83298330E8E31AF108898132
:102110009A81AB81BC818A179B0709F095CFEF812B
:10212000F8853196F887EF832D813E812E5F3F4FF2
:102130003E832D8332E0230E311CD2018C9190E03E
:10214000E817F9070CF46ACF2A960FB6F894DEBFA9
:102150000FBECDBFDF91CF911F910F91FF90EF90F8
:10216000DF90CF90BF90AF909F908F907F906F90B7
:102170005F904F903F902F900895FC0138969C01FE
:10218000285D3F4F91E0DF0111979C939083329639
:10219000E217F307C1F70895EF92FF920F931F9391
:1021A000CF93DF937C01EB018A010E94C706109256
:1021B000D3021092D4021092D2021092D1020E9445
:1021C000450D86E5E81682E0F80621F485E0809367
:1021D000000103C082E080930001809100018A83A6
:1021E0001B821C821D821E8287E388838AE089838A
:1021F000CE010E94BD10F8011082DF91CF911F9196
:102200000F91FF90EF900895FC019091D4029130CE
:1022100059F081E08093D40280E090E0A0EAB0E43D
:1022200083839483A583B68308958F929F92AF9200
:10223000BF92CF92DF92FF920F931F93CF93DF93C2
:1022400000D000D01F92CDB7DEB764E170E083E02C
:1022500090E00E9449078091D1029091D2024AE019
:102260008E010F5F1F4FB8010E9481171F930F93BC
:1022700084EA92E09F938F930E94F11782EB92E0A1
:102280000E948807C8010E9488072FEF8FEF9EE009
:10229000215080409040E1F700C000000F900F9067
:1022A0000F900F900F2EF3E08F2EFCE19F2EF02D5C
:1022B000AA24A394B12CFF24FA9406C0EFEFAE1A1F
:1022C000BE0AF0E88F0E911C24E0A216B104B1F30F
:1022D000640180E8C80ED11C8401F801F0823197B6
:1022E000F0823197F0823197F0820E9435080C5FBE
:1022F0001F4F0C151D0589F7F8E0AF16B104F4F275
:102300002FEF8FE797E0215080409040E1F700C029
:10231000000003E81DE1FF24FA94F801F0823197F0
:10232000F0823197F0823197F0820E9435080C5F7D
:102330001F4F0330FEE11F0781F72FEF8FE791E07A
:10234000215080409040E1F700C000C081E08093C0
:10235000D3020F900F900F900F900F90DF91CF91BD
:102360001F910F91FF90DF90CF90BF90AF909F9003
:102370008F9008958F929F92AF92BF92CF92DF92EB
:10238000EF92FF920F931F93CF93DF93EC017B01AA
:102390008A018091D1029091D20201969093D2024B
:1023A0008093D1020E9471170E9476178B809C80C7
:1023B000AD80BE8020E030E0A901C501B4010E94DB
:1023C000F9138823E1F02DEC3CEC4CEC5EE3C50105
:1023D000B4010E941A136B837C838D839E83888152
:1023E00090E0C79764F08091D402882341F01B826B
:1023F0001C821D821E8287E388831092D402F7011B
:1024000080859185019719F4CE010E940411809175
:10241000D402882379F0688170E080E090E00E9427
:10242000A8142B813C814D815E810E941A130E9469
:1024300070146883F8018081282F30E0121613068B
:102440006CF57801FFEFEF1AFF0AC12CD12CF701D0
:1024500080819A81891B8083082E000C990B298129
:1024600030E0A9014E5F5F4F4817590754F00896B6
:102470008217930734F0888190E0C19714F00E948E
:102480001511FFEFCF1ADF0AF8018081282F30E005
:10249000F2E0EF0EF11CC216D306CCF2F801618116
:1024A000062E000C770B4A8150E0461757074CF177
:1024B000823090F0A901415051091416150664F4B8
:1024C000319641E050E062817381619371934F5F77
:1024D0005F4F42175307B9F7882309F441C0815071
:1024E000F80180833DC080E090E0FC01E058F14EAF
:1024F00010820196298130E0285F3F4F82179307B1
:10250000A4F34091D1025091D2029A01ADECBCECFF
:102510000E940B13929582958F7089279F7089274F
:1025200064E1689F9001699F300D112442175307A1
:1025300039F4F8018081823018F4C8010E94C50F77
:10254000CE010E94600DB801CE010E94DB0F8FEF1B
:1025500097E10197F1F700C000000E9435080EC016
:1025600080E090E0FC01F15E10820196298130E06C
:10257000285F3F4F82179307ACF3B5CFDF91CF9120
:102580001F910F91FF90EF90DF90CF90BF90AF9091
:102590009F908F900895CF92DF92EF92FF920F93CA
:1025A0001F93CF93DF936C018B01CB010E94310607
:1025B00087E290E00E94F815EC0185E090E00E942F
:1025C000F8157C01AC01BE01C6010E94CC108091BF
:1025D000D30281110FC0CE010E94600DC8010E947C
:1025E0003106A701B801CE010E94BA119091D30221
:1025F000992389F3CE010E948D16C7010E948D1682
:102600000E94C706DF91CF911F910F91FF90EF902D
:10261000DF90CF900895A29FB001B39FC001A39F08
:10262000700D811D1124911DB29F700D811D11240B
:10263000911D08955058BB27AA270E9432130C946D
:1026400045150E94371538F00E943E1520F039F4E8
:102650009F3F19F426F40C940D150EF4E095E7FB5A
:102660000C940715E92F0E94561558F3BA17620704
:1026700073078407950720F079F4A6F50C94781574
:102680000EF4E0950B2EBA2FA02D0B01B90190018D
:102690000C01CA01A0011124FF27591B99F0593FD1
:1026A00050F4503E68F11A16F040A22F232F342F19
:1026B0004427585FF3CF469537952795A795F04067
:1026C0005395C9F77EF41F16BA0B620B730B840B7C
:1026D000BAF09150A1F0FF0FBB1F661F771F881F34
:1026E000C2F70EC0BA0F621F731F841F48F487958C
:1026F00077956795B795F7959E3F08F0B0CF93957E
:10270000880F08F09927EE0F9795879508950E94F6
:10271000371560F080E891E009F49EEF0E943E15C5
:1027200028F040E851E071F45EEF0CC00C940D15F8
:102730000C947815E92FE0780E94561540F3092E85
:10274000052AB1F3261737074807590738F00E2E28
:1027500007F8E02569F0E025E0640AC0EF6307F8B8
:10276000009407FADB01B9019D01DC01CA01AD014A
:10277000EF930E9415140E9445150E94CA135F91A1
:10278000552339F02BED3FE049E450FD49EC0C9422
:102790001B130895DF93DD27B92FBF7740E85FE370
:1027A0001616170648075B0718F4D92F0E947F15E5
:1027B0009F938F937F936F930E94F415E0E7F0E06F
:1027C0000E9410150E9445152F913F914F915F91E6
:1027D0000E949A15DD2351F09058A2EA2AED3FE0BD
:1027E00049EC5FE3D0785D270E943213DF910C94AF
:1027F00045150E94E31408F481E008950E94121424
:102800000C9445150E943E1558F00E94371540F073
:1028100029F45F3F29F00C94071551110C94791598
:102820000C940D150E94561568F39923B1F35523A6
:1028300091F3951B550BBB27AA27621773078407D3
:1028400038F09F5F5F4F220F331F441FAA1FA9F369
:1028500035D00E2E3AF0E0E832D091505040E69557
:10286000001CCAF72BD0FE2F29D0660F771F881FB8
:10287000BB1F261737074807AB07B0E809F0BB0BAB
:10288000802DBF01FF2793585F4F3AF09E3F5105BF
:1028900078F00C9407150C9479155F3FE4F3983E9B
:1028A000D4F3869577956795B795F7959F5FC9F7A8
:1028B000880F911D9695879597F90895E1E0660F29
:1028C000771F881FBB1F621773078407BA0720F0A2
:1028D000621B730B840BBA0BEE1F88F7E09508950B
:1028E0000E9477146894B1110C94791508950E9490
:1028F0005E1588F09F5798F0B92F9927B751B0F01F
:10290000E1F0660F771F881F991F1AF0BA95C9F773
:1029100014C0B13091F00E947815B1E008950C9484
:102920007815672F782F8827B85F39F0B93FCCF337
:10293000869577956795B395D9F73EF490958095F0
:10294000709561957F4F8F4F9F4F0895E89409C010
:1029500097FB3EF490958095709561957F4F8F4FD2
:102960009F4F9923A9F0F92F96E9BB279395F695E8
:10297000879577956795B795F111F8CFFAF4BB0F66
:1029800011F460FF1BC06F5F7F4F8F4F9F4F16C0CA
:10299000882311F096E911C0772321F09EE8872F54
:1029A000762F05C0662371F096E8862F70E060E010
:1029B0002AF09A95660F771F881FDAF7880F969589
:1029C000879597F90895990F0008550FAA0BE0E82D
:1029D000FEEF16161706E807F907C0F012161306E1
:1029E000E407F50798F0621B730B840B950B39F421
:1029F0000A2661F0232B242B252B21F408950A2687
:102A000009F4A140A6958FEF811D811D089597F9C6
:102A10009F6780E870E060E008959FEF80EC089584
:102A2000DF93CF931F930F93FF92EF92DF927B017F
:102A30008C01689406C0DA2EEF010E949A15FE01FF
:102A4000E894A5912591359145915591A6F3EF0113
:102A50000E943213FE019701A801DA9469F7DF9012
:102A6000EF90FF900F911F91CF91DF910895002477
:102A70000A941616170618060906089500240A94E3
:102A800012161306140605060895092E0394000C69
:102A900011F4882352F0BB0F40F4BF2B11F460FFF8
:102AA00004C06F5F7F4F8F4F9F4F089557FD905821
:102AB000440F551F59F05F3F71F04795880F97FB02
:102AC000991F61F09F3F79F08795089512161306BC
:102AD0001406551FF2CF4695F1DF08C016161706EB
:102AE0001806991FF1CF8695710561050894089520
:102AF000E894BB2766277727CB0197F908959B01B8
:102B0000AC0160E070E080E89FE30C94FE130E944B
:102B10009A150C9445150E94371538F00E943E1501
:102B200020F0952311F00C9407150C940D15112429
:102B30000C9479150E94561570F3959FC1F3950F6B
:102B400050E0551F629FF001729FBB27F00DB11D31
:102B5000639FAA27F00DB11DAA1F649F6627B00DC1
:102B6000A11D661F829F2227B00DA11D621F739FAA
:102B7000B00DA11D621F839FA00D611D221F749FB8
:102B80003327A00D611D231F849F600D211D822FFF
:102B9000762F6A2F11249F5750409AF0F1F0882326
:102BA0004AF0EE0FFF1FBB1F661F771F881F915053
:102BB0005040A9F79E3F510580F00C9407150C94E6
:102BC00079155F3FE4F3983ED4F386957795679542
:102BD000B795F795E7959F5FC1F7FE2B880F911D7D
:102BE0009695879597F908959B01AC010C948715EC
:102BF000CF93DF938230910510F482E090E0E09172
:102C0000EB02F091EC0220E030E0C0E0D0E0309741
:102C100011F14081518148175907C0F048175907F1
:102C200061F482819381209719F09B838A832BC062
:102C30009093EC028093EB0226C02115310519F028
:102C40004217530718F49A01BE01DF01EF01028019
:102C5000F381E02DDCCF2115310509F1281B390B5B
:102C60002430310590F412968D919C911397611543
:102C7000710521F0FB019383828304C09093EC02E1
:102C80008093EB02FD01329644C0FD01E20FF31F79
:102C900081939193225031092D933C933AC0209116
:102CA000E9023091EA02232B41F420910301309193
:102CB00004013093EA022093E9022091010130914E
:102CC00002012115310541F42DB73EB740910501B0
:102CD00050910601241B350BE091E902F091EA02C4
:102CE000E217F307A0F42E1B3F0B2817390778F0E3
:102CF000AC014E5F5F4F2417350748F04E0F5F1F42
:102D00005093EA024093E9028193919302C0E0E07C
:102D1000F0E0CF01DF91CF9108950F931F93CF93F0
:102D2000DF93009709F48CC0FC0132971382128262
:102D30000091EB021091EC020115110581F4208144
:102D40003181820F931F2091E9023091EA02281706
:102D5000390779F5F093EA02E093E90271C0D801EE
:102D600040E050E0AE17BF0750F412962D913C9111
:102D70001397AD012115310509F1D901F3CF9D015B
:102D8000DA013383228360817181860F971F821756
:102D9000930769F4EC0128813981260F371F2E5FD4
:102DA0003F4F318320838A819B8193838283452B8C
:102DB00029F4F093EC02E093EB0242C01396FC93EB
:102DC000EE931297ED01499159919E01240F351F01
:102DD000E217F30771F480819181840F951F0296A9
:102DE00011969C938E938281938113969C938E93DC
:102DF0001297E0E0F0E0D80112968D919C91139724
:102E0000009719F0F8018C01F6CF8D919C919801F3
:102E10002E5F3F4F820F931F2091E9023091EA020B
:102E20002817390769F4309729F41092EC021092B0
:102E3000EB0202C0138212821093EA020093E902AD
:102E4000DF91CF911F910F9108958F929F92AF9232
:102E5000BF92CF92DF92EF92FF92CF93DF93EC017C
:102E6000688179818A819B81611571058105910550
:102E700021F464E279ED8BE597E02DE133EF41E059
:102E800050E00E94E81A49015A019B01AC01A7EAEF
:102E9000B1E40E94071B6B017C01ACEEB4EFA5010D
:102EA00094010E94151BDC01CB018C0D9D1DAE1DF4
:102EB000BF1DB7FF03C00197A109B048888399835C
:102EC000AA83BB839F77DF91CF91FF90EF90DF9034
:102ED000CF90BF90AF909F908F9008950E9425173C
:102EE000089587E091E00E9425170895A0E0B0E0E2
:102EF0008093070190930801A0930901B0930A0100
:102F00000895BB274A3031F4992322F4BDE290950D
:102F100081959F4F0C948D17BB27FB015527AA273E
:102F2000880F991FAA1FA41710F0A41B8395505156
:102F3000B9F7A05DAA3308F0A95DA193009779F7CE
:102F4000B111B1931192CB010C94421A0F931F93BC
:102F5000CF93DF93009731F46115710519F480E088
:102F600090E03AC08B01EC016EE070E081E090E00F
:102F70000E94091AFC01892B91F380E883830115D3
:102F8000110571F01387028781E883838091ED0238
:102F90009091EE02892B21F4F093EE02E093ED0282
:102FA0002097C9F0D187C087838182608383809115
:102FB000EF029091F002892B71F4F093F002E0930C
:102FC000EF028091F1029091F202892B21F4F093AB
:102FD000F202E093F102CF01DF91CF911F910F91A7
:102FE0000895A0E0B0E0E7EFF7E10C942A1BAE01F2
:102FF0004B5F5F4FFA0161917191AF018091EF02D8
:103000009091F0020E943718E2E00C94461B0F9357
:103010001F93CF93DF93E091EF02F091F0022381B1
:1030200021FF1BC08C01D0E0C0E0F80181918F012D
:103030006091EF027091F002DB011896ED91FC9126
:103040001997882331F00995892B79F3DFEFCFEFBA
:10305000ECCF8AE00995892B19F08FEF9FEF02C022
:103060008D2F9C2FDF91CF911F910F910895ACE090
:10307000B0E0EDE3F8E10C941A1B7C016B018A01CE
:10308000FC0117821682838181FFBDC1CE010196AA
:103090004C01F7019381F60193FD859193FF819196
:1030A0006F01882309F4ABC1853239F493FD859112
:1030B00093FF81916F01853229F4B70190E00E945E
:1030C000521AE7CF512C312C20E02032A0F48B3261
:1030D00069F030F4803259F0833269F420612CC0F9
:1030E0008D3239F0803339F4216026C022602460AB
:1030F00023C0286021C027FD27C030ED380F3A30AB
:1031000078F426FF06C0FAE05F9E300D1124532E9E
:1031100013C08AE0389E300D1124332E20620CC07B
:103120008E3221F426FD6BC1206406C08C3611F46A
:10313000206802C0883641F4F60193FD859193FF23
:1031400081916F018111C1CF982F9F7D955493304C
:1031500028F40C5F1F4FFFE3F9830DC0833631F075
:10316000833771F0833509F05BC022C0F80180819C
:1031700089830E5F1F4F44244394512C540115C082
:103180003801F2E06F0E711CF801A080B18026FFBB
:1031900003C0652D70E002C06FEF7FEFC5012C8783
:1031A0000E94371A2C0183012C852F77222E17C0FD
:1031B0003801F2E06F0E711CF801A080B18026FF8B
:1031C00003C0652D70E002C06FEF7FEFC5012C8753
:1031D0000E94251A2C012C852068222E830123FCB5
:1031E0001BC0832D90E048165906B0F4B70180E269
:1031F00090E00E94521A3A94F4CFF50127FC859191
:1032000027FE81915F01B70190E00E94521A3110B0
:103210003A94F1E04F1A51084114510471F7E5C096
:10322000843611F0893639F5F80127FF07C060812F
:103230007181828193810C5F1F4F08C06081718111
:10324000072E000C880B990B0E5F1F4F2F76722EE6
:1032500097FF09C090958095709561957F4F8F4F2E
:103260009F4F2068722E2AE030E0A4010E948A1A43
:10327000A82EA81844C0853729F42F7EB22E2AE044
:1032800030E025C0F22FF97FBF2E8F36C1F018F441
:10329000883579F0B4C0803719F0883721F0AFC095
:1032A0002F2F2061B22EB4FE0DC08B2D8460B82E5E
:1032B00009C024FF0AC09F2F9660B92E06C028E0DF
:1032C00030E005C020E130E002C020E132E0F8014A
:1032D000B7FE07C060817181828193810C5F1F4FAF
:1032E00006C06081718180E090E00E5F1F4FA401F5
:1032F0000E948A1AA82EA818FB2DFF777F2E76FE33
:103300000BC0372D3E7FA51450F474FE0AC072FC2A
:1033100008C0372D3E7E05C0BA2C372D03C0BA2C0D
:1033200001C0B52C34FF0DC0FE01EA0DF11D8081F6
:10333000803311F4397E09C032FF06C0B394B394D0
:1033400004C0832F867809F0B39433FD13C030FF97
:1033500006C05A2CB31418F4530C5B18B32CB314D6
:1033600068F4B70180E290E03C870E94521AB3945F
:103370003C85F5CFB31410F43B1801C0312C34FF59
:1033800012C0B70180E390E03C870E94521A3C854E
:1033900032FF17C031FD03C088E790E002C088E526
:1033A00090E0B7010CC0832F867859F031FF02C03E
:1033B0008BE201C080E237FD8DE2B70190E00E9410
:1033C000521AA51438F4B70180E390E00E94521A13
:1033D0005A94F7CFAA94F401EA0DF11D8081B70148
:1033E00090E00E94521AA110F5CF332009F451CE7B
:1033F000B70180E290E00E94521A3A94F6CFF701AA
:103400008681978102C08FEF9FEF2C96E2E10C94AA
:10341000361B0F931F93CF93DF93869F8001879F67
:10342000100D969F100D1124C8010E94F815EC0193
:10343000009729F0A80160E070E00E94301ACE01E8
:10344000DF91CF911F910F910895FC01059061507C
:1034500070400110D8F7809590958E0F9F1F0895AA
:10346000DC0101C06D9341505040E0F70895FC012C
:103470006150704001900110D8F7809590958E0FA3
:103480009F1F0895DC01FC01672F71917723E1F7FD
:10349000329704C07C916D9370836291AE17BF0721
:1034A000C8F308950F931F93CF93DF93FB012381FC
:1034B00021FD03C08FEF9FEF28C022FF16C0468179
:1034C0005781248135814217530744F4A081B1818B
:1034D0009D012F5F3F4F318320838C93268137815D
:1034E0002F5F3F4F3783268310C0EB01092F182F22
:1034F0000084F185E02D0995892BE1F68E819F816D
:1035000001969F838E83812F902FDF91CF911F9102
:103510000F910895FA01AA27283051F1203181F145
:10352000E8946F936E7F6E5F7F4F8F4F9F4FAF4FCB
:10353000B1E03ED0B4E03CD0670F781F891F9A1FDE
:10354000A11D680F791F8A1F911DA11D6A0F711D92
:10355000811D911DA11D20D009F468943F912AE09E
:10356000269F11243019305D3193DEF6CF01089586
:10357000462F4770405D4193B3E00FD0C9F7F6CFB7
:10358000462F4F70405D4A3318F0495D31FD40527F
:10359000419302D0A9F7EACFB4E0A6959795879515
:1035A00077956795BA95C9F70097610571050895F4
:1035B0009B01AC010A2E06945795479537952795A0
:1035C000BA95C9F7620F731F841F951FA01D089538
:1035D000052E97FB1EF400940E94FF1A57FD07D09A
:1035E0000E94511B07FC03D04EF40C94FF1A509517
:1035F0004095309521953F4F4F4F5F4F08959095DF
:103600008095709561957F4F8F4F9F4F08950E94D1
:103610000B13A59F900DB49F900DA49F800D911D3D
:1036200011240895B7FF0C94071B0E94071B821BEF
:10363000930B08952F923F924F925F926F927F92D9
:103640008F929F92AF92BF92CF92DF92EF92FF92B2
:103650000F931F93CF93DF93CDB7DEB7CA1BDB0B5E
:103660000FB6F894DEBF0FBECDBF09942A88398803
:1036700048885F846E847D848C849B84AA84B9840A
:10368000C884DF80EE80FD800C811B81AA81B98116
:10369000CE0FD11D0FB6F894DEBF0FBECDBFED012A
:1036A0000895A1E21A2EAA1BBB1BFD010DC0AA1F83
:1036B000BB1FEE1FFF1FA217B307E407F50720F09B
:1036C000A21BB30BE40BF50B661F771F881F991F16
:1036D0001A9469F760957095809590959B01AC015F
:0A36E000BD01CF010895F894FFCF5B
:1036EA00020000F302200001000000C0F0FCFFFF0E
:1036FA00FCF0C05374617274696E67205352414D75
:10370A0020746573742E2E2E0057726974652070AA
:10371A0068617365206572726F723A206578745FAA
:10372A0072616D5B2534645D203D2025303258205E
:10373A002873686F756C64206265202530325829B9
:10374A000D0A0052657472696576616C2070686151
:10375A007365206572726F723A206578745F726160
:10376A006D5B2534645D203D202530325820287356
:10377A00686F756C642062652025303258290D0AFD
:10378A00005352414D207465737420636F6D706CE1
:10379A00657465642077697468200D0A253464208D
:1037AA006572726F727320696E2077726974652010
:1037BA00706861736520616E64200D0A2534642087
:1037CA006572726F727320696E20726574726965B0
:1037DA0076616C2070686173650D0A0A007E004587
:1037EA00415359004D61696E204D656E75005069EF
:1037FA006E6720506F6E67210053706163652052B7
:10380A00756E6E65720053746172740053656C65EF
:10381A006374204C6576656C0044696666696375F5
:10382A006C747900486967682053636F7265004E4B
:10383A004F524D414C0048415244005374617274D6
:10384A002053520053656C65637420737065656418
:10385A0000486F726566616E74006B6D7000474553
:10386A00542052454144592100504C4159494E4730
:10387A000050494E47504F4E4700594F5520444932
:10388A0045442100536F6D657468696E673A202557
:0A389A00730053636F72653A20005B
:00000001FF
