:100000000C9477030C94AD090C9494030C94A00405
:100010000C9494030C9494030C9494030C94940304
:100020000C9494030C9494030C9494030C949403F4
:100030000C9494030C9494030C9494030C942B064A
:100040000C9494030C9494030C9494030C949403D4
:100050000C9494030C9494030C9494030C949403C4
:100060000C9494030C9494030C9494030C949403B4
:10007000084AD73B3BCE016E84BCBFFDC12F3D6C0F
:1000800074319ABD56833DDA3D00C77F11BED9E475
:10009000BB4C3E916BAAAABE000000803F0000004E
:1000A0000000005C00000C000C007C287C2858DC60
:1000B00068002410480028542840000C00000078F4
:1000C00084008478000054385400107C1000804074
:1000D0000000101010000040000060100C003854A8
:1000E0003800487C40004864580044542C001C10E0
:1000F0007C005C5424003854240064140C006854C0
:100100002C004854380000480000804800001028A7
:1001100044002828280044281000045408003844CB
:100120005C00781478007C542800384428007C4413
:1001300038007C5444007C140400384474007C1063
:100140007C00447C440020403C007C106C007C40DF
:1001500040007C187C0078103C00384438007C1447
:1001600008003844B8007C14680048542400047C1B
:1001700004007C407C003C603C007C307C006C10C7
:100180006C000C700C0064544C00007C44000C109B
:100190006000447C000008040800808080000004A7
:1001A0000800304878007C4830003048480030482B
:1001B0007C00306850001078140090A878007C080B
:1001C000700050744000808074007C106800447C93
:1001D0004000781078007808700030483000F82827
:1001E00010003048F8007810080050582800083CEB
:1001F000480038407800384038007820780048308F
:10020000480098A078004868580010788400007C66
:1002100000008478100008040804000000000000BA
:10022000005F00000007000700147F147F14242AD9
:100230007F2A1223130864623649552250000503B1
:100240000000001C2241000041221C00082A1C2A38
:100250000808083E08080050300000080808080890
:10026000006060000020100804023E5149453E0035
:10027000427F400042615149462141454B311814AB
:10028000127F1027454545393C4A494930017109DB
:1002900005033649494936064949291E00363600C4
:1002A00000005636000000081422411414141414DF
:1002B00041221408000201510906324979413E7E6B
:1002C0001111117E7F494949363E414141227F410A
:1002D00041221C7F494949417F090901013E4141B1
:1002E00051327F0808087F00417F41002040413F94
:1002F000017F081422417F404040407F0204027F7A
:100300007F0408107F3E4141413E7F090909063EB6
:100310004151215E7F091929464649494931010168
:100320007F01013F4040403F1F2040201F7F201899
:10033000207F631408146303047804036151494562
:100340004300007F4141020408102041417F00002A
:100350000402010204404040404000010204002029
:10036000545454787F4844443838444444203844F2
:1003700044487F3854545418087E09010208145424
:10038000543C7F0804047800447D40002040443DF4
:1003900000007F10284400417F40007C041804784E
:1003A0007C0804047838444444387C141414080845
:1003B0001414187C7C080404084854545420043F46
:1003C0004440203C4040207C1C2040201C3C4030CD
:1003D000403C44281028440C5050503C4464544C39
:1003E00044000836410000007F000000413608004C
:1003F0000201030201000000000000000000065F8F
:100400005F060000000007070007070000147F7F59
:10041000147F7F1400242E6B6B3A12000046663066
:10042000180C666200307A4F5D377A480004070383
:100430000000000000001C3E63410000000041631A
:100440003E1C000000082A3E1C1C3E2A0808083EEC
:100450003E0808000000A0E0600000000008080856
:10046000080808000000006060000000006030180C
:100470000C060301003E7F594D7F3E000042427F43
:100480007F40400000627359496F66000022634953
:10049000497F360000181C16137F7F100027674520
:1004A000457D3900003C7E4B497930000003637183
:1004B000190F070000367F49497F360000064F4973
:1004C000693F1E000000006C6C0000000000A0EC02
:1004D0006C00000000081C36634100000014141476
:1004E0001414140000004163361C0800000203517C
:1004F000590F0600003E7F415D5D1F1E007C7E138C
:10050000137E7C0000417F7F49497F36001C3E639B
:100510004141632200417F7F41637F1C00417F7F17
:10052000495D416300417F7F491D0103001C3E631B
:1005300041517372007F7F08087F7F000000417F78
:100540007F41000000307040417F3F0100417F7FCC
:10055000081C776300417F7F41406070007F7F0609
:100560000C067F7F007F7F060C187F7F001C3E6398
:1005700041633E1C00417F7F49090F06001E3F2159
:10058000717F5E0000417F7F19396F460026674DFD
:10059000597B32000003417F7F410300007F7F4091
:1005A000407F7F00001F3F60603F1F00007F7F3063
:1005B00018307F7F0063771C081C776300074F7833
:1005C000784F0700006773594D47637100007F7FC4
:1005D00041410000000103060C1830600000414159
:1005E0007F7F000000080C0603060C080080808056
:1005F00080808080807909097F48484F00207454AA
:10060000543C784000413F7F44447C3800387C446F
:10061000446C280000307848493F7F4000387C54C3
:10062000545C180000487E7F490302000098BCA477
:10063000A4F87C0400417F7F08047C780000447D9E
:100640007D4000000040C484FD7D000000417F7FAC
:1006500010386C440000417F7F400000007C7C0C1F
:10066000180C7C78007C7C04047C780000387C4486
:10067000447C38000084FCF8A4243C1800183C2476
:10068000A4F8FC8400447C78441C180000485C54A6
:10069000547424000000043E7F442400003C7C404D
:1006A000403C7C40001C3C60603C1C00003C7C608A
:1006B00030607C3C00446C3810386C44009CBCA01A
:1006C000A0FC7C00004C64745C4C64000008083E94
:1006D000774141000000000077770000004141773A
:1006E0003E08080000587C660202667C580011240F
:1006F0001FBECFEFD4E0DEBFCDBF12E0A0E0B1E07F
:10070000ECE3F4E202C005900D92A637B107D9F7E9
:1007100022E0A6E7B2E001C01D92AA39B207E1F7D4
:100720000E9496030C941C120C940000CF93DF934C
:10073000CDB7DEB72A970FB6F894DEBF0FBECDBF98
:10074000F8940E94EA030E94F5030E948A040E9422
:10075000F6050E94CB060E94A3070E94F008789439
:10076000CE0101960E94AF040AE011E0CE0101968D
:100770000E94E104CE0101960E941B05CE01019664
:100780000E94BE05CE0101960E94FC078A858F93C8
:1007900089858F931F930F930E949B0E8FEF9FEB82
:1007A0000197F1F700C000000F900F900F900F908D
:1007B0000E943107DBCF5D9BFECF8CB908955F9B14
:1007C000FECF8CB1089590BD89B988E18AB98EE8D1
:1007D00080BD08958FE190E00E94E3036FED73E028
:1007E0008BED93E00E94500E089585B7806885BF19
:1007F00080B7806280BF0895FC01F85E6083089531
:10080000FC01F85E8081082E000C990B0895CF92B0
:10081000DF92EF92FF920F931F93CF93DF938CE1C0
:1008200091E00E94B10E0E94400E7C010E94450E94
:10083000C12CD12CC0E0D0E002E311E00E94400EB8
:10084000F601F85E808320812817A1F099279F93F5
:100850008F931F922F93DF92CF921F930F930E943B
:100860009B0E21968DB79EB708960FB6F8949EBF43
:100870000FBE8DBF9FEFC91AD90AC11488E0D806F0
:10088000E9F6C7010E94450E00E010E0E12CF12CD2
:100890000F2EFCE6CF2EF1E0DF2EF02D0E94400E51
:1008A000F801F85E20812817B1F099279F938F9364
:1008B0001F922F931F930F93DF92CF920E949B0E54
:1008C0009FEFE91AF90A8DB79EB708960FB6F8940C
:1008D0009EBF0FBE8DBF0F5F1F4F011598E0190718
:1008E000E9F6FF92EF92DF93CF938AEA91E09F932C
:1008F0008F930E949B0E0F900F900F900F900F9070
:100900000F90DF91CF911F910F91FF90EF90DF90AB
:10091000CF9008958BB78BBF86B786BF8AB78062AA
:100920008ABF8BB780628BBF08958093001480913B
:1009300076028823E1F310927602809100140895E4
:100940001F920F920FB60F9211248F9381E0809324
:1009500076028F910F900FBE0F901F9018950F93F6
:100960001F93CF93DF938C01C4E0D0E085E090E04B
:100970000E94950484E090E00E94950483EC99E045
:100980000197F1F700C00000219781F785E090E022
:100990000E94950490E0F8019583848384E090E0C0
:1009A0000E94950490E0F80195838483118210825F
:1009B0001382128211861086DF91CF911F910F91C1
:1009C0000895CF93DF93EC0185E090E00E949504B9
:1009D000682F70E080E090E00E946E0B2AE838EC0F
:1009E00048E45FE30E94520C20E030E048EC52E41F
:1009F0000E94E4090E94360B7983688384E090E0CA
:100A00000E949504682F70E080E090E00E946E0BD9
:100A10002AE838EC48E45FE30E94520C20E030E022
:100A200048EC52E40E94E4090E94360B7B836A83FF
:100A3000DF91CF910895AF92BF92CF92DF92EF9264
:100A4000FF920F931F93CF93DF93EC0108811981DD
:100A5000AA80BB80B801012E000C880B990B0E9464
:100A60006E0B6B017C01B5010B2C000C880B990BF4
:100A70000E946E0BA70196010E94640A6B017C0123
:100A8000C801992324F488279927801B910B0F977D
:100A90003CF48FE0A816B1041CF41986188663C0D4
:100AA0002BED3FE049E45FE3C701B6010E94450C2E
:100AB00088237CF024EE3BEC46E150E4C701B6010C
:100AC0000E94C30A88232CF481E090E099878887EC
:100AD0004AC024EE3BEC46E150ECC701B6010E944F
:100AE000450C18167CF42BED3FE049E45FEBC701A1
:100AF000B6010E94C30A18162CF082E090E0998794
:100B0000888731C024EE3BEC46E150E4C701B601D2
:100B10000E94450C181654F024EE3BEC46E150ECD4
:100B2000C701B6010E94C30A18162CF083E090E0BA
:100B30009987888718C02BED3FE049E45FEBC70138
:100B4000B6010E94450C181674F42BED3FE049E401
:100B50005FE3C701B6010E94C30A181624F084E0BF
:100B600090E099878887DF91CF911F910F91FF9037
:100B7000EF90DF90CF90BF90AF900895CF93DF9329
:100B8000CDB7DEB72A970FB6F894DEBF0FBECDBF44
:100B9000FC0181E08A8382E0898390819C599B8358
:100BA00082818C598C83CE0101960E940E092A966F
:100BB0000FB6F894DEBF0FBECDBFDF91CF91089581
:100BC000CF93DF93EC0187E090E00E949504282FFB
:100BD00030E03983288386E090E00E949504282F36
:100BE00030E03B832A83DF91CF910895E0E0F0E18C
:100BF0008EEA808381EA80838AED808382E180832C
:100C000088EC808388EA80838FE3808385ED80830E
:100C100080E8808391E8908390E5908399ED9083BC
:100C200091E2908390E2908310829BED908390E319
:100C300090839DEA9083108294EA908396EA908351
:100C40009FEA908390EB9CBD9FEF9DBD1FBC95E0FC
:100C50009EBD89BF08951F920F920FB60F92112467
:100C60000F900FBE0F901F9018958093001008955D
:100C700080930012089580937702E0E0F0E192E221
:100C8000908380838F5F808381E2808310828FE7EF
:100C90008083089580937802E0E0F0E191E2908310
:100CA00080838FE780830895E7E7F2E01082118266
:100CB000E0E0F0E182E28083108281E0808381E2E3
:100CC000808310828FE780830895E7E7F2E08083D6
:100CD0006183E0E0F0E192E2908380838F5F808324
:100CE00081E2808360838FE780830895E82FF0E0BE
:100CF000F45E608381E090E090937A0280937902C1
:100D00000895A7E7B2E021E030E013963C932E93DC
:100D1000129728E0829FC0011124FC01EB50FD4F87
:100D20002C9111968C9190E030E8239F800D911DBD
:100D30001124DC01B45E885F934E24912D9331968B
:100D4000A817B907D1F70895EF92FF920F931F9359
:100D5000CF93DF93FC0101900020E9F73197E81B66
:100D6000F90B1E161F0684F4EC017C01EE0EFF1E2B
:100D700007E712E089910E948106F8019181985F4E
:100D80009183CE15DF05B1F7DF91CF911F910F91C0
:100D9000FF90EF900895E0E0FCE109C01192E817A0
:100DA000F907E1F7FC01E11580E2F80721F0CF0136
:100DB00080589F4FF3CF0E94540608950E943B062F
:100DC0008091770220E8829FC0011124FC01F45E2B
:100DD0008058934E1192E817F907E1F70895EF92C2
:100DE000FF920F931F93CF93DF937C010E94CB065A
:100DF0000E945406D7018D919C910E94A406F70190
:100E000082898823D9F087010C5F1F4FC0E0D0E0B2
:100E10002196CE010E943B068FE090E00E944A0698
:100E2000D801ED91FD918D01808191810E94A406F0
:100E3000F701228930E0C217D30754F3DF91CF9135
:100E40001F910F91FF90EF90089590E00E943B0654
:100E500080E090E00E944A0686E092E00E94A406AC
:100E600008958F929F92AF92BF92CF92DF92EF92AE
:100E7000FF920F931F93CF93DF930E945406A12CF0
:100E8000B12C00E010E0812C912C0F2EC12CF2E14E
:100E9000DF2EF02D16C0BE01C8010E946506F701C5
:100EA000EC0FFD1F9081F60190832196C038D1058B
:100EB00091F70F5F1F4FF0E8AF0EB11C083011051E
:100EC00031F0C82DD92D7501F4EEFF1AE4CFDF9172
:100ED000CF911F910F91FF90EF90DF90CF90BF9037
:100EE000AF909F908F9008950F931F93CF93DF93B0
:100EF000EC018B0183E190E00E94C70CDC011196AC
:100F00001C930E931396DC93CE931297FC013496A8
:100F1000429611921192E817F907D9F752961C924E
:100F200052979A899F5F9A8BE92FF0E03196EE0FE6
:100F3000FF1FEC0FFD1FB183A083CD01DF91CF9187
:100F40001F910F9108950F931F93CF93DF9383E128
:100F500090E00E94C70C90938F0280938E0228E04D
:100F600032E0FC013183208313821282128A34968C
:100F70009C012E5E3F4F11921192E217F307D9F7B1
:100F800090938C0280938B0262E172E00E9474075E
:100F90008C016DE172E080918E0290918F020E942F
:100FA000740768E272E080918E0290918F020E9435
:100FB000740763E372E0C8010E947407EC0160E407
:100FC00072E0C8010E9474078C016DE472E0CE01EA
:100FD0000E9474076CE572E0C8010E9474076AE61B
:100FE00072E0CE010E94740781E080938D02DF9150
:100FF000CF911F910F910895FC01808591858230DA
:10100000910509F45BC020F4019709F446C06BC058
:101010008330910549F1049709F065C020918B0256
:1010200030918C0280918D02E82FF0E03196EE0F26
:10103000FF1FE20FF31F0190F081E02D8481958165
:10104000892B09F450C0F0938C02E0938B0281E06D
:1010500080938D02FFEF2FEF82E0F150204080401F
:10106000E1F700C000C03FC0E0918B02F0918C021C
:10107000828193810097B9F190938C0280938B02C7
:1010800081E080938D029FEFEFEFF2E09150E0401E
:10109000F040E1F700C000C026C080918D02823090
:1010A00010F1815080938D022FEF8FEF92E021504D
:1010B00080409040E1F700C000C015C080918D02D3
:1010C000E0918B02F0918C029289891760F48F5F16
:1010D00080938D02EFEFFFEF22E0E150F0402040DF
:1010E000E1F700C000C080918B0290918C020E94B9
:1010F000EF0680918D020E942507089587B3806BCB
:1011000087BB8DB181658DB908958FB9779BFECF6F
:101110008FB10895CF93C82FC49883E00E948508AB
:101120008C2F0E9485088FEF0E948508C49ACF916A
:101130000895CF93DF93D82FC62FC49882E00E94E2
:1011400085088D2F0E9485088C2F0E948508C49ADF
:10115000DF91CF910895C498813051F028F082300A
:1011600059F0833069F00FC081E80E9485080BC0F8
:1011700082E80E94850807C084E80E94850803C0B1
:1011800087E80E948508C49A089580EA0E948A0828
:1011900008951F93CF93DF93182FD62FC42FC49891
:1011A00085E00E948508812F0E9485088D2F0E946E
:1011B00085088C2F0E948508C49ADF91CF911F91DA
:1011C0000895C49880EC0E948508C49A08950E94EE
:1011D0007E080E94E10860E08FE00E94990808956F
:1011E0000E94E70860E08FE00E94990860E680E6D0
:1011F0000E94990841E061E08BE20E94C90840E04A
:1012000061E08CE20E94C90885B7826085BF8BB718
:1012100080648BBF8AB780648ABF0895EF92FF9283
:101220000F931F93CF93DF937C0160E081E30E94D3
:101230009908F70161816295660F607E82E30E94E2
:101240009908F701608185E30E949908F701808180
:101250008823C9F087010E5F1F4FC0E0D0E0F8017E
:1012600061918F018C2F8A5C0E94990889EF90E030
:101270000197F1F700C000002196F701208130E0CE
:10128000C217D30764F380E00E94AB08DF91CF91CF
:101290001F910F91FF90EF9008959F92AF92BF9290
:1012A000CF92DF92EF92FF920F931F93CF93DF9332
:1012B000CDB7DEB72A970FB6F894DEBF0FBECDBF0D
:1012C0005C0185E60E948A08982E81E60E948A08C1
:1012D000182F82E60E948A08829586958770169557
:1012E00016951695082F010F9920A9F07E0183E02D
:1012F000E80EF11C9E01290D311DF90133966F0195
:1013000016E6812F0E948A08F70181937F011F5FF3
:10131000EC15FD05B1F740E061E08CE20E94C908E0
:1013200099820A838AE0FE013196D50101900D92DF
:101330008A95E1F7C5012A960FB6F894DEBF0FBE75
:10134000CDBFDF91CF911F910F91FF90EF90DF9074
:10135000CF90BF90AF909F9008951F920F920FB6BD
:101360000F9211242F933F934F935F936F937F932B
:101370008F939F93AF93BF93EF93FF93CF93DF939D
:10138000CDB7DEB72A97DEBFCDBFF894CE01019668
:101390000E944D0978942A960FB6F894DEBF0FBECE
:1013A000CDBFDF91CF91FF91EF91BF91AF919F9111
:1013B0008F917F916F915F914F913F912F910F90FE
:1013C0000FBE0F901F9018955058BB27AA270E9458
:1013D000FC090C940B0C0E94FD0B38F00E94040CCD
:1013E00020F039F49F3F19F426F40C94D30B0EF43B
:1013F000E095E7FB0C94CD0BE92F0E941C0C58F3F1
:10140000BA17620773078407950720F079F4A6F5E9
:101410000C943E0C0EF4E0950B2EBA2FA02D0B0170
:10142000B90190010C01CA01A0011124FF27591B29
:1014300099F0593F50F4503E68F11A16F040A22F2F
:10144000232F342F4427585FF3CF469537952795A0
:10145000A795F0405395C9F77EF41F16BA0B620B9F
:10146000730B840BBAF09150A1F0FF0FBB1F661FE6
:10147000771F881FC2F70EC0BA0F621F731F841F29
:1014800048F4879577956795B795F7959E3F08F04F
:10149000B0CF9395880F08F09927EE0F9795879511
:1014A00008950E94FD0B60F080E891E009F49EEF42
:1014B0000E94040C28F040E851E071F45EEF0CC08B
:1014C0000C94D30B0C943E0CE92FE0780E941C0C7A
:1014D00040F3092E052AB1F32617370748075907A5
:1014E00038F00E2E07F8E02569F0E025E0640AC028
:1014F000EF6307F8009407FADB01B9019D01DC01F5
:10150000CA01AD01EF930E94DB0A0E940B0C0E94FE
:10151000940A5F91552339F02BED3FE049E450FDEB
:1015200049EC0C94E5090895DF93DD27B92FBF77C7
:1015300040E85FE31616170648075B0718F4D92F33
:101540000E944A0C9F938F937F936F930E94BF0CCE
:10155000E0E7F0E00E94D60B0E940B0C2F913F9128
:101560004F915F910E94650CDD2351F09058A2EAE3
:101570002AED3FE049EC5FE3D0785D270E94FC094B
:10158000DF910C940B0C0E94A90B08F481E00895E4
:101590000E94040C58F00E94FD0B40F029F45F3FBC
:1015A00029F00C94CD0B51110C943F0C0C94D30BDF
:1015B0000E941C0C68F39923B1F3552391F3951BFA
:1015C000550BBB27AA2762177307840738F09F5F64
:1015D0005F4F220F331F441FAA1FA9F335D00E2ED1
:1015E0003AF0E0E832D091505040E695001CCAF73E
:1015F0002BD0FE2F29D0660F771F881FBB1F261701
:1016000037074807AB07B0E809F0BB0B802DBF01D7
:10161000FF2793585F4F3AF09E3F510578F00C94A6
:10162000CD0B0C943F0C5F3FE4F3983ED4F38695CA
:1016300077956795B795F7959F5FC9F7880F911DC7
:101640009695879597F90895E1E0660F771F881FB3
:10165000BB1F621773078407BA0720F0621B730B66
:10166000840BBA0BEE1F88F7E09508950E943D0B9E
:101670006894B1110C943F0C08950E94240C88F0DA
:101680009F5798F0B92F9927B751B0F0E1F0660F46
:10169000771F881F991F1AF0BA95C9F714C0B13087
:1016A00091F00E943E0CB1E008950C943E0C672F1F
:1016B000782F8827B85F39F0B93FCCF386957795B6
:1016C0006795B395D9F73EF490958095709561959F
:1016D0007F4F8F4F9F4F0895E89409C097FB3EF4CA
:1016E00090958095709561957F4F8F4F9F4F99236F
:1016F000A9F0F92F96E9BB279395F69587957795ED
:101700006795B795F111F8CFFAF4BB0F11F460FFAC
:101710001BC06F5F7F4F8F4F9F4F16C0882311F004
:1017200096E911C0772321F09EE8872F762F05C018
:10173000662371F096E8862F70E060E02AF09A95B3
:10174000660F771F881FDAF7880F9695879597F9A8
:101750000895990F0008550FAA0BE0E8FEEF161642
:101760001706E807F907C0F012161306E407F50795
:1017700098F0621B730B840B950B39F40A2661F009
:10178000232B242B252B21F408950A2609F4A140AC
:10179000A6958FEF811D811D089597F99F6780E8B9
:1017A00070E060E008959FEF80EC0895DF93CF93A1
:1017B0001F930F93FF92EF92DF927B018C0168944D
:1017C00006C0DA2EEF010E94650CFE01E894A59197
:1017D0002591359145915591A6F3EF010E94FC09A1
:1017E000FE019701A801DA9469F7DF90EF90FF906E
:1017F0000F911F91CF91DF91089500240A9416163E
:10180000170618060906089500240A9412161306EE
:10181000140605060895092E0394000C11F488237C
:1018200052F0BB0F40F4BF2B11F460FF04C06F5F98
:101830007F4F8F4F9F4F089557FD9058440F551F6E
:1018400059F05F3F71F04795880F97FB991F61F042
:101850009F3F79F087950895121613061406551FB9
:10186000F2CF4695F1DF08C0161617061806991F25
:10187000F1CF86957105610508940895E894BB271A
:1018800066277727CB0197F908950E94A90B08F4E2
:101890008FEF08959B01AC0160E070E080E89FE36A
:1018A0000C94C30C0E94650C0C940B0C0E94FD0B55
:1018B00038F00E94040C20F0952311F00C94CD0B0D
:1018C0000C94D30B11240C943F0C0E941C0C70F34D
:1018D000959FC1F3950F50E0551F629FF001729FD5
:1018E000BB27F00DB11D639FAA27F00DB11DAA1FE4
:1018F000649F6627B00DA11D661F829F2227B00D31
:10190000A11D621F739FB00DA11D621F839FA00DBB
:10191000611D221F749F3327A00D611D231F849F0B
:10192000600D211D822F762F6A2F11249F57504062
:101930009AF0F1F088234AF0EE0FFF1FBB1F661FDD
:10194000771F881F91505040A9F79E3F510580F0A6
:101950000C94CD0B0C943F0C5F3FE4F3983ED4F312
:10196000869577956795B795F795E7959F5FC1F74A
:10197000FE2B880F911D9695879597F908959B01E9
:10198000AC010C94520C0E94D80A0C940B0CCF930F
:10199000DF938230910510F482E090E0E0919202B2
:1019A000F091930220E030E0C0E0D0E0309711F1F8
:1019B0004081518148175907C0F04817590761F411
:1019C00082819381209719F09B838A832BC0909307
:1019D00093028093920226C02115310519F0421717
:1019E000530718F49A01BE01DF01EF010280F38171
:1019F000E02DDCCF2115310509F1281B390B2430EE
:101A0000310590F412968D919C9113976115710593
:101A100021F0FB019383828304C09093930280930F
:101A20009202FD01329644C0FD01E20FF31F819343
:101A30009193225031092D933C933AC0209190020A
:101A400030919102232B41F4209102013091030146
:101A50003093910220939002209100013091010176
:101A60002115310541F42DB73EB740910401509145
:101A70000501241B350BE0919002F0919102E217D1
:101A8000F307A0F42E1B3F0B2817390778F0AC01A1
:101A90004E5F5F4F2417350748F04E0F5F1F50937E
:101AA0009102409390028193919302C0E0E0F0E0B4
:101AB000CF01DF91CF9108950F931F93CF93DF93C1
:101AC000009709F48CC0FC013297138212820091B6
:101AD0009202109193020115110581F42081318148
:101AE000820F931F2091900230919102281739079D
:101AF00079F5F0939102E093900271C0D80140E033
:101B000050E0AE17BF0750F412962D913C911397F9
:101B1000AD012115310509F1D901F3CF9D01DA019C
:101B20003383228360817181860F971F8217930709
:101B300069F4EC0128813981260F371F2E5F3F4F52
:101B4000318320838A819B8193838283452B29F46F
:101B5000F0939302E093920242C01396FC93EE93AB
:101B60001297ED01499159919E01240F351FE217FB
:101B7000F30771F480819181840F951F029611966D
:101B80009C938E938281938113969C938E9312974C
:101B9000E0E0F0E0D80112968D919C9113970097A8
:101BA00019F0F8018C01F6CF8D919C9198012E5F70
:101BB0003F4F820F931F209190023091910228177E
:101BC000390769F4309729F4109293021092920227
:101BD00002C0138212821093910200939002DF914F
:101BE000CF911F910F9108958F929F92AF92BF92C4
:101BF000CF92DF92EF92FF92CF93DF93EC01688157
:101C000079818A819B81611571058105910521F496
:101C100064E279ED8BE597E02DE133EF41E050E0B0
:101C20000E94821149015A019B01AC01A7EAB1E46B
:101C30000E94A1116B017C01ACEEB4EFA5019401EF
:101C40000E94AF11DC01CB018C0D9D1DAE1DBF1D8F
:101C5000B7FF03C00197A109B04888839983AA837D
:101C6000BB839F77DF91CF91FF90EF90DF90CF9074
:101C7000BF90AF909F908F9008950E94F40D0895AB
:101C800086E091E00E94F40D0895A0E0B0E080931A
:101C9000060190930701A0930801B09309010895EC
:101CA0000F931F93CF93DF93009731F46115710564
:101CB00019F480E090E03AC08B01EC016EE070E036
:101CC00081E090E00E94B310FC01892B91F380E841
:101CD00083830115110571F01387028781E88383DF
:101CE0008091940290919502892B21F4F0939502B2
:101CF000E09394022097C9F0D187C08783818260E6
:101D000083838091960290919702892B71F4F093CE
:101D10009702E09396028091980290919902892B04
:101D200021F4F0939902E0939802CF01DF91CF91D3
:101D30001F910F910895A0E0B0E0E1EAFEE00C945D
:101D4000C411AE014B5F5F4FFA0161917191AF0118
:101D500080919602909197020E94E10EE2E00C942D
:101D6000E0110F931F93CF93DF93E0919602F091D0
:101D70009702238121FF1BC08C01D0E0C0E0F80155
:101D800081918F016091960270919702DB01189604
:101D9000ED91FC911997882331F00995892B79F3FE
:101DA000DFEFCFEFECCF8AE00995892B19F08FEFA9
:101DB0009FEF02C08D2F9C2FDF91CF911F910F912C
:101DC0000895ACE0B0E0E7EEFEE00C94B4117C01C5
:101DD0006B018A01FC0117821682838181FFBDC1DC
:101DE000CE0101964C01F7019381F60193FD859197
:101DF00093FF81916F01882309F4ABC1853239F4D7
:101E000093FD859193FF81916F01853229F4B7018C
:101E100090E00E94EC10E7CF512C312C20E02032D2
:101E2000A0F48B3269F030F4803259F0833269F4D7
:101E300020612CC08D3239F0803339F4216026C006
:101E40002260246023C0286021C027FD27C030ED18
:101E5000380F3A3078F426FF06C0FAE05F9E300D66
:101E60001124532E13C08AE0389E300D1124332ED6
:101E700020620CC08E3221F426FD6BC1206406C0A6
:101E80008C3611F4206802C0883641F4F60193FDC7
:101E9000859193FF81916F018111C1CF982F9F7D13
:101EA0009554933028F40C5F1F4FFFE3F9830DC066
:101EB000833631F0833771F0833509F05BC022C07F
:101EC000F801808189830E5F1F4F44244394512C75
:101ED000540115C03801F2E06F0E711CF801A080AA
:101EE000B18026FF03C0652D70E002C06FEF7FEF69
:101EF000C5012C870E94E1102C0183012C852F77CE
:101F0000222E17C03801F2E06F0E711CF801A0807C
:101F1000B18026FF03C0652D70E002C06FEF7FEF38
:101F2000C5012C870E94CF102C012C852068222E01
:101F3000830123FC1BC0832D90E048165906B0F4A2
:101F4000B70180E290E00E94EC103A94F4CFF501E2
:101F500027FC859127FE81915F01B70190E00E94E7
:101F6000EC1031103A94F1E04F1A51084114510429
:101F700071F7E5C0843611F0893639F5F80127FF8D
:101F800007C060817181828193810C5F1F4F08C0FF
:101F900060817181072E000C880B990B0E5F1F4F1B
:101FA0002F76722E97FF09C0909580957095619558
:101FB0007F4F8F4F9F4F2068722E2AE030E0A401A0
:101FC0000E942411A82EA81844C0853729F42F7E1A
:101FD000B22E2AE030E025C0F22FF97FBF2E8F36D7
:101FE000C1F018F4883579F0B4C0803719F088371B
:101FF00021F0AFC02F2F2061B22EB4FE0DC08B2D6B
:102000008460B82E09C024FF0AC09F2F9660B92EA5
:1020100006C028E030E005C020E130E002C020E149
:1020200032E0F801B7FE07C060817181828193813F
:102030000C5F1F4F06C06081718180E090E00E5FF1
:102040001F4FA4010E942411A82EA818FB2DFF7772
:102050007F2E76FE0BC0372D3E7FA51450F474FE04
:102060000AC072FC08C0372D3E7E05C0BA2C372D41
:1020700003C0BA2C01C0B52C34FF0DC0FE01EA0D1F
:10208000F11D8081803311F4397E09C032FF06C012
:10209000B394B39404C0832F867809F0B39433FDCE
:1020A00013C030FF06C05A2CB31418F4530C5B183D
:1020B000B32CB31468F4B70180E290E03C870E942F
:1020C000EC10B3943C85F5CFB31410F43B1801C069
:1020D000312C34FF12C0B70180E390E03C870E94AE
:1020E000EC103C8532FF17C031FD03C088E790E05B
:1020F00002C088E590E0B7010CC0832F867859F0C4
:1021000031FF02C08BE201C080E237FD8DE2B701F2
:1021100090E00E94EC10A51438F4B70180E390E041
:102120000E94EC105A94F7CFAA94F401EA0DF11D25
:102130008081B70190E00E94EC10A110F5CF332010
:1021400009F451CEB70180E290E00E94EC103A947D
:10215000F6CFF7018681978102C08FEF9FEF2C9613
:10216000E2E10C94D0110F931F93CF93DF93869FDE
:102170008001879F100D969F100D1124C8010E94A9
:10218000C70CEC01009729F0A80160E070E00E9404
:10219000DA10CE01DF91CF911F910F910895FC01CC
:1021A0000590615070400110D8F7809590958E0F82
:1021B0009F1F0895DC0101C06D9341505040E0F72E
:1021C0000895FC016150704001900110D8F780958E
:1021D00090958E0F9F1F08950F931F93CF93DF93BA
:1021E000FB01238121FD03C08FEF9FEF28C022FF59
:1021F00016C046815781248135814217530744F424
:10220000A081B1819D012F5F3F4F318320838C934B
:10221000268137812F5F3F4F3783268310C0EB0124
:10222000092F182F0084F185E02D0995892BE1F6FF
:102230008E819F8101969F838E83812F902FDF91C6
:10224000CF911F910F910895FA01AA27283051F1DB
:10225000203181F1E8946F936E7F6E5F7F4F8F4FD7
:102260009F4FAF4FB1E03ED0B4E03CD0670F781F36
:10227000891F9A1FA11D680F791F8A1F911DA11D1B
:102280006A0F711D811D911DA11D20D009F4689454
:102290003F912AE0269F11243019305D3193DEF6FC
:1022A000CF010895462F4770405D4193B3E00FD0B2
:1022B000C9F7F6CF462F4F70405D4A3318F0495D9D
:1022C00031FD4052419302D0A9F7EACFB4E0A69580
:1022D0009795879577956795BA95C9F700976105A2
:1022E000710508959B01AC010A2E069457954795F8
:1022F00037952795BA95C9F7620F731F841F951FED
:10230000A01D0895052E97FB1EF400940E949911BC
:1023100057FD07D00E94EB1107FC03D04EF40C943C
:10232000991150954095309521953F4F4F4F5F4FF4
:10233000089590958095709561957F4F8F4F9F4F31
:1023400008950E940D12A59F900DB49F900DA49F1B
:10235000800D911D11240895B7FF0C94A1110E94C6
:10236000A111821B930B08952F923F924F925F927F
:102370006F927F928F929F92AF92BF92CF92DF9295
:10238000EF92FF920F931F93CF93DF93CDB7DEB7FA
:10239000CA1BDB0B0FB6F894DEBF0FBECDBF09948E
:1023A0002A88398848885F846E847D848C849B84E5
:1023B000AA84B984C884DF80EE80FD800C811B81F3
:1023C000AA81B981CE0FD11D0FB6F894DEBF0FBE22
:1023D000CDBFED010895A1E21A2EAA1BBB1BFD0182
:1023E0000DC0AA1FBB1FEE1FFF1FA217B307E407F4
:1023F000F50720F0A21BB30BE40BF50B661F771F4C
:10240000881F991F1A9469F760957095809590952B
:102410009B01AC01BD01CF010895A29FB001B39F04
:10242000C001A39F700D811D1124911DB29F700DDD
:0C243000811D1124911D0895F894FFCF28
:10243C0000009A022000010000004A6F7973746951
:10244C00636B206469722025640A0D0053746172F9
:10245C0074696E67205352414D20746573742E2E2F
:10246C002E005772697465207068617365206572FF
:10247C00726F723A206578745F72616D5B2534649B
:10248C005D203D2025303258202873686F756C64B0
:10249C002062652025303258290D0A00526574726D
:1024AC00696576616C207068617365206572726F06
:1024BC00723A206578745F72616D5B2534645D20BF
:1024CC003D2025303258202873686F756C6420626B
:1024DC00652025303258290D0A005352414D207485
:1024EC0065737420636F6D706C65746564207769B7
:1024FC007468200D0A253464206572726F72732023
:10250C00696E2077726974652070686173652061EB
:10251C006E64200D0A253464206572726F7273200C
:10252C00696E2072657472696576616C2070686181
:10253C0073650D0A0A007E004D61696E204D656E53
:10254C0075007375625F6D656E755F3100737562D2
:10255C005F6D656E755F32007375625F6D656E756C
:10256C005F33007375625F6D656E755F315F31004F
:10257C007375625F6D656E755F315F320073756286
:10258C005F6D656E755F315F315F310060686F72D2
:10259C006572206572206F6B6000737562207375B5
:0625AC006220737562005D
:00000001FF
