:100000000C9477030C94050B0C9494030C949804B3
:100010000C9494030C9494030C9494030C94940304
:100020000C9494030C94B30B0C9494030C949403CD
:100030000C9494030C9494030C9494030C945B061A
:100040000C9494030C9494030C9494030C949403D4
:100050000C9494030C9494030C9494030C949403C4
:100060000C9494030C9494030C9494030C949403B4
:10007000084AD73B3BCE016E84BCBFFDC12F3D6C0F
:1000800074319ABD56833DDA3D00C77F11BED9E475
:10009000BB4C3E916BAAAABE000000803F0000004E
:1000A0000000005C00000C000C007C287C2858DC60
:1000B00068002410480028542840000C00000078F4
:1000C00084008478000054385400107C1000804074
:1000D0000000101010000040000060100C003854A8
:1000E0003800487C40004864580044542C001C10E0
:1000F0007C005C5424003854240064140C006854C0
:100100002C004854380000480000804800001028A7
:1001100044002828280044281000045408003844CB
:100120005C00781478007C542800384428007C4413
:1001300038007C5444007C140400384474007C1063
:100140007C00447C440020403C007C106C007C40DF
:1001500040007C187C0078103C00384438007C1447
:1001600008003844B8007C14680048542400047C1B
:1001700004007C407C003C603C007C307C006C10C7
:100180006C000C700C0064544C00007C44000C109B
:100190006000447C000008040800808080000004A7
:1001A0000800304878007C4830003048480030482B
:1001B0007C00306850001078140090A878007C080B
:1001C000700050744000808074007C106800447C93
:1001D0004000781078007808700030483000F82827
:1001E00010003048F8007810080050582800083CEB
:1001F000480038407800384038007820780048308F
:10020000480098A078004868580010788400007C66
:1002100000008478100008040804000000000000BA
:10022000005F00000007000700147F147F14242AD9
:100230007F2A1223130864623649552250000503B1
:100240000000001C2241000041221C00082A1C2A38
:100250000808083E08080050300000080808080890
:10026000006060000020100804023E5149453E0035
:10027000427F400042615149462141454B311814AB
:10028000127F1027454545393C4A494930017109DB
:1002900005033649494936064949291E00363600C4
:1002A00000005636000000081422411414141414DF
:1002B00041221408000201510906324979413E7E6B
:1002C0001111117E7F494949363E414141227F410A
:1002D00041221C7F494949417F090901013E4141B1
:1002E00051327F0808087F00417F41002040413F94
:1002F000017F081422417F404040407F0204027F7A
:100300007F0408107F3E4141413E7F090909063EB6
:100310004151215E7F091929464649494931010168
:100320007F01013F4040403F1F2040201F7F201899
:10033000207F631408146303047804036151494562
:100340004300007F4141020408102041417F00002A
:100350000402010204404040404000010204002029
:10036000545454787F4844443838444444203844F2
:1003700044487F3854545418087E09010208145424
:10038000543C7F0804047800447D40002040443DF4
:1003900000007F10284400417F40007C041804784E
:1003A0007C0804047838444444387C141414080845
:1003B0001414187C7C080404084854545420043F46
:1003C0004440203C4040207C1C2040201C3C4030CD
:1003D000403C44281028440C5050503C4464544C39
:1003E00044000836410000007F000000413608004C
:1003F0000201030201000000000000000000065F8F
:100400005F060000000007070007070000147F7F59
:10041000147F7F1400242E6B6B3A12000046663066
:10042000180C666200307A4F5D377A480004070383
:100430000000000000001C3E63410000000041631A
:100440003E1C000000082A3E1C1C3E2A0808083EEC
:100450003E0808000000A0E0600000000008080856
:10046000080808000000006060000000006030180C
:100470000C060301003E7F594D7F3E000042427F43
:100480007F40400000627359496F66000022634953
:10049000497F360000181C16137F7F100027674520
:1004A000457D3900003C7E4B497930000003637183
:1004B000190F070000367F49497F360000064F4973
:1004C000693F1E000000006C6C0000000000A0EC02
:1004D0006C00000000081C36634100000014141476
:1004E0001414140000004163361C0800000203517C
:1004F000590F0600003E7F415D5D1F1E007C7E138C
:10050000137E7C0000417F7F49497F36001C3E639B
:100510004141632200417F7F41637F1C00417F7F17
:10052000495D416300417F7F491D0103001C3E631B
:1005300041517372007F7F08087F7F000000417F78
:100540007F41000000307040417F3F0100417F7FCC
:10055000081C776300417F7F41406070007F7F0609
:100560000C067F7F007F7F060C187F7F001C3E6398
:1005700041633E1C00417F7F49090F06001E3F2159
:10058000717F5E0000417F7F19396F460026674DFD
:10059000597B32000003417F7F410300007F7F4091
:1005A000407F7F00001F3F60603F1F00007F7F3063
:1005B00018307F7F0063771C081C776300074F7833
:1005C000784F0700006773594D47637100007F7FC4
:1005D00041410000000103060C1830600000414159
:1005E0007F7F000000080C0603060C080080808056
:1005F00080808080807909097F48484F00207454AA
:10060000543C784000413F7F44447C3800387C446F
:10061000446C280000307848493F7F4000387C54C3
:10062000545C180000487E7F490302000098BCA477
:10063000A4F87C0400417F7F08047C780000447D9E
:100640007D4000000040C484FD7D000000417F7FAC
:1006500010386C440000417F7F400000007C7C0C1F
:10066000180C7C78007C7C04047C780000387C4486
:10067000447C38000084FCF8A4243C1800183C2476
:10068000A4F8FC8400447C78441C180000485C54A6
:10069000547424000000043E7F442400003C7C404D
:1006A000403C7C40001C3C60603C1C00003C7C608A
:1006B00030607C3C00446C3810386C44009CBCA01A
:1006C000A0FC7C00004C64745C4C64000008083E94
:1006D000774141000000000077770000004141773A
:1006E0003E08080000587C660202667C580011240F
:1006F0001FBECFEFD4E0DEBFCDBF12E0A0E0B1E07F
:10070000E6ECF7E202C005900D92A23CB107D9F7E2
:1007100022E0A2ECB2E001C01D92AF3EB207E1F7C9
:100720000E9496030C94E1130C940000CF93DF9386
:10073000CDB7DEB72A970FB6F894DEBF0FBECDBF98
:10074000F8940E94E0030E94EB030E9480040E9440
:100750002E060E94FB060E946A080E94410A7894B5
:10076000CE0101960E94A7048AE091E09F938F93A7
:100770000E9460100F900F9004E211E0CE010196EC
:100780000E9429098FEF9FEB0197F1F700C000004D
:100790001F930F930E9460100E9481070F900F908B
:1007A000EDCF5D9BFECF8CB908955F9BFECF8CB1E2
:1007B000089590BD89B988E18AB98EE880BD089511
:1007C0008FE190E00E94D90365ED73E081ED93E045
:1007D0000E941510089585B7806885BF80B7806234
:1007E00080BF0895FC01F85E60830895FC01F85E07
:1007F0008081082E000C990B0895CF92DF92EF9222
:10080000FF920F931F93CF93DF938EE391E00E94AB
:1008100076100E9405107C010E940A10C12CD12C78
:10082000C0E0D0E004E511E00E940510F601F85E9A
:10083000808320812817A1F099279F938F931F927F
:100840002F93DF92CF921F930F930E9460102196F7
:100850008DB79EB708960FB6F8949EBF0FBE8DBF9A
:100860009FEFC91AD90AC11488E0D806E9F6C70172
:100870000E940A1000E010E0E12CF12C0F2EFEE89F
:10088000CF2EF1E0DF2EF02D0E940510F801F85E6A
:1008900020812817B1F099279F938F931F922F9350
:1008A0001F930F93DF92CF920E9460109FEFE91A7F
:1008B000F90A8DB79EB708960FB6F8949EBF0FBE83
:1008C0008DBF0F5F1F4F011598E01907E9F6FF92E2
:1008D000EF92DF93CF938CEC91E09F938F930E94E4
:1008E00060100F900F900F900F900F900F90DF916E
:1008F000CF911F910F91FF90EF90DF90CF900895CF
:100900008BB78BBF86B786BF8AB780628ABF8BB72B
:1009100080628BBFBA98BB98089580930014809131
:10092000C2028823E1F31092C2028091001408955C
:100930001F920F920FB60F9211248F9381E0809334
:10094000C2028F910F900FBE0F901F901895CF92FB
:10095000DF92EF92FF920F931F93CF93DF938C015F
:100960006894CC24C2F8D12CC0E0D0E0E12CF12C6A
:1009700085E090E00E948D04E80EF11C84E090E098
:100980000E948D04C80FD11D83EC99E00197F1F707
:1009900000C0000091E0C91AD10851F7B70176955F
:1009A00067957695679580E090E00E945E0D2AE855
:1009B00038EC48E45FE30E941B0E20E030E048EC96
:1009C00052E40E94D70B0E94280DF80175836483BE
:1009D000BE01769567957695679580E090E00E94D8
:1009E0005E0D2AE838EC48E45FE30E941B0E20E02D
:1009F00030E048EC52E40E94D70B0E94280DF80129
:100A00007783668311821082138212821186108688
:100A1000DF91CF911F910F91FF90EF90DF90CF90DA
:100A20000895CF93DF93EC0185E090E00E948D0460
:100A3000682F70E080E090E00E94600D2AE838ECBA
:100A400048E45FE30E941B0E20E030E048EC52E4F3
:100A50000E94D70B0E94280D7983688384E090E080
:100A60000E948D04682F70E080E090E00E94600D8D
:100A70002AE838EC48E45FE30E941B0E20E030E0F7
:100A800048EC52E40E94D70B0E94280D7B836A83B6
:100A9000DF91CF910895B39B0AC088E292E09F93C3
:100AA0008F930E9460100F900F9081E0089580E076
:100AB000089586B382FB882780F908958F929F92CC
:100AC000AF92BF92EF92FF920F931F93CF93DF935A
:100AD000EC0108811981EA80FB80B801012E000C2D
:100AE000880B990B0E94600D4B015C01B7010F2C24
:100AF000000C880B990B0E94600DA50194010E94C7
:100B0000570C20E030E044E353E40E941B0E2BED31
:100B10003FE049E450E40E94B60C0E94280D2C816D
:100B20003D81021B130B980122F422273327201B3F
:100B3000310B2A30310584F42E813F81E21AF30A09
:100B4000970122F4222733272E193F092A30310535
:100B50001CF4198618862BC09B012D5231092A35A9
:100B6000310528F481E090E09987888720C09B01B7
:100B7000235D3F4F2A35310528F484E090E09987C2
:100B8000888715C09B0129573F4F2A35310528F426
:100B900082E090E0998788870AC0AB014A575F4F8F
:100BA0004D30514020F083E090E099878887DF91B5
:100BB000CF911F910F91FF90EF90BF90AF909F90BA
:100BC0008F900895CF93DF93CDB7DEB72A970FB6F6
:100BD000F894DEBF0FBECDBFFC0183EC99E0019716
:100BE000F1F700C0000081E08A8383E0898390816F
:100BF0009C599B8382818C598C830E9459058D83DB
:100C0000CE0101960E945D0A2A960FB6F894DEBFC7
:100C10000FBECDBFDF91CF910895CF93DF93EC014D
:100C20000E941105CE010E945E05DF91CF910895CB
:100C3000CF93DF93EC0187E090E00E948D04282F92
:100C400030E03983288386E090E00E948D04282FCD
:100C500030E03B832A83DF91CF910895E0E0F0E11B
:100C60008EEA808381EA80838AED808382E18083BB
:100C700088EC808388EA80838FE3808385ED80839E
:100C800080E8808381E8808380E5808389ED8083AC
:100C900081E2808380E2808310828BED808380E319
:100CA00080838DEA8083108284EA808386EA808351
:100CB0008FEA808308951F920F920FB60F9211242E
:100CC0000F900FBE0F901F901895809300100895FD
:100CD0008093001208958093C302E0E0F0E192E275
:100CE000908380838F5F808381E2808310828FE78F
:100CF000808308958093C402E0E0F0E191E2908364
:100D000080838FE780830895E3ECF2E01082118204
:100D1000E0E0F0E182E28083108281E0808381E282
:100D2000808310828FE780830895E3ECF2E0808374
:100D30006183E0E0F0E192E2908380838F5F8083C3
:100D400081E2808360838FE78083089521E030E033
:100D50003093C6022093C502E82FF0E0F45E608372
:100D60000895A3ECB2E021E030E013963C932E937B
:100D7000129728E0829FC0011124FC01EB50FD4F27
:100D80002C9111968C9190E030E8239F800D911D5D
:100D90001124DC01B45E885F934E24912D9331962B
:100DA000A817B907D1F70895EF92FF920F931F93F9
:100DB000CF93DF93FC0101900020E9F73197E81B06
:100DC000F90B1E161F0684F4EC017C01EE0EFF1ECB
:100DD00003EC12E089910E94B106F8019181985FBD
:100DE0009183CE15DF05B1F7DF91CF911F910F9160
:100DF000FF90EF900895E0E0FCE109C01192E81740
:100E0000F907E1F7FC01E11580E2F80721F0CF01D5
:100E100080589F4FF3CF0E94840608950E946B066E
:100E20008091C30220E8829FC0011124FC01F45E7E
:100E30008058934E1192E817F907E1F70895EF9261
:100E4000FF920F931F93CF93DF937C010E94FB06C9
:100E50000E948406D7018D919C91B2E087329B0756
:100E600019F00E94D40605C0F701848195810E9483
:100E7000D406D70154968C918823D9F08701085F56
:100E80001F4FC0E0D0E02196CE010E946B068FE09C
:100E900090E00E947A06D801ED91FD918D01848148
:100EA00095810E94D406F701248930E0C217D30748
:100EB00054F3D70112968D919C91139787529240CB
:100EC00069F080E090E00E947A0687E090E00E945E
:100ED0006B06F701828193810E94D406DF91CF9146
:100EE0001F910F91FF90EF90089590E00E946B0684
:100EF00080E090E00E947A068EE392E00E94D406A1
:100F000008958F929F92AF92BF92CF92DF92EF920D
:100F1000FF920F931F93CF93DF930E948406A12C1F
:100F2000B12C00E010E0812C912C0F2EC12CF2E1AD
:100F3000DF2EF02D16C0BE01C8010E949506F701F4
:100F4000EC0FFD1F9081F60190832196C038D105EA
:100F500091F70F5F1F4FF0E8AF0EB11C083011057D
:100F600031F0C82DD92D7501F4EEFF1AE4CFDF91D1
:100F7000CF911F910F91FF90EF90DF90CF90BF9096
:100F8000AF909F908F9008959093D2028093D1025A
:100F9000E091D302F091D4020680F781E02D938393
:100FA00082830895AF92BF92CF92DF92EF92FF9229
:100FB0000F931F93CF93DF93EC015B016A017901DB
:100FC00089E190E00E948C0EDC011596BC92AE92F5
:100FD00014971196DC92CE921396FC92EE92129791
:100FE0001796DC93CE931697FC013896469611928D
:100FF0001192E817F907D9F756961C930E93559757
:1010000058961C921E92579754961C925497EC89AE
:10101000EF5FEC8BF0E03396EE0FFF1FEC0FFD1F40
:10102000B183A083CD01DF91CF911F910F91FF90EC
:10103000EF90DF90CF90BF90AF900895AF92BF92A6
:10104000CF92DF92EF92FF920F931F93CF93DF9394
:10105000EC015B016A01790189E190E00E948C0E4C
:10106000DC011596BC92AE9214971196DC92CE924A
:101070001396FC92EE9212971796DC93CE931697E6
:10108000FC013896469611921192E817F907D9F7A4
:1010900056961C921E92559758961C930E935797EE
:1010A00054961C925497EC89EF5FEC8BF0E03396EA
:1010B000EE0FFF1FEC0FFD1FB183A083CD01DF9169
:1010C000CF911F910F91FF90EF90DF90CF90BF9045
:1010D000AF900895EF92FF920F931F93CF93DF93FA
:1010E00089E190E00E948C0EDC019093D7028093FE
:1010F000D60280E492E09093D2028093D10285E4FC
:1011000092E015969C938E93149787E292E0119645
:101110009C938E9313969C938E93129717961C9282
:101120001E92169754961C925497FD013896CD0145
:10113000469611921192E817F907D9F7B093D402A5
:10114000A093D30200E010E020E432E047E252E056
:101150006FE472E0CD010E94D2077C0127E232E009
:10116000A9016AE572E08091D6029091D7020E94AF
:10117000D20708E51BE027E232E0A90167E672E04A
:10118000C7010E941E0800E010E027E232E04DE6B1
:1011900052E06AE772E0C7010E94D207EC0127E241
:1011A00032E04DE652E065E872E0C7010E94D207E6
:1011B00004EC17E027E232E0A90160E472E0CE011E
:1011C0000E94D20727E232E0A90160E972E0CE0175
:1011D0000E94D20727E232E0A90167E972E0CE015E
:1011E0000E94D20781E08093D502DF91CF911F91B9
:1011F0000F91FF90EF900895BC012091D3023091A0
:10120000D4029091D502E92FF0E03396EE0FFF1F44
:10121000E20FF31F0190F081E02D25893689245CCF
:10122000374029F4848195810E94C4070895278955
:10123000308D28553B4061F48CE992E00E94580BB8
:101240008091D6029091D7029093D4028093D302DA
:101250000895CF93DF93EC010E940D062885398510
:101260002230310509F479C028F42130310509F420
:1012700063C088C02330310509F445C024303105EE
:1012800009F080C02091D3023091D4028091D50220
:10129000E82FF0E03396EE0FFF1FE20FF31F0190EF
:1012A000F081E02D80859185892B81F0F093D40227
:1012B000E093D30281E08093D5022FEF8FEF92E08D
:1012C000215080409040E1F700C000C02091D3023F
:1012D0003091D4028091D502E82FF0E03396EE0FE2
:1012E000FF1FE20FF31F0190F081E02D85899689A1
:1012F000892B29F48789908D892B09F443C0CE016D
:101300000E94FC083FC0E091D302F091D402868194
:1013100097810097B9F19093D4028093D30281E032
:101320008093D5022FEF8FEF92E0215080409040C4
:10133000E1F700C000C026C08091D502823010F1D4
:1013400081508093D5022FEF8FEF92E021508040A3
:101350009040E1F700C000C015C08091D502E09137
:10136000D302F091D4029489891760F48F5F80933F
:10137000D5022FEF8FEF92E0215080409040E1F7AF
:1013800000C000C08091D3029091D4020E941F0738
:101390008091D5020E947507DF91CF91089587B3A0
:1013A000806B87BB8DB181658DB908958FB9779BAF
:1013B000FECF8FB10895CF93C82FC49883E00E94C9
:1013C000D6098C2F0E94D6098FEF0E94D609C49AA5
:1013D000CF910895CF93DF93D82FC62FC49882E082
:1013E0000E94D6098D2F0E94D6098C2F0E94D60903
:1013F000C49ADF91CF910895C498813051F028F0BC
:10140000823059F0833069F00FC081E80E94D6091C
:101410000BC082E80E94D60907C084E80E94D60962
:1014200003C087E80E94D609C49A089580EA0E9402
:10143000DB0908951F93CF93DF93182FD62FC42F66
:10144000C49885E00E94D609812F0E94D6098D2F6D
:101450000E94D6098C2F0E94D609C49ADF91CF91A1
:101460001F910895C49880EC0E94D609C49A0895EB
:101470000E94CF090E94320A60E08FE00E94EA09D0
:1014800008950E94380A40E060EE8FE00E941A0A38
:1014900060E680E60E94EA0943E063E08BE20E9496
:1014A0001A0A40E061E08CE20E941A0A8BB780645D
:1014B0008BBF8AB780648ABF0895EF92FF920F9323
:1014C0001F93CF93DF937C0160E081E30E94EA09E0
:1014D000F70161816295660F607E82E30E94EA09EE
:1014E000F701608185E30E94EA09F7018081882382
:1014F000C9F087010E5F1F4FC0E0D0E0F801619195
:101500008F018C2F8A5C0E94EA0989EF90E0019795
:10151000F1F700C000002196F701208130E0C217EA
:10152000D30764F380E00E94FC09DF91CF911F9103
:101530000F91FF90EF9008959F92AF92BF92CF923C
:10154000DF92EF92FF920F931F93CF93DF93CDB76C
:10155000DEB72A970FB6F894DEBF0FBECDBF5C0191
:1015600085E60E94DB09982E81E60E94DB09182F90
:1015700082E60E94DB0982958695877016951695FE
:101580001695082F010F9920A9F07E0183E0E80E3F
:10159000F11C9E01290D311DF90133966F0116E6EC
:1015A000812F0E94DB09F70181937F011F5FEC15FA
:1015B000FD05B1F740E061E08CE20E941A0A9982D1
:1015C0000A838AE0FE013196D50101900D928A9539
:1015D000E1F7C5012A960FB6F894DEBF0FBECDBF66
:1015E000DF91CF911F910F91FF90EF90DF90CF90FF
:1015F000BF90AF909F9008952AE0E7ECF2E0DC0105
:1016000001900D922A95E1F708951F920F920FB65F
:101610000F9211242F933F934F935F936F937F9378
:101620008F939F93AF93BF93EF93FF93CF93DF93EA
:10163000CDB7DEB72A97DEBFCDBFCE0101960E949F
:101640009C0A2A960FB6F894DEBF0FBECDBFDF917D
:10165000CF91FF91EF91BF91AF919F918F917F912A
:101660006F915F914F913F912F910F900FBE0F900F
:101670001F90189510928B00EAE8F0E080818B7F34
:101680008083808182608083808181608083EDE7B8
:10169000F0E0808184608083ECE7F0E0808184600A
:1016A00080830895E8EDF2E082818F5F8283089560
:1016B000CF93DF93CDB7DEB764970FB6F894DEBF54
:1016C0000FBECDBF7B01E8EDF2E0918380831282F3
:1016D0001A8281E089838B830E94FB0683E090E07D
:1016E0000E946B0685EA92E00E94D4060E94810760
:1016F000CE0101960E945D0A2FEF8FEF9EE02150F0
:1017000080409040E1F700C000000E943A0B0E9428
:10171000FB0683E090E00E946B0680EB92E00E9463
:10172000D40684E090E00E946B0688EB92E00E9471
:10173000D4060E9481071AE0C7010E940D06CE015F
:101740000B960E94FC0AFE013B96ABEDB2E0812FA6
:1017500001900D928A95E1F79091DC029111ECCF06
:101760001092DD02E9CF1F920F920FB60F92112453
:101770002F933F934F935F936F937F938F939F9399
:10178000AF93BF93EF93FF930E94520BFF91EF91A2
:10179000BF91AF919F918F917F916F915F914F9189
:1017A0003F912F910F900FBE0F901F90189550589A
:1017B000BB27AA270E94EF0B0C94D90D0E94CB0DDA
:1017C00038F00E94D20D20F039F49F3F19F426F42E
:1017D0000C94A10D0EF4E095E7FB0C949B0DE92F02
:1017E0000E94EA0D58F3BA1762077307840795073A
:1017F00020F079F4A6F50C940C0E0EF4E0950B2E67
:10180000BA2FA02D0B01B90190010C01CA01A00152
:101810001124FF27591B99F0593F50F4503E68F1AD
:101820001A16F040A22F232F342F4427585FF3CFEE
:10183000469537952795A795F0405395C9F77EF4BF
:101840001F16BA0B620B730B840BBAF09150A1F008
:10185000FF0FBB1F661F771F881FC2F70EC0BA0F8E
:10186000621F731F841F48F4879577956795B79516
:10187000F7959E3F08F0B0CF9395880F08F0992711
:10188000EE0F9795879508950E94CB0D60F080E844
:1018900091E009F49EEF0E94D20D28F040E851E05B
:1018A00071F45EEF0CC00C94A10D0C940C0EE92F9A
:1018B000E0780E94EA0D40F3092E052AB1F32617BD
:1018C00037074807590738F00E2E07F8E02569F06A
:1018D000E025E0640AC0EF6307F8009407FADB0133
:1018E000B9019D01DC01CA01AD01EF930E94CD0C4D
:1018F0000E94D90D0E94870C5F91552339F02BED82
:101900003FE049E450FD49EC0C94D80B0895DF9377
:10191000DD27B92FBF7740E85FE3161617064807A3
:101920005B0718F4D92F0E94130E9F938F937F9318
:101930006F930E94880EE0E7F0E00E94A40D0E94E1
:10194000D90D2F913F914F915F910E942E0EDD2373
:1019500051F09058A2EA2AED3FE049EC5FE3D078DD
:101960005D270E94EF0BDF910C94D90D0E94CA0CE9
:101970000C94D90D0E94D20D58F00E94CB0D40F06E
:1019800029F45F3F29F00C949B0D51110C940D0E1E
:101990000C94A10D0E94EA0D68F39923B1F355232D
:1019A00091F3951B550BBB27AA2762177307840772
:1019B00038F09F5F5F4F220F331F441FAA1FA9F308
:1019C00035D00E2E3AF0E0E832D091505040E695F6
:1019D000001CCAF72BD0FE2F29D0660F771F881F57
:1019E000BB1F261737074807AB07B0E809F0BB0B4A
:1019F000802DBF01FF2793585F4F3AF09E3F51055E
:101A000078F00C949B0D0C940D0E5F3FE4F3983E20
:101A1000D4F3869577956795B795F7959F5FC9F746
:101A2000880F911D9695879597F90895E1E0660FC7
:101A3000771F881FBB1F621773078407BA0720F040
:101A4000621B730B840BBA0BEE1F88F7E0950895A9
:101A50000E942F0D6894B1110C940D0E08950E94F0
:101A6000F20D88F09F5798F0B92F9927B751B0F031
:101A7000E1F0660F771F881F991F1AF0BA95C9F712
:101A800014C0B13091F00E940C0EB1E008950C9496
:101A90000C0E672F782F8827B85F39F0B93FCCF349
:101AA000869577956795B395D9F73EF4909580958F
:101AB000709561957F4F8F4F9F4F0895E89409C0AF
:101AC00097FB3EF490958095709561957F4F8F4F71
:101AD0009F4F9923A9F0F92F96E9BB279395F69587
:101AE000879577956795B795F111F8CFFAF4BB0F05
:101AF00011F460FF1BC06F5F7F4F8F4F9F4F16C069
:101B0000882311F096E911C0772321F09EE8872FF2
:101B1000762F05C0662371F096E8862F70E060E0AE
:101B20002AF09A95660F771F881FDAF7880F969527
:101B3000879597F9089597F99F6780E870E060E0CE
:101B400008959FEF80EC0895DF93CF931F930F9339
:101B5000FF92EF92DF927B018C01689406C0DA2E2F
:101B6000EF010E942E0EFE01E894A591259135917A
:101B700045915591A6F3EF010E94EF0BFE019701ED
:101B8000A801DA9469F7DF90EF90FF900F911F9111
:101B9000CF91DF91089500240A94161617061806AF
:101BA0000906089500240A94121613061406050661
:101BB0000895092E0394000C11F4882352F0BB0FF2
:101BC00040F4BF2B11F460FF04C06F5F7F4F8F4F55
:101BD0009F4F089557FD9058440F551F59F05F3F90
:101BE00071F04795880F97FB991F61F09F3F79F03F
:101BF00087950895121613061406551FF2CF4695C1
:101C0000F1DF08C0161617061806991FF1CF869542
:101C10007105610508940895E894BB276627772726
:101C2000CB0197F908959B01AC0160E070E080E87A
:101C30009FE30C94B60C0E942E0E0C94D90D0E94BA
:101C4000CB0D38F00E94D20D20F0952311F00C94AA
:101C50009B0D0C94A10D11240C940D0E0E94EA0D05
:101C600070F3959FC1F3950F50E0551F629FF001EF
:101C7000729FBB27F00DB11D639FAA27F00DB11D08
:101C8000AA1F649F6627B00DA11D661F829F222791
:101C9000B00DA11D621F739FB00DA11D621F839F18
:101CA000A00D611D221F749F3327A00D611D231FEE
:101CB000849F600D211D822F762F6A2F11249F573C
:101CC00050409AF0F1F088234AF0EE0FFF1FBB1F3F
:101CD000661F771F881F91505040A9F79E3F5105FE
:101CE00080F00C949B0D0C940D0E5F3FE4F3983E36
:101CF000D4F3869577956795B795F795E7959F5FA8
:101D0000C1F7FE2B880F911D9695879597F9089539
:101D10009B01AC010C941B0ECF93DF938230910595
:101D200010F482E090E0E091E702F091E80220E018
:101D300030E0C0E0D0E0309711F140815181481788
:101D40005907C0F04817590761F4828193812097A1
:101D500019F09B838A832BC09093E8028093E7025B
:101D600026C02115310519F04217530718F49A01BE
:101D7000BE01DF01EF010280F381E02DDCCF2115F0
:101D8000310509F1281B390B2430310590F41296E6
:101D90008D919C9113976115710521F0FB0193833F
:101DA000828304C09093E8028093E702FD0132969B
:101DB00044C0FD01E20FF31F81939193225031093A
:101DC0002D933C933AC02091E5023091E602232BFB
:101DD00041F420910201309103013093E6022093F7
:101DE000E50220910001309101012115310541F4F6
:101DF0002DB73EB74091040150910501241B350BCE
:101E0000E091E502F091E602E217F307A0F42E1B41
:101E10003F0B2817390778F0AC014E5F5F4F24174E
:101E2000350748F04E0F5F1F5093E6024093E502DE
:101E30008193919302C0E0E0F0E0CF01DF91CF9178
:101E400008950F931F93CF93DF93009709F48CC0ED
:101E5000FC013297138212820091E7021091E8028E
:101E60000115110581F420813181820F931F20918A
:101E7000E5023091E6022817390779F5F093E6027A
:101E8000E093E50271C0D80140E050E0AE17BF0713
:101E900050F412962D913C911397AD012115310507
:101EA00009F1D901F3CF9D01DA01338322836081E7
:101EB0007181860F971F8217930769F4EC012881BF
:101EC0003981260F371F2E5F3F4F318320838A8150
:101ED0009B8193838283452B29F4F093E802E0935E
:101EE000E70242C01396FC93EE931297ED014991DD
:101EF00059919E01240F351FE217F30771F4808179
:101F00009181840F951F029611969C938E938281E6
:101F1000938113969C938E931297E0E0F0E0D801A2
:101F200012968D919C911397009719F0F8018C01EE
:101F3000F6CF8D919C9198012E5F3F4F820F931F9A
:101F40002091E5023091E6022817390769F43097AD
:101F500029F41092E8021092E70202C01382128262
:101F60001093E6020093E502DF91CF911F910F914C
:101F700008958F929F92AF92BF92CF92DF92EF928D
:101F8000FF92CF93DF93EC01688179818A819B81F5
:101F9000611571058105910521F464E279ED8BE508
:101FA00097E02DE133EF41E050E00E9447134901F3
:101FB0005A019B01AC01A7EAB1E40E9466136B01D0
:101FC0007C01ACEEB4EFA50194010E947413DC0116
:101FD000CB018C0D9D1DAE1DBF1DB7FF03C001972A
:101FE000A109B04888839983AA83BB839F77DF9137
:101FF000CF91FF90EF90DF90CF90BF90AF909F90E8
:102000008F9008950E94B90F089586E091E00E9494
:10201000B90F0895A0E0B0E0809306019093070106
:10202000A0930801B093090108950F931F93CF93D4
:10203000DF93009731F46115710519F480E090E0A9
:102040003AC08B01EC016EE070E081E090E00E940C
:102050007812FC01892B91F380E883830115110527
:1020600071F01387028781E883838091E902909160
:10207000EA02892B21F4F093EA02E093E902209727
:10208000C9F0D187C0878381826083838091EB020E
:102090009091EC02892B71F4F093EC02E093EB0247
:1020A0008091ED029091EE02892B21F4F093EE02E3
:1020B000E093ED02CF01DF91CF911F910F91089531
:1020C000A0E0B0E0E6E6F0E10C948913AE014B5FCE
:1020D0005F4FFA0161917191AF018091EB02909194
:1020E000EC020E94A610E2E00C94A5130F931F933C
:1020F000CF93DF93E091EB02F091EC02238121FF7B
:102100001BC08C01D0E0C0E0F80181918F0160918B
:10211000EB027091EC02DB011896ED91FC9119979E
:10212000882331F00995892B79F3DFEFCFEFECCFDE
:102130008AE00995892B19F08FEF9FEF02C08D2F50
:102140009C2FDF91CF911F910F910895ACE0B0E0EB
:10215000ECEAF0E10C9479137C016B018A01FC013B
:1021600017821682838181FFBDC1CE0101964C0189
:10217000F7019381F60193FD859193FF81916F01A2
:10218000882309F4ABC1853239F493FD859193FF1F
:1021900081916F01853229F4B70190E00E94B1125C
:1021A000E7CF512C312C20E02032A0F48B3269F0A3
:1021B00030F4803259F0833269F420612CC08D32C2
:1021C00039F0803339F4216026C02260246023C0B6
:1021D000286021C027FD27C030ED380F3A3078F451
:1021E00026FF06C0FAE05F9E300D1124532E13C067
:1021F0008AE0389E300D1124332E20620CC08E32BE
:1022000021F426FD6BC1206406C08C3611F42068D1
:1022100002C0883641F4F60193FD859193FF8191C8
:102220006F018111C1CF982F9F7D9554933028F471
:102230000C5F1F4FFFE3F9830DC0833631F0833706
:1022400071F0833509F05BC022C0F8018081898379
:102250000E5F1F4F44244394512C540115C0380184
:10226000F2E06F0E711CF801A080B18026FF03C060
:10227000652D70E002C06FEF7FEFC5012C870E94D3
:10228000A6122C0183012C852F77222E17C038012E
:10229000F2E06F0E711CF801A080B18026FF03C030
:1022A000652D70E002C06FEF7FEFC5012C870E94A3
:1022B00094122C012C852068222E830123FC1BC044
:1022C000832D90E048165906B0F4B70180E290E003
:1022D0000E94B1123A94F4CFF50127FC859127FEB4
:1022E00081915F01B70190E00E94B11231103A94E0
:1022F000F1E04F1A51084114510471F7E5C08436DA
:1023000011F0893639F5F80127FF07C06081718126
:10231000828193810C5F1F4F08C060817181072EFD
:10232000000C880B990B0E5F1F4F2F76722E97FFB4
:1023300009C090958095709561957F4F8F4F9F4F05
:102340002068722E2AE030E0A4010E94E912A82E33
:10235000A81844C0853729F42F7EB22E2AE030E039
:1023600025C0F22FF97FBF2E8F36C1F018F48835C3
:1023700079F0B4C0803719F0883721F0AFC02F2F23
:102380002061B22EB4FE0DC08B2D8460B82E09C022
:1023900024FF0AC09F2F9660B92E06C028E030E0C7
:1023A00005C020E130E002C020E132E0F801B7FED4
:1023B00007C060817181828193810C5F1F4F06C0CD
:1023C0006081718180E090E00E5F1F4FA4010E9448
:1023D000E912A82EA818FB2DFF777F2E76FE0BC0E2
:1023E000372D3E7FA51450F474FE0AC072FC08C05D
:1023F000372D3E7E05C0BA2C372D03C0BA2C01C044
:10240000B52C34FF0DC0FE01EA0DF11D8081803333
:1024100011F4397E09C032FF06C0B394B39404C0EE
:10242000832F867809F0B39433FD13C030FF06C0C4
:102430005A2CB31418F4530C5B18B32CB31468F46F
:10244000B70180E290E03C870E94B112B3943C85D2
:10245000F5CFB31410F43B1801C0312C34FF12C077
:10246000B70180E390E03C870E94B1123C8532FFC7
:1024700017C031FD03C088E790E002C088E590E016
:10248000B7010CC0832F867859F031FF02C08BE270
:1024900001C080E237FD8DE2B70190E00E94B112E9
:1024A000A51438F4B70180E390E00E94B1125A9469
:1024B000F7CFAA94F401EA0DF11D8081B70190E0F5
:1024C0000E94B112A110F5CF332009F451CEB7010B
:1024D00080E290E00E94B1123A94F6CFF701868133
:1024E000978102C08FEF9FEF2C96E2E10C94951339
:1024F0000F931F93CF93DF93869F8001879F100DCB
:10250000969F100D1124C8010E948C0EEC010097BB
:1025100029F0A80160E070E00E949F12CE01DF91D7
:10252000CF911F910F910895FC010590615070406B
:102530000110D8F7809590958E0F9F1F0895DC01AC
:1025400001C06D9341505040E0F70895FC01615087
:10255000704001900110D8F7809590958E0F9F1FC5
:1025600008950F931F93CF93DF93FB01238121FDE8
:1025700003C08FEF9FEF28C022FF16C0468157810E
:10258000248135814217530744F4A081B1819D0114
:102590002F5F3F4F318320838C93268137812F5FBC
:1025A0003F4F3783268310C0EB01092F182F00847B
:1025B000F185E02D0995892BE1F68E819F810196A9
:1025C0009F838E83812F902FDF91CF911F910F9149
:1025D0000895FA01AA27283051F1203181F1E894B9
:1025E0006F936E7F6E5F7F4F8F4F9F4FAF4FB1E006
:1025F0003ED0B4E03CD0670F781F891F9A1FA11D01
:10260000680F791F8A1F911DA11D6A0F711D811D01
:10261000911DA11D20D009F468943F912AE0269FC6
:1026200011243019305D3193DEF6CF010895462F25
:102630004770405D4193B3E00FD0C9F7F6CF462F06
:102640004F70405D4A3318F0495D31FD405241936F
:1026500002D0A9F7EACFB4E0A6959795879577952C
:102660006795BA95C9F700976105710508959B01B3
:10267000AC010A2E06945795479537952795BA953C
:10268000C9F7620F731F841F951FA01D0895052EA3
:1026900097FB1EF400940E945E1357FD07D00E9422
:1026A000B01307FC03D04EF40C945E135095409584
:1026B000309521953F4F4F4F5F4F089590958095EE
:1026C000709561957F4F8F4F9F4F08950E94D21351
:1026D000A59F900DB49F900DA49F800D911D112476
:1026E0000895B7FF0C9466130E946613821B930B28
:1026F00008952F923F924F925F926F927F928F92A6
:102700009F92AF92BF92CF92DF92EF92FF920F9380
:102710001F93CF93DF93CDB7DEB7CA1BDB0B0FB68A
:10272000F894DEBF0FBECDBF09942A883988488847
:102730005F846E847D848C849B84AA84B984C884DD
:10274000DF80EE80FD800C811B81AA81B981CE0FD4
:10275000D11D0FB6F894DEBF0FBECDBFED010895B9
:10276000A1E21A2EAA1BBB1BFD010DC0AA1FBB1F95
:10277000EE1FFF1FA217B307E407F50720F0A21B07
:10278000B30BE40BF50B661F771F881F991F1A9474
:1027900069F760957095809590959B01AC01BD019E
:1027A000CF010895A29FB001B39FC001A39F700DF8
:1027B000811D1124911DB29F700D811D1124911D49
:0627C0000895F894FFCF1C
:1027C6000000EF0220000100000065766572796F57
:1027D6006E6520776173206E6F742074686572650C
:1027E600200A0D0065766572796F6E652069732023
:1027F60072696768742068657265200A0D005374F3
:10280600617274696E67205352414D20746573740A
:102816002E2E2E00577269746520706861736520CC
:102826006572726F723A206578745F72616D5B25AE
:1028360034645D203D2025303258202873686F753A
:102846006C642062652025303258290D0A005265D5
:102856007472696576616C20706861736520657253
:10286600726F723A206578745F72616D5B253464AD
:102876005D203D2025303258202873686F756C64C2
:102886002062652025303258290D0A005352414DE9
:10289600207465737420636F6D706C657465642055
:1028A60077697468200D0A253464206572726F7228
:1028B6007320696E2077726974652070686173652C
:1028C60020616E64200D0A253464206572726F7271
:1028D6007320696E2072657472696576616C20700A
:1028E600686173650D0A0A004C656674204275744A
:1028F600746F6E20507265737365640A0D007E00F6
:1029060045415359004D61696E204D656E75005005
:10291600696E6720506F6E67210053706163652092
:1029260052756E6E65720053746172740053656CF5
:10293600656374204C6576656C00446966666963F8
:10294600756C747900486967682053636F72650017
:102956004E4F524D414C004841524400486F7265FB
:1029660066616E7400474554205245414459210022
:10297600504C4159494E470050494E47504F4E47DB
:0229860000004F
:00000001FF
