:100000000C9477030C9494030C9494030C94A6041E
:100010000C9494030C9494030C9494030C94940304
:100020000C9494030C9494030C9494030C949403F4
:100030000C9494030C9494030C9494030C94FC057A
:100040000C9494030C9494030C9494030C949403D4
:100050000C9494030C9494030C9494030C949403C4
:100060000C9494030C9494030C9494030C949403B4
:10007000084AD73B3BCE016E84BCBFFDC12F3D6C0F
:1000800074319ABD56833DDA3D00C77F11BED9E475
:10009000BB4C3E916BAAAABE000000803F0000004E
:1000A0000000005C00000C000C007C287C2858DC60
:1000B00068002410480028542840000C00000078F4
:1000C00084008478000054385400107C1000804074
:1000D0000000101010000040000060100C003854A8
:1000E0003800487C40004864580044542C001C10E0
:1000F0007C005C5424003854240064140C006854C0
:100100002C004854380000480000804800001028A7
:1001100044002828280044281000045408003844CB
:100120005C00781478007C542800384428007C4413
:1001300038007C5444007C140400384474007C1063
:100140007C00447C440020403C007C106C007C40DF
:1001500040007C187C0078103C00384438007C1447
:1001600008003844B8007C14680048542400047C1B
:1001700004007C407C003C603C007C307C006C10C7
:100180006C000C700C0064544C00007C44000C109B
:100190006000447C000008040800808080000004A7
:1001A0000800304878007C4830003048480030482B
:1001B0007C00306850001078140090A878007C080B
:1001C000700050744000808074007C106800447C93
:1001D0004000781078007808700030483000F82827
:1001E00010003048F8007810080050582800083CEB
:1001F000480038407800384038007820780048308F
:10020000480098A078004868580010788400007C66
:1002100000008478100008040804000000000000BA
:10022000005F00000007000700147F147F14242AD9
:100230007F2A1223130864623649552250000503B1
:100240000000001C2241000041221C00082A1C2A38
:100250000808083E08080050300000080808080890
:10026000006060000020100804023E5149453E0035
:10027000427F400042615149462141454B311814AB
:10028000127F1027454545393C4A494930017109DB
:1002900005033649494936064949291E00363600C4
:1002A00000005636000000081422411414141414DF
:1002B00041221408000201510906324979413E7E6B
:1002C0001111117E7F494949363E414141227F410A
:1002D00041221C7F494949417F090901013E4141B1
:1002E00051327F0808087F00417F41002040413F94
:1002F000017F081422417F404040407F0204027F7A
:100300007F0408107F3E4141413E7F090909063EB6
:100310004151215E7F091929464649494931010168
:100320007F01013F4040403F1F2040201F7F201899
:10033000207F631408146303047804036151494562
:100340004300007F4141020408102041417F00002A
:100350000402010204404040404000010204002029
:10036000545454787F4844443838444444203844F2
:1003700044487F3854545418087E09010208145424
:10038000543C7F0804047800447D40002040443DF4
:1003900000007F10284400417F40007C041804784E
:1003A0007C0804047838444444387C141414080845
:1003B0001414187C7C080404084854545420043F46
:1003C0004440203C4040207C1C2040201C3C4030CD
:1003D000403C44281028440C5050503C4464544C39
:1003E00044000836410000007F000000413608004C
:1003F0000201030201000000000000000000065F8F
:100400005F060000000007070007070000147F7F59
:10041000147F7F1400242E6B6B3A12000046663066
:10042000180C666200307A4F5D377A480004070383
:100430000000000000001C3E63410000000041631A
:100440003E1C000000082A3E1C1C3E2A0808083EEC
:100450003E0808000000A0E0600000000008080856
:10046000080808000000006060000000006030180C
:100470000C060301003E7F594D7F3E000042427F43
:100480007F40400000627359496F66000022634953
:10049000497F360000181C16137F7F100027674520
:1004A000457D3900003C7E4B497930000003637183
:1004B000190F070000367F49497F360000064F4973
:1004C000693F1E000000006C6C0000000000A0EC02
:1004D0006C00000000081C36634100000014141476
:1004E0001414140000004163361C0800000203517C
:1004F000590F0600003E7F415D5D1F1E007C7E138C
:10050000137E7C0000417F7F49497F36001C3E639B
:100510004141632200417F7F41637F1C00417F7F17
:10052000495D416300417F7F491D0103001C3E631B
:1005300041517372007F7F08087F7F000000417F78
:100540007F41000000307040417F3F0100417F7FCC
:10055000081C776300417F7F41406070007F7F0609
:100560000C067F7F007F7F060C187F7F001C3E6398
:1005700041633E1C00417F7F49090F06001E3F2159
:10058000717F5E0000417F7F19396F460026674DFD
:10059000597B32000003417F7F410300007F7F4091
:1005A000407F7F00001F3F60603F1F00007F7F3063
:1005B00018307F7F0063771C081C776300074F7833
:1005C000784F0700006773594D47637100007F7FC4
:1005D00041410000000103060C1830600000414159
:1005E0007F7F000000080C0603060C080080808056
:1005F00080808080807909097F48484F00207454AA
:10060000543C784000413F7F44447C3800387C446F
:10061000446C280000307848493F7F4000387C54C3
:10062000545C180000487E7F490302000098BCA477
:10063000A4F87C0400417F7F08047C780000447D9E
:100640007D4000000040C484FD7D000000417F7FAC
:1006500010386C440000417F7F400000007C7C0C1F
:10066000180C7C78007C7C04047C780000387C4486
:10067000447C38000084FCF8A4243C1800183C2476
:10068000A4F8FC8400447C78441C180000485C54A6
:10069000547424000000043E7F442400003C7C404D
:1006A000403C7C40001C3C60603C1C00003C7C608A
:1006B00030607C3C00446C3810386C44009CBCA01A
:1006C000A0FC7C00004C64745C4C64000008083E94
:1006D000774141000000000077770000004141773A
:1006E0003E08080000587C660202667C580011240F
:1006F0001FBECFEFD4E0DEBFCDBF12E0A0E0B1E07F
:10070000E2E0F2E202C005900D92A038B107D9F7FD
:1007100022E0A0E8B2E001C01D92A43AB207E1F7DE
:100720000E9496030C94FF100C940000CF93DF936B
:10073000CDB7DEB72A970FB6F894DEBF0FBECDBF98
:10074000F8940E94EE030E94F9030E948E047894AC
:100750000E94C7050E949C060E9474070E94BE0862
:1007600080EA0E9461081F928F938AE091E09F9334
:100770008F930E947E0DCE0101960E94B5040F90CA
:100780000F900F900F9068E880E00E947008CE01F3
:1007900001960E94CF04CE0101960E940905CE0168
:1007A00001960E94CD072FEF8FE791E02150804006
:1007B0009040E1F700C000C00E940207E4CF5D9BBB
:1007C000FECF8CB908955F9BFECF8CB1089590BD8C
:1007D00089B988E18AB98EE880BD08958FE190E0FB
:1007E0000E94E70363EE73E08FED93E00E94330D08
:1007F000089585B7806885BF80B7806280BF0895FF
:10080000FC01F85E60830895FC01F85E8081082E8B
:10081000000C990B0895CF92DF92EF92FF920F9305
:100820001F93CF93DF9385E291E00E94940D0E9485
:10083000230D7C010E94280DC12CD12CC0E0D0E0FA
:100840000BE311E00E94230DF601F85E8083208106
:100850002817A1F099279F938F931F922F93DF92D0
:10086000CF921F930F930E947E0D21968DB79EB756
:1008700008960FB6F8949EBF0FBE8DBF9FEFC91AA2
:10088000D90AC11488E0D806E9F6C7010E94280DEC
:1008900000E010E0E12CF12C0F2EF5E7CF2EF1E077
:1008A000DF2EF02D0E94230DF801F85E208128171D
:1008B000B1F099279F938F931F922F931F930F93BC
:1008C000DF92CF920E947E0D9FEFE91AF90A8DB751
:1008D0009EB708960FB6F8949EBF0FBE8DBF0F5FF0
:1008E0001F4F011598E01907E9F6FF92EF92DF9389
:1008F000CF9383EB91E09F938F930E947E0D0F9097
:100900000F900F900F900F900F90DF91CF911F914C
:100910000F91FF90EF90DF90CF9008958BB78BBF32
:1009200086B786BF8AB780628ABF8BB780628BBF6B
:10093000089580930014809180028823E1F310923F
:100940008002E0E0F4E18081808108951F920F929F
:100950000FB60F9211248F9381E0809380028F91C4
:100960000F900FBE0F901F901895CF93DF93EC015F
:1009700085E090E00E94990490E09D838C8384E060
:1009800090E00E94990490E09F838E8319821882E0
:100990001B821A8219861886DF91CF910895CF9312
:1009A000DF93EC0185E090E00E949904682F70E0ED
:1009B00080E090E00E94510A2AE838EC48E45FE3C6
:1009C0000E94350B20E030E048EC52E40E94C7085A
:1009D0000E94190A7983688384E090E00E94990458
:1009E000682F70E080E090E00E94510A2AE838EC1D
:1009F00048E45FE30E94350B20E030E048EC52E42D
:100A00000E94C7080E94190A7B836A83DF91CF91F5
:100A10000895AF92BF92CF92DF92EF92FF920F9321
:100A20001F93CF93DF93EC0108811981AA80BB80CB
:100A3000B801012E000C880B990B0E94510A6B0122
:100A40007C01B5010B2C000C880B990B0E94510AFC
:100A5000A70196010E9447096B017C01C8019923F7
:100A600024F488279927801B910B0F9764F4C50104
:100A7000992324F4882799278A199B090F971CF436
:100A80001986188663C02BED3FE049E45FE3C70198
:100A9000B6010E94280B88237CF024EE3BEC46E153
:100AA00050E4C701B6010E94A60988232CF481E016
:100AB00090E0998788874AC024EE3BEC46E150ECF1
:100AC000C701B6010E94280B18167CF42BED3FE0FD
:100AD00049E45FEBC701B6010E94A60918162CF085
:100AE00082E090E09987888731C024EE3BEC46E1B4
:100AF00050E4C701B6010E94280B181654F024EEEA
:100B00003BEC46E150ECC701B6010E94A60918165D
:100B10002CF083E090E09987888718C02BED3FE0A8
:100B200049E45FEBC701B6010E94280B181674F464
:100B30002BED3FE049E45FE3C701B6010E94A6093F
:100B4000181624F084E090E099878887DF91CF9190
:100B50001F910F91FF90EF90DF90CF90BF90AF90DB
:100B60000895CF93DF93EC0187E090E00E94990411
:100B7000282F30E03983288386E090E00E94990492
:100B8000282F30E03B832A83DF91CF910895E0E066
:100B9000F0E18EEA808381EA80838AED808382E1BE
:100BA000808388EC808388EA80838FE3808385ED6F
:100BB000808380E8808391E8908390E5908399ED2D
:100BC000908391E2908390E2908310829BED9083DA
:100BD00090E390839DEA9083108294EA908396EA52
:100BE00090839FEA908390EB9CBD9FEF9DBD1FBCBF
:100BF00095E09EBD89BF08951F920F920FB60F9288
:100C000011240F900FBE0F901F9018958093001025
:100C1000089580930012089580938102E0E0F0E14E
:100C200092E2908380838F5F808381E28083108251
:100C30008FE78083089580938202E0E0F0E191E203
:100C4000908380838FE780830895E1E8F2E010824B
:100C50001182E0E0F0E182E28083108281E0808313
:100C600081E2808310828FE780830895E1E8F2E0DB
:100C700080836183E0E0F0E192E2908380838F5F84
:100C8000808381E2808360838FE780830895E82FEB
:100C9000F0E0F45E608381E090E0909384028093C2
:100CA00083020895A1E8B2E021E030E013963C937E
:100CB0002E93129728E0829FC0011124FC01EB5073
:100CC000FD4F2C9111968C9190E030E8239F800D80
:100CD000911D1124DC01B45E885F934E24912D9305
:100CE0003196A817B907D1F70895EF92FF920F93A5
:100CF0001F93CF93DF93FC0101900020E9F7319718
:100D0000E81BF90B1E161F0684F4EC017C01EE0EA5
:100D1000FF1E01E812E089910E945206F8019181BC
:100D2000985F9183CE15DF05B1F7DF91CF911F91C9
:100D30000F91FF90EF900895E0E0FCE109C011925F
:100D4000E817F907E1F7FC01E11580E2F80721F067
:100D5000CF0180589F4FF3CF0E94250608950E942F
:100D60000C068091810220E8829FC0011124FC01C1
:100D7000F45E8058934E1192E817F907E1F7089551
:100D8000EF92FF920F931F93CF93DF937C010E940A
:100D90009C060E942506D7018D919C910E947506A4
:100DA000F70182898823D9F087010C5F1F4FC0E0CB
:100DB000D0E02196CE010E940C068FE090E00E94C8
:100DC0001B06D801ED91FD918D01808191810E94DA
:100DD0007506F701228930E0C217D30754F3DF917B
:100DE000CF911F910F91FF90EF90089590E00E9496
:100DF0000C0680E090E00E941B068FE092E00E94CB
:100E0000750608958F929F92AF92BF92CF92DF9214
:100E1000EF92FF920F931F93CF93DF930E942506CB
:100E2000A12CB12C00E010E0812C912C0F2EC12CB4
:100E3000F2E1DF2EF02D16C0BE01C8010E94360679
:100E4000F701EC0FFD1F9081F60190832196C038C9
:100E5000D10591F70F5F1F4FF0E8AF0EB11C0830BE
:100E6000110531F0C82DD92D7501F4EEFF1AE4CF2C
:100E7000DF91CF911F910F91FF90EF90DF90CF9076
:100E8000BF90AF909F908F9008950F931F93CF9333
:100E9000DF93EC018B0183E190E00E94AA0BDC015F
:100EA00011961C930E931396DC93CE931297FC012C
:100EB0003496429611921192E817F907D9F7529693
:100EC0001C9252979A899F5F9A8BE92FF0E0319696
:100ED000EE0FFF1FEC0FFD1FB183A083CD01DF914B
:100EE000CF911F910F9108950F931F93CF93DF938D
:100EF00083E190E00E94AA0B90939902809398025C
:100F000021E132E0FC013183208313821282128AB4
:100F100034969C012E5E3F4F11921192E217F30717
:100F2000D9F790939602809395026BE172E00E944C
:100F300045078C0166E272E08091980290919902D7
:100F40000E94450761E372E08091980290919902B6
:100F50000E9445076CE372E0C8010E944507EC015E
:100F600069E472E0C8010E9445078C0166E572E001
:100F7000CE010E94450765E672E0C8010E94450760
:100F800063E772E0CE010E94450781E080939702FB
:100F9000DF91CF911F910F910895FC01808591857C
:100FA0008230910509F45AC020F4019709F445C034
:100FB0006AC08330910541F1049709F064C0209123
:100FC00095023091960280919702E82FF0E03196D9
:100FD000EE0FFF1FE20FF31F0190F081E02D8481DF
:100FE0009581892B39F0F0939602E093950281E088
:100FF00080939702FFEF2FEF82E0F1502040804076
:10100000E1F700C000C03FC0E0919502F091960268
:1010100082819381009739F0909396028093950294
:1010200081E0809397029FEFEFEFF2E09150E04074
:10103000F040E1F700C000C026C0809197028230E6
:1010400018F08150809397022FEF8FEF92E021509C
:1010500080409040E1F700C000C015C08091970229
:10106000E0919502F09196029289891718F48F5FAA
:1010700080939702EFEFFFEF22E0E150F040204035
:10108000E1F700C000C080919502909196020E9405
:10109000C006809197020E94F606089587B3806B80
:1010A00087BB81E58DB908958FB9779908C087EA24
:1010B00091E60197F1F700C00000779BF8CF8FB160
:1010C0000895CF93C82FC29A83E00E9454088C2FB2
:1010D0000E9454088FEF0E945408C39ACF9108953C
:1010E000CF93DF93D82FC62FC29A82E00E94540874
:1010F0008D2F0E9454088C2F0E945408C39ADF91B0
:10110000CF910895C29A813051F028F0823059F081
:10111000833069F00FC081E80E9454080BC082E858
:101120000E94540807C084E80E94540803C087E85E
:101130000E945408C39A089580EA0E9461080895A5
:101140001F93CF93DF93182FD62FC42FC39A85E018
:101150000E945408812F0E9454088D2F0E94540829
:101160008C2F0E945408C39ADF91CF911F9108954C
:10117000C29A80EC0E945408C39A08950E944E08B7
:101180000E94B80860E08FE00E94700808955058EF
:10119000BB27AA270E94DF080C94EE0A0E94E00AEF
:1011A00038F00E94E70A20F039F49F3F19F426F442
:1011B0000C94B60A0EF4E095E7FB0C94B00AE92F04
:1011C0000E94FF0A58F3BA1762077307840795074E
:1011D00020F079F4A6F50C94210B0EF4E0950B2E7B
:1011E000BA2FA02D0B01B90190010C01CA01A00179
:1011F0001124FF27591B99F0593F50F4503E68F1D4
:101200001A16F040A22F232F342F4427585FF3CF14
:10121000469537952795A795F0405395C9F77EF4E5
:101220001F16BA0B620B730B840BBAF09150A1F02E
:10123000FF0FBB1F661F771F881FC2F70EC0BA0FB4
:10124000621F731F841F48F4879577956795B7953C
:10125000F7959E3F08F0B0CF9395880F08F0992737
:10126000EE0F9795879508950E94E00A60F080E858
:1012700091E009F49EEF0E94E70A28F040E851E06F
:1012800071F45EEF0CC00C94B60A0C94210BE92F9C
:10129000E0780E94FF0A40F3092E052AB1F32617D1
:1012A00037074807590738F00E2E07F8E02569F090
:1012B000E025E0640AC0EF6307F8009407FADB0159
:1012C000B9019D01DC01CA01AD01EF930E94BE0985
:1012D0000E94EE0A0E9477095F91552339F02BEDA9
:1012E0003FE049E450FD49EC0C94C8080895DF93B1
:1012F000DD27B92FBF7740E85FE3161617064807CA
:101300005B0718F4D92F0E942D0B9F938F937F9327
:101310006F930E94A20BE0E7F0E00E94B90A0E94DE
:10132000EE0A2F913F914F915F910E94480BDD2370
:1013300051F09058A2EA2AED3FE049EC5FE3D07803
:101340005D270E94DF08DF910C94EE0A0E948C0A50
:1013500008F481E008950E94E70A58F00E94E00A2C
:1013600040F029F45F3F29F00C94B00A51110C941D
:10137000220B0C94B60A0E94FF0A68F39923B1F37A
:10138000552391F3951B550BBB27AA2762177307AB
:10139000840738F09F5F5F4F220F331F441FAA1F3F
:1013A000A9F335D00E2E3AF0E0E832D091505040FB
:1013B000E695001CCAF72BD0FE2F29D0660F771FA9
:1013C000881FBB1F261737074807AB07B0E809F08F
:1013D000BB0B802DBF01FF2793585F4F3AF09E3F14
:1013E000510578F00C94B00A0C94220B5F3FE4F3A3
:1013F000983ED4F3869577956795B795F7959F5F57
:10140000C9F7880F911D9695879597F90895E1E0A2
:10141000660F771F881FBB1F621773078407BA0701
:1014200020F0621B730B840BBA0BEE1F88F7E0955C
:1014300008950E94200A6894B1110C94220B08951B
:101440000E94070B88F09F5798F0B92F9927B75142
:10145000B0F0E1F0660F771F881F991F1AF0BA9558
:10146000C9F714C0B13091F00E94210BB1E008958A
:101470000C94210B672F782F8827B85F39F0B93F7C
:10148000CCF3869577956795B395D9F73EF490950B
:101490008095709561957F4F8F4F9F4F0895E89489
:1014A00009C097FB3EF490958095709561957F4FAC
:1014B0008F4F9F4F9923A9F0F92F96E9BB2793955A
:1014C000F695879577956795B795F111F8CFFAF46A
:1014D000BB0F11F460FF1BC06F5F7F4F8F4F9F4F9B
:1014E00016C0882311F096E911C0772321F09EE8F9
:1014F000872F762F05C0662371F096E8862F70E05F
:1015000060E02AF09A95660F771F881FDAF7880F38
:101510009695879597F90895990F0008550FAA0B8E
:10152000E0E8FEEF16161706E807F907C0F01216F6
:101530001306E407F50798F0621B730B840B950BF9
:1015400039F40A2661F0232B242B252B21F408954E
:101550000A2609F4A140A6958FEF811D811D0895EB
:1015600097F99F6780E870E060E008959FEF80EC56
:101570000895DF93CF931F930F93FF92EF92DF9223
:101580007B018C01689406C0DA2EEF010E94480BA3
:10159000FE01E894A5912591359145915591A6F3C9
:1015A000EF010E94DF08FE019701A801DA9469F7B4
:1015B000DF90EF90FF900F911F91CF91DF910895F1
:1015C00000240A9416161706180609060895002422
:1015D0000A9412161306140605060895092E03949C
:1015E000000C11F4882352F0BB0F40F4BF2B11F410
:1015F00060FF04C06F5F7F4F8F4F9F4F089557FD6F
:101600009058440F551F59F05F3F71F04795880F70
:1016100097FB991F61F09F3F79F087950895121607
:1016200013061406551FF2CF4695F1DF08C01616B3
:1016300017061806991FF1CF869571056105089464
:101640000895E894BB2766277727CB0197F908957B
:101650000E948C0A08F48FEF08959B01AC0160E0B2
:1016600070E080E89FE30C94A60B0E94480B0C945A
:10167000EE0A0E94E00A38F00E94E70A20F0952363
:1016800011F00C94B00A0C94B60A11240C94220B9D
:101690000E94FF0A70F3959FC1F3950F50E0551F0C
:1016A000629FF001729FBB27F00DB11D639FAA27B7
:1016B000F00DB11DAA1F649F6627B00DA11D661F06
:1016C000829F2227B00DA11D621F739FB00DA11D27
:1016D000621F839FA00D611D221F749F3327A00DE1
:1016E000611D231F849F600D211D822F762F6A2F7D
:1016F00011249F5750409AF0F1F088234AF0EE0FE2
:10170000FF1FBB1F661F771F881F91505040A9F70E
:101710009E3F510580F00C94B00A0C94220B5F3F61
:10172000E4F3983ED4F3869577956795B795F7954A
:10173000E7959F5FC1F7FE2B880F911D96958795C2
:1017400097F908959B01AC010C94350B0E94BB09DD
:101750000C94EE0ACF93DF938230910510F482E06F
:1017600090E0E0919C02F0919D0220E030E0C0E02A
:10177000D0E0309711F14081518148175907C0F0EE
:101780004817590761F482819381209719F09B8350
:101790008A832BC090939D0280939C0226C02115C2
:1017A000310519F04217530718F49A01BE01DF0101
:1017B000EF010280F381E02DDCCF2115310509F125
:1017C000281B390B2430310590F412968D919C9191
:1017D00013976115710521F0FB019383828304C087
:1017E00090939D0280939C02FD01329644C0FD01BE
:1017F000E20FF31F81939193225031092D933C9373
:101800003AC020919A0230919B02232B41F42091FF
:1018100002013091030130939B0220939A022091A0
:101820000001309101012115310541F42DB73EB77A
:101830004091040150910501241B350BE0919A025F
:10184000F0919B02E217F307A0F42E1B3F0B281721
:10185000390778F0AC014E5F5F4F2417350748F029
:101860004E0F5F1F50939B0240939A028193919376
:1018700002C0E0E0F0E0CF01DF91CF9108950F9337
:101880001F93CF93DF93009709F48CC0FC0132972C
:101890001382128200919C0210919D020115110584
:1018A00081F420813181820F931F20919A0230911F
:1018B0009B022817390779F5F0939B02E0939A026F
:1018C00071C0D80140E050E0AE17BF0750F4129647
:1018D0002D913C911397AD012115310509F1D901E5
:1018E000F3CF9D01DA013383228360817181860FFA
:1018F000971F8217930769F4EC0128813981260F1D
:10190000371F2E5F3F4F318320838A819B819383D2
:101910008283452B29F4F0939D02E0939C0242C000
:101920001396FC93EE931297ED01499159919E0104
:10193000240F351FE217F30771F480819181840F22
:10194000951F029611969C938E9382819381139694
:101950009C938E931297E0E0F0E0D80112968D915F
:101960009C911397009719F0F8018C01F6CF8D9197
:101970009C9198012E5F3F4F820F931F20919A02F6
:1019800030919B022817390769F4309729F4109297
:101990009D0210929C0202C01382128210939B023D
:1019A00000939A02DF91CF911F910F9108958F922A
:1019B0009F92AF92BF92CF92DF92EF92FF92CF931E
:1019C000DF93EC01688179818A819B8161157105C2
:1019D0008105910521F464E279ED8BE597E02DE135
:1019E00033EF41E050E00E94651049015A019B012C
:1019F000AC01A7EAB1E40E9484106B017C01ACEE5B
:101A0000B4EFA50194010E949210DC01CB018C0D72
:101A10009D1DAE1DBF1DB7FF03C00197A109B048B2
:101A200088839983AA83BB839F77DF91CF91FF90AF
:101A3000EF90DF90CF90BF90AF909F908F900895E0
:101A40000E94D70C089586E091E00E94D70C08957B
:101A5000A0E0B0E08093060190930701A0930801F5
:101A6000B093090108950F931F93CF93DF930097CD
:101A700031F46115710519F480E090E03AC08B01F2
:101A8000EC016EE070E081E090E00E94960FFC01B6
:101A9000892B91F380E883830115110571F0138779
:101AA000028781E8838380919E0290919F02892B17
:101AB00021F4F0939F02E0939E022097C9F0D18712
:101AC000C0878381826083838091A0029091A1026C
:101AD000892B71F4F093A102E093A0028091A202FD
:101AE0009091A302892B21F4F093A302E093A20228
:101AF000CF01DF91CF911F910F910895A0E0B0E049
:101B0000E4E8FDE00C94A710AE014B5F5F4FFA01D3
:101B100061917191AF018091A0029091A1020E9408
:101B2000C40DE2E00C94C3100F931F93CF93DF9387
:101B3000E091A002F091A102238121FF1BC08C0142
:101B4000D0E0C0E0F80181918F016091A002709116
:101B5000A102DB011896ED91FC911997882331F0D1
:101B60000995892B79F3DFEFCFEFECCF8AE0099568
:101B7000892B19F08FEF9FEF02C08D2F9C2FDF91E3
:101B8000CF911F910F910895ACE0B0E0EAECFDE039
:101B90000C9497107C016B018A01FC01178216825C
:101BA000838181FFBDC1CE0101964C01F701938174
:101BB000F60193FD859193FF81916F01882309F4CC
:101BC000ABC1853239F493FD859193FF81916F010B
:101BD000853229F4B70190E00E94CF0FE7CF512C56
:101BE000312C20E02032A0F48B3269F030F48032C6
:101BF00059F0833269F420612CC08D3239F0803382
:101C000039F4216026C02260246023C0286021C0EE
:101C100027FD27C030ED380F3A3078F426FF06C094
:101C2000FAE05F9E300D1124532E13C08AE0389ED7
:101C3000300D1124332E20620CC08E3221F426FD8B
:101C40006BC1206406C08C3611F4206802C088364F
:101C500041F4F60193FD859193FF81916F0181110C
:101C6000C1CF982F9F7D9554933028F40C5F1F4F60
:101C7000FFE3F9830DC0833631F0833771F083358C
:101C800009F05BC022C0F801808189830E5F1F4F7D
:101C900044244394512C540115C03801F2E06F0ED6
:101CA000711CF801A080B18026FF03C0652D70E093
:101CB00002C06FEF7FEFC5012C870E94C40F2C017B
:101CC00083012C852F77222E17C03801F2E06F0E8A
:101CD000711CF801A080B18026FF03C0652D70E063
:101CE00002C06FEF7FEFC5012C870E94B20F2C015D
:101CF0002C852068222E830123FC1BC0832D90E0BD
:101D000048165906B0F4B70180E290E00E94CF0F68
:101D10003A94F4CFF50127FC859127FE81915F016C
:101D2000B70190E00E94CF0F31103A94F1E04F1AC2
:101D300051084114510471F7E5C0843611F0893619
:101D400039F5F80127FF07C0608171818281938195
:101D50000C5F1F4F08C060817181072E000C880B3B
:101D6000990B0E5F1F4F2F76722E97FF09C090952B
:101D70008095709561957F4F8F4F9F4F2068722E91
:101D80002AE030E0A4010E940710A82EA81844C041
:101D9000853729F42F7EB22E2AE030E025C0F22FBD
:101DA000F97FBF2E8F36C1F018F4883579F0B4C0B2
:101DB000803719F0883721F0AFC02F2F2061B22E65
:101DC000B4FE0DC08B2D8460B82E09C024FF0AC05C
:101DD0009F2F9660B92E06C028E030E005C020E1B4
:101DE00030E002C020E132E0F801B7FE07C06081B8
:101DF0007181828193810C5F1F4F06C06081718168
:101E000080E090E00E5F1F4FA4010E940710A82EF3
:101E1000A818FB2DFF777F2E76FE0BC0372D3E7F57
:101E2000A51450F474FE0AC072FC08C0372D3E7E23
:101E300005C0BA2C372D03C0BA2C01C0B52C34FF15
:101E40000DC0FE01EA0DF11D8081803311F4397E51
:101E500009C032FF06C0B394B39404C0832F8678C0
:101E600009F0B39433FD13C030FF06C05A2CB314ED
:101E700018F4530C5B18B32CB31468F4B70180E268
:101E800090E03C870E94CF0FB3943C85F5CFB3140C
:101E900010F43B1801C0312C34FF12C0B70180E3AD
:101EA00090E03C870E94CF0F3C8532FF17C031FD88
:101EB00003C088E790E002C088E590E0B7010CC05D
:101EC000832F867859F031FF02C08BE201C080E297
:101ED00037FD8DE2B70190E00E94CF0FA51438F4D2
:101EE000B70180E390E00E94CF0F5A94F7CFAA94F5
:101EF000F401EA0DF11D8081B70190E00E94CF0F3F
:101F0000A110F5CF332009F451CEB70180E290E063
:101F10000E94CF0F3A94F6CFF7018681978102C0D5
:101F20008FEF9FEF2C96E2E10C94B3100F931F9369
:101F3000CF93DF93869F8001879F100D969F100D92
:101F40001124C8010E94AA0BEC01009729F0A801F6
:101F500060E070E00E94BD0FCE01DF91CF911F9134
:101F60000F910895FC010590615070400110D8F761
:101F7000809590958E0F9F1F0895DC0101C06D9391
:101F800041505040E0F70895FC01615070400190CD
:101F90000110D8F7809590958E0F9F1F08950F938D
:101FA0001F93CF93DF93FB01238121FD03C08FEFAC
:101FB0009FEF28C022FF16C04681578124813581BA
:101FC0004217530744F4A081B1819D012F5F3F4F19
:101FD000318320838C93268137812F5F3F4F378356
:101FE000268310C0EB01092F182F0084F185E02D06
:101FF0000995892BE1F68E819F8101969F838E83BF
:10200000812F902FDF91CF911F910F910895FA01A9
:10201000AA27283051F1203181F1E8946F936E7F27
:102020006E5F7F4F8F4F9F4FAF4FB1E03ED0B4E018
:102030003CD0670F781F891F9A1FA11D680F791F59
:102040008A1F911DA11D6A0F711D811D911DA11D6A
:1020500020D009F468943F912AE0269F112430197A
:10206000305D3193DEF6CF010895462F4770405D15
:102070004193B3E00FD0C9F7F6CF462F4F70405DC4
:102080004A3318F0495D31FD4052419302D0A9F71F
:10209000EACFB4E0A6959795879577956795BA9519
:1020A000C9F700976105710508959B01AC010A2EDF
:1020B00006945795479537952795BA95C9F7620FB6
:1020C000731F841F951FA01D0895052E97FB1EF4F6
:1020D00000940E947C1057FD07D00E94CE1007FC90
:1020E00003D04EF40C947C1050954095309521957A
:1020F0003F4F4F4F5F4F0895909580957095619534
:102100007F4F8F4F9F4F08950E94F010A59F900D15
:10211000B49F900DA49F800D911D11240895B7FFC9
:102120000C9484100E948410821B930B08952F92AC
:102130003F924F925F926F927F928F929F92AF9257
:10214000BF92CF92DF92EF92FF920F931F93CF93A4
:10215000DF93CDB7DEB7CA1BDB0B0FB6F894DEBF3B
:102160000FBECDBF09942A88398848885F846E8461
:102170007D848C849B84AA84B984C884DF80EE80AB
:10218000FD800C811B81AA81B981CE0FD11D0FB6B4
:10219000F894DEBF0FBECDBFED010895A1E21A2E67
:1021A000AA1BBB1BFD010DC0AA1FBB1FEE1FFF1FFB
:1021B000A217B307E407F50720F0A21BB30BE40B4B
:1021C000F50B661F771F881F991F1A9469F7609592
:1021D0007095809590959B01AC01BD01CF0108954C
:1021E000A29FB001B39FC001A39F700D811D112458
:1021F000911DB29F700D811D1124911D0895F894B9
:02220000FFCF0E
:102202000000A40220000100000052656164206603
:10221200726F6D204D43505F43414E5354415420E1
:1022220025640A0D005374617274696E67205352FB
:10223200414D20746573742E2E2E00577269746599
:10224200207068617365206572726F723A206578DA
:10225200745F72616D5B2534645D203D20253032F0
:1022620058202873686F756C6420626520253032AF
:1022720058290D0A0052657472696576616C207086
:1022820068617365206572726F723A206578745F57
:1022920072616D5B2534645D203D2025303258200B
:1022A2002873686F756C6420626520253032582966
:1022B2000D0A005352414D207465737420636F6D93
:1022C200706C657465642077697468200D0A253422
:1022D20064206572726F727320696E2077726974FE
:1022E2006520706861736520616E64200D0A253473
:1022F20064206572726F727320696E2072657472E7
:10230200696576616C2070686173650D0A0A007EEA
:10231200004D61696E204D656E75007375625F6D6B
:10232200656E755F31007375625F6D656E755F32E4
:10233200007375625F6D656E755F33007375625F02
:102342006D656E755F315F31007375625F6D656ECD
:10235200755F315F32007375625F6D656E755F31F7
:102362005F315F310060686F726572206572206F45
:102372006B60007375622073756220737562000072
:00000001FF
