:100000000C94D5000C9408040C94F6000C94F600A3
:100010000C94F6000C94F6000C94F6000C94F60088
:100020000C94F6000C94F6000C94F6000C94F60078
:100030000C94F6000C94F6000C94F6000C94F60068
:100040000C94F6000C946C040C94F6000C94F600DE
:100050000C94F6000C94F6000C94F6000C94F60048
:100060000C94F6000C94F6000C94F6000C94F60038
:100070000C94F6000C94C3040C94F6000C94F60057
:100080000C94F6000C94F6000C94F6000C94F60018
:100090000C94F6000C94F6000C94F6000C94CC0230
:1000A0000C94F6000C94F6000C94F6000C94F600F8
:1000B0000C94F6000C94F6000C94F6000C94F600E8
:1000C0000C94F6000C94F6000C94F6000C94F600D8
:1000D0000C94F6000C94F6000C94F6000C94F600C8
:1000E0000C94F600EB023D033D033D033D033D034D
:1000F0003D033D03EB023D033D033D033D033D0353
:100100003D033D03ED023D033D033D033D033D0340
:100110003D033D033D033D033D033D033D033D03DF
:100120003D033D03ED023D033D033D033D033D0320
:100130003D033D033D033D033D033D033D033D03BF
:100140003D033D0339033D033D033D033D033D03B3
:100150003D033D0316033D033D033D033D033D03C6
:100160003D033D033D033D033D033D033D033D038F
:100170003D033D030A033D033D033D033D033D03B2
:100180003D033D0328030C9416030C940A030C94BE
:100190003D030C9439030C94EB020C94ED020C9487
:1001A00028030C9444010C943C0111241FBECFEF92
:1001B000D1E2DEBFCDBF00E00CBF12E0A0E0B2E0B4
:1001C000E8E6F3E100E00BBF02C007900D92AC340B
:1001D000B107D9F722E0ACE4B2E001C01D92A3362A
:1001E000B207E1F70E94F8000C94B2090C940000E9
:1001F000CF93DF93CDB7DEB76A970FB6F894DEBF23
:100200000FBECDBFF8940E9457010E9453030E9475
:1002100043040E9488040E94620178940E9445056C
:1002200067E072E0CE010B960E94D70483E192E072
:100230009F938F930E94A7050F900F901AE0CE0115
:1002400041960E94A803FE017196DE011196812F4E
:1002500001900D928A95E1F78A81813039F4CE01BF
:1002600001960E9477048B810E9492018D818130DA
:1002700031F70E944805E3CFE0ECF0E0908195FF74
:10028000FDCF8093C6000895E0ECF0E080818823E4
:10029000ECF78091C60008959093C5008093C40048
:1002A00088E18093C1008EE08093C200089587E6C4
:1002B00090E00E944C0164E471E08CE391E00E94C4
:1002C0005C0508950E946102E1E0F1E080818260B6
:1002D0008083808188608083808180618083808149
:1002E00080628083E7E0F1E080818F778083808186
:1002F0008F7B808380818F7D808380818F7E8083D0
:100300008081877F808380818B7F808380818D7FC8
:10031000808380818E7F8083E0E0F1E08081806156
:1003200080830895CF93DF9300D0CDB7DEB7845696
:10033000982F3AF49195E2E0F1E080818D7F8083FF
:1003400009C0803134F0E2E0F1E080818260808396
:1003500001C090E080E589831A829B8363E0CE012F
:1003600001960E9477020F900F900F90DF91CF912E
:10037000089508950895E2E0F1E080818F7B808305
:1003800082E48A95F1F700C08081806480830895BB
:100390000F931F93CF93DF93C2E0D1E088818F7DCD
:1003A00088838881877F888384E68A95F1F7E6E0F1
:1003B000F1E0008188818860888384E68A95F1F77E
:1003C00010810E94BB01888180628883812F90E028
:1003D000902BDF91CF911F910F91089584B1876881
:1003E00084B98CB581658CBD08958EBD0DB407FEB2
:1003F000FDCF8EB50895CF93C82F2F9883E00E942C
:10040000F5018C2F0E94F5018FEF0E94F5012F9AC4
:10041000CF910895CF93DF93D82FC62F2F9882E0E6
:100420000E94F5018D2F0E94F5018C2F0E94F5018D
:100430002F9ADF91CF9108952F98813051F028F0B5
:10044000823059F0833069F00FC081E80E94F501D5
:100450000BC082E80E94F50107C084E80E94F50104
:1004600003C087E80E94F5012F9A089580EA0E9450
:10047000FB0108951F93CF93DF93182FD62FC42F1E
:100480002F9885E00E94F501812F0E94F5018D2FA4
:100490000E94F5018C2F0E94F5012F9ADF91CF91D8
:1004A0001F9108952F9880EC0E94F5012F9A0895CE
:1004B0000E94EE010E94520260E08FE00E940A0258
:1004C00008958CE08093B8008FEF8093BB0084E0A8
:1004D0008093BC0008958091BC0081700895ECEB7E
:1004E000F0E0808180FDFDCF809100020895CF93E0
:1004F000DF93EC01ECEBF0E0908190FDFDCF609399
:100500004E02988190934F0290FD13C0623088F0A4
:10051000FE013196A0E5B2E06250262F30E02E5F5A
:100520003F4FCE01820F931F21912D93E817F907BA
:10053000D9F710924C0288EF8093000285EA8093ED
:10054000BC00DF91CF910895ECEBF0E0808180FD5D
:10055000FDCF10924C0288EF8093000285EA8093D1
:10056000BC000895ECEBF0E0208120FDFDCF209150
:100570004C0220FF0DC0662359F02FE432E0A82F73
:10058000B92FF90181918D938E2F821B8617D0F39D
:1005900080914C02817008951F920F920FB60F92B6
:1005A00011240BB60F922F933F938F939F93AF938A
:1005B000BF93EF93FF93E091B9008E2F90E0FC0181
:1005C0003897E135F10508F058C08827EE58FF4FFD
:1005D0008F4F0C94540510924D02E0914D02809182
:1005E0004E02E81770F481E08E0F80934D02F0E028
:1005F000E15BFD4F80818093BB0085E88093BC0068
:1006000043C080914C02816080934C0284E98093C6
:10061000BC003AC0E0914D0281E08E0F80934D0204
:100620008091BB00F0E0E15BFD4F808320914D02A3
:1006300030E080914E0290E001972817390724F4AA
:1006400085EC8093BC0020C085E88093BC001CC072
:100650008091BB00E0914D02F0E0E15BFD4F8083B3
:1006600080914C02816080934C0284E98093BC00AD
:100670000BC085EA8093BC0007C08091B9008093CD
:10068000000284E08093BC00FF91EF91BF91AF9195
:100690009F918F913F912F910F900BBE0F900FBEA6
:1006A0000F901F9018950E94580260E08FE00E9402
:1006B0000A0260E680E60E940A0241E061E08BE205
:1006C0000E943A0240E061E08CE20E943A02E9E6D0
:1006D000F0E0808182608083E89AE09A0895EF924A
:1006E000FF920F931F93CF93DF937C0160E081E330
:1006F0000E940A02F70161816295660F607E82E3C3
:100700000E940A02F701608185E30E940A02F70154
:100710008081882399F087010E5F1F4FC0E0D0E0F1
:10072000F80161918F018C2F8A5C0E940A02219648
:10073000F701208130E0C217D30794F380E00E94D4
:100740001C02DF91CF911F910F91FF90EF900895C0
:100750009F92AF92BF92CF92DF92EF92FF920F9350
:100760001F93CF93DF93CDB7DEB72A970FB6F894D8
:10077000DEBF0FBECDBF5C0185E60E94FB01982E57
:1007800081E60E94FB01182F82E60E94FB01829500
:1007900086958770169516951695082F010F992046
:1007A000A9F07E0183E0E80EF11C9E01290D311DA8
:1007B000F90133966F0116E6812F0E94FB01F701C4
:1007C00081937F011F5FEC15FD05B1F740E061E00B
:1007D0008CE20E943A0299820A838AE0FE013196F5
:1007E000D50101900D928A95E1F7C5012A960FB6C1
:1007F000F894DEBF0FBECDBFDF91CF911F910F9157
:10080000FF90EF90DF90CF90BF90AF909F900895B2
:100810001F920F920FB60F9211240BB60F922F93C7
:100820003F934F935F936F937F938F939F93AF9378
:10083000BF93EF93FF93CF93DF93CDB7DEB72A97A4
:10084000DEBFCDBFF894CE0101960E94A803789434
:100850002A960FB6F894DEBF0FBECDBFDF91CF91C1
:10086000FF91EF91BF91AF919F918F917F916F9188
:100870005F914F913F912F910F900BBE0F900FBE44
:100880000F901F901895E0E8F0E0808182628083ED
:10089000E1E8F0E080818A61808380E49CE99093C4
:1008A00087008093860088EB9BE090938B00809379
:1008B0008A00EFE6F0E0808182608083B19A269A18
:1008C00008959C01285037402136394020F49093F8
:1008D0008B0080938A0008951F920F920FB60F929B
:1008E0001124B19A0F900FBE0F901F901895FC0124
:1008F000838190E09C01220F331F820F931F880F8A
:10090000991F880F991F885F984F0E94610408956E
:10091000EAE7F0E08081806880838081876080835F
:100920008098ACE7B0E08C9180648C938081886083
:10093000808380818F7E8083089524E030E040E0D2
:1009400050E0EAE7F0E0A8E7B0E0808180648083CF
:100950008091570290915802892BD1F3109258023E
:10096000109257028D919C911197480F591F215059
:10097000310959F7CA0199230CF403969595879587
:100980009595879508951F920F920FB60F92112497
:100990008F939F9381E090E0909358028093570249
:1009A0009F918F910F900FBE0F901F901895FC0193
:1009B0001382128283E090E0958384837183608345
:1009C0000895CF93DF93EC010E949D04282F30E01F
:1009D0003093540220935302809153029091540219
:1009E000863491055CF58C819D81009709F446C0A1
:1009F000209155023091560221303105B9F5019709
:100A00009D838C831092560210925502009749F4F0
:100A100080E392E09F938F930E94A7050F900F9021
:100A200031C09F938F938FE392E09F938F930E94A7
:100A3000A7050F900F900F900F9024C08091530244
:100A40009091540287399105ECF08C819D81892B1E
:100A5000C9F08091550290915602892B99F481E05A
:100A600090E090935602809355020CC080915302FF
:100A7000909154028739910564F704C08091530224
:100A800090915402DF91CF910895249A2C98089563
:100A90002C9A2FEB87E299E0215080409040E1F7BB
:100AA00000C000002C980895EE0FFF1F881F8BBF19
:100AB0000790F691E02D19940F931F93CF93DF9336
:100AC000009731F46115710519F480E090E03AC0A7
:100AD0008B01EC016EE070E081E090E00E94B607CF
:100AE000FC01892B91F380E883830115110571F0D6
:100AF0001387028781E883838091590290915A027B
:100B0000892B21F4F0935A02E09359022097C9F0FF
:100B1000D187C08783818260838380915B029091BB
:100B20005C02892B71F4F0935C02E0935B0280918C
:100B30005D0290915E02892B21F4F0935E02E093B6
:100B40005D02CF01DF91CF911F910F910895CF9357
:100B5000DF93CDB7DEB7AE014A5F5F4FFA01619117
:100B60007191AF0180915B0290915C020E94BB0584
:100B7000DF91CF9108952F923F924F925F926F92A3
:100B80007F928F929F92AF92BF92CF92DF92EF921D
:100B9000FF920F931F93CF93DF93CDB7DEB72C97C0
:100BA0000FB6F894DEBF0FBECDBF7C016B018A018A
:100BB000FC0117821682838181FFBDC1CE0101969F
:100BC0004C01F7019381F60193FD859193FF81918B
:100BD0006F01882309F4ABC1853239F493FD859107
:100BE00093FF81916F01853229F4B70190E00E9453
:100BF0001C09E7CF512C312C20E02032A0F48B329D
:100C000069F030F4803259F0833269F420612CC0ED
:100C10008D3239F0803339F4216026C0226024609F
:100C200023C0286021C027FD27C030ED380F3A309F
:100C300078F426FF06C0FAE05F9E300D1124532E93
:100C400013C08AE0389E300D1124332E20620CC070
:100C50008E3221F426FD6BC1206406C08C3611F45F
:100C6000206802C0883641F4F60193FD859193FF18
:100C700081916F018111C1CF982F9F7D9554933041
:100C800028F40C5F1F4FFFE3F9830DC0833631F06A
:100C9000833771F0833509F05BC022C0F801808191
:100CA00089830E5F1F4F44244394512C540115C077
:100CB0003801F2E06F0E711CF801A080B18026FFB0
:100CC00003C0652D70E002C06FEF7FEFC5012C8778
:100CD0000E9411092C0183012C852F77222E17C029
:100CE0003801F2E06F0E711CF801A080B18026FF80
:100CF00003C0652D70E002C06FEF7FEFC5012C8748
:100D00000E94FF082C012C852068222E830123FCE1
:100D10001BC0832D90E048165906B0F4B70180E25D
:100D200090E00E941C093A94F4CFF50127FC8591CC
:100D300027FE81915F01B70190E00E941C093110EC
:100D40003A94F1E04F1A51084114510471F7E5C08B
:100D5000843611F0893639F5F80127FF07C0608124
:100D60007181828193810C5F1F4F08C06081718106
:100D7000072E000C880B990B0E5F1F4F2F76722EDB
:100D800097FF09C090958095709561957F4F8F4F23
:100D90009F4F2068722E2AE030E0A4010E9454097F
:100DA000A82EA81844C0853729F42F7EB22E2AE039
:100DB00030E025C0F22FF97FBF2E8F36C1F018F436
:100DC000883579F0B4C0803719F0883721F0AFC08A
:100DD0002F2F2061B22EB4FE0DC08B2D8460B82E53
:100DE00009C024FF0AC09F2F9660B92E06C028E0D4
:100DF00030E005C020E130E002C020E132E0F8013F
:100E0000B7FE07C060817181828193810C5F1F4FA3
:100E100006C06081718180E090E00E5F1F4FA401E9
:100E20000E945409A82EA818FB2DFF777F2E76FE6E
:100E30000BC0372D3E7FA51450F474FE0AC072FC1F
:100E400008C0372D3E7E05C0BA2C372D03C0BA2C02
:100E500001C0B52C34FF0DC0FE01EA0DF11D8081EB
:100E6000803311F4397E09C032FF06C0B394B394C5
:100E700004C0832F867809F0B39433FD13C030FF8C
:100E800006C05A2CB31418F4530C5B18B32CB314CB
:100E900068F4B70180E290E03C870E941C09B3949B
:100EA0003C85F5CFB31410F43B1801C0312C34FF4E
:100EB00012C0B70180E390E03C870E941C093C858A
:100EC00032FF17C031FD03C088E790E002C088E51B
:100ED00090E0B7010CC0832F867859F031FF02C033
:100EE0008BE201C080E237FD8DE2B70190E00E9405
:100EF0001C09A51438F4B70180E390E00E941C0996
:100F00005A94F7CFAA94F401EA0DF11D8081B7013C
:100F100090E00E941C09A110F5CF332009F451CEB6
:100F2000B70180E290E00E941C093A94F6CFF701E5
:100F30008681978102C08FEF9FEF2C960FB6F894B1
:100F4000DEBF0FBECDBFDF91CF911F910F91FF90FC
:100F5000EF90DF90CF90BF90AF909F908F907F9059
:100F60006F905F904F903F902F9008950F931F9335
:100F7000CF93DF93869F8001879F100D969F100D62
:100F80001124C8010E94D207EC01009729F0A801A2
:100F900060E070E00E940A09CE01DF91CF911F91BD
:100FA0000F910895CF93DF938230910510F482E082
:100FB00090E0E0916102F091620220E030E0C0E058
:100FC000D0E0309711F14081518148175907C0F0A6
:100FD0004817590761F482819381209719F09B8308
:100FE0008A832BC0909362028093610226C02115F0
:100FF000310519F04217530718F49A01BE01DF01B9
:10100000EF010280F381E02DDCCF2115310509F1DC
:10101000281B390B2430310590F412968D919C9148
:1010200013976115710521F0FB019383828304C03E
:101030009093620280936102FD01329644C0FD01EB
:10104000E20FF31F81939193225031092D933C932A
:101050003AC020915F0230916002232B41F420912D
:101060000302309104023093600220935F022091CA
:101070000102309102022115310541F42DB73EB72E
:101080004091050250910602241B350BE0915F024E
:10109000F0916002E217F307A0F42E1B3F0B281714
:1010A000390778F0AC014E5F5F4F2417350748F0E1
:1010B0004E0F5F1F5093600240935F0281939193A4
:1010C00002C0E0E0F0E0CF01DF91CF9108950F93EF
:1010D0001F93CF93DF93009709F48CC0FC013297E4
:1010E00013821282009161021091620201151105B2
:1010F00081F420813181820F931F20915F02309112
:1011000060022817390779F5F0936002E0935F02D7
:1011100071C0D80140E050E0AE17BF0750F41296FE
:101120002D913C911397AD012115310509F1D9019C
:10113000F3CF9D01DA013383228360817181860FB1
:10114000971F8217930769F4EC0128813981260FD4
:10115000371F2E5F3F4F318320838A819B8193838A
:101160008283452B29F4F0936202E093610242C02E
:101170001396FC93EE931297ED01499159919E01BC
:10118000240F351FE217F30771F480819181840FDA
:10119000951F029611969C938E938281938113964C
:1011A0009C938E931297E0E0F0E0D80112968D9117
:1011B0009C911397009719F0F8018C01F6CF8D914F
:1011C0009C9198012E5F3F4F820F931F20915F02E9
:1011D000309160022817390769F4309729F410928A
:1011E00062021092610202C01382128210936002A6
:1011F00000935F02DF91CF911F910F910895FC0141
:101200000590615070400110D8F7809590958E0F31
:101210009F1F0895DC0101C06D9341505040E0F7DD
:101220000895FC016150704001900110D8F780953D
:1012300090958E0F9F1F08950F931F93CF93DF9369
:10124000FB01238121FD03C08FEF9FEF28C022FF08
:1012500016C046815781248135814217530744F4D3
:10126000A081B1819D012F5F3F4F318320838C93FB
:10127000268137812F5F3F4F3783268310C0EB01D4
:10128000092F182F0084F185E02D1995892BE1F69F
:101290008E819F8101969F838E83812F902FDF9176
:1012A000CF911F910F910895FA01AA27283051F18B
:1012B000203181F1E8946F936E7F6E5F7F4F8F4F87
:1012C0009F4FAF4FB1E03ED0B4E03CD0670F781FE6
:1012D000891F9A1FA11D680F791F8A1F911DA11DCB
:1012E0006A0F711D811D911DA11D20D009F4689404
:1012F0003F912AE0269F11243019305D3193DEF6AC
:10130000CF010895462F4770405D4193B3E00FD061
:10131000C9F7F6CF462F4F70405D4A3318F0495D4C
:1013200031FD4052419302D0A9F7EACFB4E0A6952F
:101330009795879577956795BA95C9F70097610551
:10134000710508959B01AC010A2E069457954795A7
:1013500037952795BA95C9F7620F731F841F951F9C
:08136000A01D0895F894FFCFD1
:10136800F8000063022000556E67205370696C6CAA
:1013780065720056656C6B6F6D6D656E2074696C77
:10138800204D756A6166617320424D57210A0D0030
:10139800596F752064656164206E6F770A0D004C83
:0C13A800697665733A2025640A0D000088
:00000001FF
