:100000000C94D5000C94F6000C94F6000C94370573
:100010000C94F6000C94F6000C94F6000C94F60088
:100020000C94F6000C94F6000C94F6000C94F60078
:100030000C94F6000C94F6000C94F6000C94F60068
:100040000C94F6000C94A2050C94F6000C94F600A7
:100050000C94F6000C94F6000C94F6000C94F60048
:100060000C94F6000C94F6000C94F6000C94F60038
:100070000C94F6000C94D1060C94F6000C94F60047
:100080000C94F6000C94F6000C94F6000C94F60018
:100090000C94F6000C94F6000C94F6000C94E20319
:1000A0000C94F6000C94F6000C940B080C94F600DB
:1000B0000C94F6000C94F6000C94F6000C94F600E8
:1000C0000C94F6000C94F6000C94F6000C94F600D8
:1000D0000C94F6000C94F6000C94F6000C94F600C8
:1000E0000C94F600010453045304530453045304C2
:1000F000530453040104530453045304530453049A
:100100005304530403045304530453045304530487
:100110005304530453045304530453045304530427
:100120005304530403045304530453045304530467
:100130005304530453045304530453045304530407
:10014000530453044F0453045304530453045304FB
:10015000530453042C04530453045304530453040E
:1001600053045304530453045304530453045304D7
:1001700053045304200453045304530453045304FA
:10018000530453043E040C942C040C9420040C944B
:1001900053040C944F040C9401040C9403040C9429
:1001A0003E040C94B6010C94AE0111241FBECFEF97
:1001B000D1E2DEBFCDBF00E00CBF15E0A0E0B2E0B1
:1001C000E0E5F0E200E00BBF02C007900D92A63D13
:1001D000B107D9F726E0A6EDB5E001C01D92A63023
:1001E000B207E1F70E94F8000C9426100C9400006E
:1001F000CF93DF93CDB7DEB764970FB6F894DEBF29
:100200000FBECDBFF8940E94C9012FEF89EF90E097
:10021000215080409040E1F700C000000E94380863
:100220002FEF89EF90E0215080409040E1F700C02F
:1002300000000E9469042FEF89EF90E02150804078
:100240009040E1F700C000000E9488022FEF89EF84
:1002500090E0215080409040E1F700C000000E94F3
:10026000BF052FEF89EF90E0215080409040E1F7EB
:1002700000C000000E94D7052FEF89EF90E02150C9
:1002800080409040E1F700C000000E94AD052FEFD4
:1002900089EF90E0215080409040E1F700C00000DD
:1002A0000E9479052FEF89EF90E021508040904027
:1002B000E1F700C0000078941A8281E0898388E029
:1002C0008B8300E010E00F2EFFECCF2EF5E0DF2E49
:1002D000F02DAA24A394B12CE12CF12CCE010B9685
:1002E0000E942E059C858D850115110521F0013098
:1002F000110511F1F3CF911109C02A2D9B2D8130E9
:1003000011F02E2D9F2D022F192FE8CF933019F4C5
:100310000E94C107E3CF973009F78130F9F6DF92E9
:10032000CF920E941B0C0E94380882E090E00E944D
:1003300074080F900F90D2CF0E940E062FEF81EE1F
:1003400094E0215080409040E1F700C00000CE01D1
:1003500001960E948F040E2D1F2DC0CFE0ECF0E01F
:10036000908195FFFDCF8093C6000895E0ECF0E00A
:1003700080818823ECF78091C60008959093C50092
:100380008093C40088E18093C1008EE08093C20016
:10039000089587E690E00E94BE0166EB71E08EEA68
:1003A00091E00E94D00B0895CF93DF9300D0CDB79A
:1003B000DEB78456682F3AF46195E2E0F1E080817F
:1003C0008D7F808309C0803134F0E2E0F1E08081EC
:1003D0008260808301C060E080E589831A82062EF6
:1003E000000C770B880B990B0E94D70A23E333E3A9
:1003F00043E250E40E94630B0E949F0A6B8363E018
:10040000CE0101960E948D030F900F900F90DF9107
:10041000CF910895CF93DF9300D0CDB7DEB71816F4
:10042000190634F4E2E0F1E020812D7F208308C03A
:10043000919581959109E2E0F1E02081226020838D
:1004400020E529831A828F3F910519F014F08FEF70
:1004500090E08B8363E0CE0101960E948D030F90A4
:100460000F900F90DF91CF910895E2E0F1E080814D
:100470008F7D80838081877F80838FEA94E00197DE
:10048000F1F700C00000A6E0B1E02C918081886007
:1004900080838FEA94E00197F1F700C000008C910F
:1004A00090819062908390E0922B08950E94350293
:1004B000992314F480E090E08C3023E2920798F4C2
:1004C000BC01990F880B990B0E94D70A22E538EBE3
:1004D0004CE052E40E942D0A0E94A60A6F3F71056B
:1004E00009F028F402C06FEF70E0862F08958FEFB7
:1004F0000895E2E0F1E080818F7B80838FE193E0DB
:100500000197F1F700C00000808180648083089526
:10051000CF93DF9300D0CDB7DEB70E947703E1E041
:10052000F1E0808182608083808188608083808127
:1005300080618083A0E0B1E08C9180618C938081A8
:1005400080628083808180648083E7E0F1E0808145
:100550008F77808380818F7B808380818F7D808374
:1005600080818F7E80838081877F808380818B7F65
:10057000808380818D7F808380818E7F808380E5F2
:1005800089831A821B8263E0CE0101960E948D034B
:100590000E9479020F900F900F90DF91CF910895F4
:1005A000CF93DF9300D0CDB7DEB7E2E0F1E08081FA
:1005B0008260808380E589831A8284E68B8363E08E
:1005C000CE0101960E948D032FEF8DE399E4215017
:1005D00080409040E1F700C000001B8263E0CE0144
:1005E00001960E948D032FEF83EC99E0215080400B
:1005F0009040E1F700C000000E9479020F900F9038
:100600000F90DF91CF91089584B1876884B98CB53C
:1006100081658CBD08958EBD0DB407FEFDCF8EB5EE
:100620000895CF93C82F2F9883E00E940B038C2F3F
:100630000E940B038FEF0E940B032F9ACF91089516
:10064000CF93DF93D82FC62F2F9882E00E940B0301
:100650008D2F0E940B038C2F0E940B032F9ADF918A
:10066000CF9108952F98813051F028F0823059F0C1
:10067000833069F00FC081E80E940B030BC082E851
:100680000E940B0307C084E80E940B0303C087E8A5
:100690000E940B032F9A089580EA0E941103089587
:1006A0001F93CF93DF93182FD62FC42F2F9885E059
:1006B0000E940B03812F0E940B038D2F0E940B03BE
:1006C0008C2F0E940B032F9ADF91CF911F910895D9
:1006D0002F9880EC0E940B032F9A08950E94040328
:1006E0000E94680360E08FE00E94200308958CE080
:1006F0008093B8008FEF8093BB0084E08093BC00B0
:1007000008958091BC0081700895ECEBF0E0808149
:1007100080FDFDCF809100020895CF93DF93EC011F
:10072000ECEBF0E0908190FDFDCF6093D8059881CF
:100730009093D90590FD13C0623088F0FE01319688
:10074000AAEDB5E06250262F30E02E5F3F4FCE017C
:10075000820F931F21912D93E817F907D9F7109273
:10076000D60588EF8093000285EA8093BC00DF9174
:10077000CF910895ECEBF0E0808180FDFDCF1092E9
:10078000D60588EF8093000285EA8093BC00089527
:10079000ECEBF0E0208120FDFDCF2091D60520FF7D
:1007A0000DC0662359F029ED35E0A82FB92FF901C6
:1007B00081918D938E2F821B8617D0F38091D60561
:1007C000817008951F920F920FB60F9211240BB6ED
:1007D0000F922F933F938F939F93AF93BF93EF937A
:1007E000FF93E091B9008E2F90E0FC013897E1353E
:1007F000F10508F058C08827EE58FF4F8F4F0C9432
:10080000A4091092D705E091D7058091D805E81783
:1008100070F481E08E0F8093D705F0E0E752FA4F35
:1008200080818093BB0085E88093BC0043C08091A9
:10083000D60581608093D60584E98093BC003AC0D8
:10084000E091D70581E08E0F8093D7058091BB00A2
:10085000F0E0E752FA4F80832091D70530E0809195
:10086000D80590E001972817390724F485EC809388
:10087000BC0020C085E88093BC001CC08091BB00F8
:10088000E091D705F0E0E752FA4F80838091D605DA
:1008900081608093D60584E98093BC000BC085EA13
:1008A0008093BC0007C08091B9008093000284E06F
:1008B0008093BC00FF91EF91BF91AF919F918F9179
:1008C0003F912F910F900BBE0F900FBE0F901F9076
:1008D0001895E9E6F0E080818F7E808380818062D8
:1008E0008083EA9AE29A0E946E0340E060EE8FE015
:1008F0000E94500360E680E60E94200343E063E02C
:100900008BE20E94500340E063E08CE20E945003BF
:10091000EDEDF5E086E0818388E082830895EF9233
:10092000FF920F931F93CF93DF937C0160E081E3ED
:100930000E942003F70161816295660F607E82E369
:100940000E942003F701608185E30E942003F701E4
:1009500080818823C9F087010E5F1F4FC0E0D0E07F
:10096000F80161918F018C2F8A5C0E9420038FE92E
:100970009FE00197F1F700C000002196F701208168
:1009800030E0C217D30764F380E00E943203DF91A6
:10099000CF911F910F91FF90EF9008959F92AF928A
:1009A000BF92CF92DF92EF92FF920F931F93CF935C
:1009B000DF93CDB7DEB72A970FB6F894DEBF0FBE30
:1009C000CDBF5C0185E60E941103982E81E60E944E
:1009D0001103182F82E60E94110382958695877075
:1009E000169516951695082F010F9920A9F07E01EE
:1009F00083E0E80EF11C9E01290D311DF9013396AB
:100A00006F0116E6812F0E941103F70181937F0188
:100A10001F5FEC15FD05B1F740E061E08CE20E943C
:100A2000500399820A838AE0FE013196D501019034
:100A30000D928A95E1F7C5012A960FB6F894DEBFAC
:100A40000FBECDBFDF91CF911F910F91FF90EF901F
:100A5000DF90CF90BF90AF909F9008952AE0EDED8A
:100A6000F5E0DC0101900D922A95E1F708951F92BF
:100A70000F920FB60F9211240BB60F922F933F9344
:100A80004F935F936F937F938F939F93AF93BF9396
:100A9000EF93FF93CF93DF93CDB7DEB72A97DEBFF7
:100AA000CDBFCE0101960E94CE048AE0FE013196B0
:100AB000ADEDB5E001900D928A95E1F72A960FB65B
:100AC000F894DEBF0FBECDBFDF91CF91FF91EF91C4
:100AD000BF91AF919F918F917F916F915F914F9156
:100AE0003F912F910F900BBE0F900FBE0F901F9054
:100AF0001895E0E8F0E0808182628083E1E8F0E030
:100B000080818A61808380E49CE990938700809350
:100B1000860088EB9BE090938B0080938A00EFE641
:100B2000F0E0808182608083B19A269A08959C01CA
:100B3000285037402136394020F490938B00809321
:100B40008A0008951F920F920FB60F921124B19A46
:100B50000F900FBE0F901F901895E8EFF5E08FE70C
:100B60008083118284E683830895282F34EF320333
:100B7000C001112488599F4E0E9497050895EAE705
:100B8000F0E08081806880838081876080838098A6
:100B9000ACE7B0E08C918F778C938C9180648C93D0
:100BA00080818860808380818F7E80830895259AEC
:100BB0002D980895882359F02D9A2FEF81EE94E017
:100BC000215080409040E1F700C000002D9808952A
:100BD00024E030E040E050E0EAE7F0E0A8E7B0E0F1
:100BE0008081806480838091ED059091EE05892B52
:100BF000D1F31092EE051092ED058D919C91119715
:100C0000480F591F2150310959F7CA0199230CF493
:100C1000039695958795959587950895FF920F93DF
:100C20001F93CF93DF93CDB7DEB7C355D1090FB66E
:100C3000F894DEBF0FBECDBFE2E7F0E080818D7F8C
:100C400080830E94D0022FEF83EC99E021508040F6
:100C50009040E1F700C000000E94E506EFEFF3EDE1
:100C600020E3E150F0402040E1F700C0000008EF31
:100C700015E0FF24F3940E94E8054497D8F5E2E7D5
:100C8000F0E080818D7F808380E562968FAF6297F0
:100C900063961FAE639764961FAE649763E070E03F
:100CA000CE018F5A9F4F0E948D038FEF93EDE0E3AB
:100CB00081509040E040E1F700C0000029961FAE4F
:100CC000299781E028968FAF28972A961FAE2A97FA
:100CD000CE01895B9F4F0E948F0484E60E94B50578
:100CE000FFEF23EC89E0F15020408040E1F700C0A5
:100CF00000004AC0CE01CD960E942E058EAD8230F6
:100D000061F5CE01C3960E942E058DA9F80180835E
:100D1000CE0189960E942E058DA5882339F0F80111
:100D20008181811103C0F182F28217C0CE014F96FA
:100D30000E942E058BA1882331F0F801818181303A
:100D400011F412820AC0CE0145960E942E05898DAB
:100D5000811103C0F80111821282CE010B960E940C
:100D60002E058C85813039F4CE0101960E942E0526
:100D70008B81F8018383F80183810E94B505F80116
:100D800082810E94DA0577CFCD5ADF4F0FB6F894F3
:100D9000DEBF0FBECDBFDF91CF911F910F91FF90AE
:100DA00008951F920F920FB60F9211248F939F9365
:100DB00081E090E09093EE058093ED059F918F91F7
:100DC0000F900FBE0F901F9018951092F70510927C
:100DD000F6051092F5051092F4051092F3051092A5
:100DE000F2051092F1051092F0051092EF05E1EA7C
:100DF000F0E080818860808380818560808384EDDD
:100E000091E09093A9008093A8001092A500109201
:100E1000A400C99AE2E7F0E08081826080830895AF
:100E20008F929F92AF92BF92CF92DF92EF92FF92FA
:100E30000F931F93CF93DF93CDB7DEB764970FB6B1
:100E4000F894DEBF0FBECDBFCE010B960E942E05DB
:100E50008C85823009F07CC0CE0101960E942E055F
:100E60008B8180958093EF050E9456020091EF05DB
:100E700010E0081B1109B801012E000C880B990B1A
:100E80000E94D70A4B015C012FE832EC45EF5CE38E
:100E90000E94630B0E94A60A4091F6055091F70547
:100EA0007A01E60EF71EF092F705E092F6058091C2
:100EB000F2059091F3056801C81AD90AD092F50598
:100EC000C092F4051093F3050093F20520910902F6
:100ED00030910A0240910B0250910C02C501B401FD
:100EE0000E94630B4B015C01B701FF0C880B990B4F
:100EF0000E94D70A20910102309102024091030220
:100F0000509104020E94630B9B01AC01C501B40126
:100F10000E94C1094B015C01B601DD0C880B990BE5
:100F20000E94D70A209105023091060240910702E3
:100F3000509108020E94630B9B01AC01C501B401F2
:100F40000E94C1090E949F0A7093F1056093F00509
:100F50008091F0059091F1050E940A0264960FB607
:100F6000F894DEBF0FBECDBFDF91CF911F910F91DF
:100F7000FF90EF90DF90CF90BF90AF909F908F90B9
:100F80000895813009F580E090E0A0E8BFE3809308
:100F9000090290930A02A0930B02B0930C02809373
:100FA000050290930602A0930702B093080280E026
:100FB00090E0A0E4B0E48093010290930202A09339
:100FC0000302B09304020895811124C083E393E3E4
:100FD000A3E3BFE38093090290930A02A0930B025C
:100FE000B0930C0280E090E0A0E0B0E480930502B2
:100FF00090930602A0930702B093080280E090E06D
:10100000A0E4B0E48093010290930202A093030253
:10101000B093040208951F920F920FB60F921124FD
:101020000BB60F922F933F934F935F936F937F93E2
:101030008F939F93AF93BF93EF93FF930E941007FB
:10104000C99A1092A5001092A400FF91EF91BF9150
:10105000AF919F918F917F916F915F914F913F9150
:101060002F910F900BBE0F900FBE0F901F901895F1
:101070006B9AE1E9F0E080818861808380E480936D
:1010800090008081836080830895CF93DF93EA018D
:1010900020E030E040E053E40E94630B9B01AC0190
:1010A00060E074E284E79BE40E942D0A20E030E0D7
:1010B00040E85FE30E94C0090E949F0A7093970076
:1010C00060939600C230D10564F081E090E0E7ECD7
:1010D000F0E03197F1F700C0000001968C179D07F2
:1010E000B1F7DF91CF9108956F927F928F929F9287
:1010F000AF92BF92CF92DF92EF92FF920F931F9326
:10110000CF93DF93CDB7DEB7A8970FB6F894DEBFC5
:101110000FBECDBF009721F0029709F466C0D0C082
:1011200001E914E00F2EFDE2EF2EF5E0FF2EF02D89
:101130000F2EFDE2AF2EF5E0BF2EF02D0F2EF8EEB4
:10114000CF2EF3E0DF2EF02D66246394712CCE01B8
:101150004F960E942E0588A1873079F4CE014596DE
:101160000E942E058F89811108C040E050E060E0A8
:1011700070E0CB010E944508A3C0F8016191719114
:101180008F01C6010E9490094B01F7016191719195
:101190007F01072E000C880B990B0E94D70AA4012F
:1011A0000E944508B401990C880B990B0E94D70A3C
:1011B00026E636E646E050E40E94630B0E949F0A52
:1011C000623071056CF0262D372D8FE99FE0019775
:1011D000F1F700C000002F5F3F4F26173707A9F730
:1011E0000A151B0509F0B3CF6BC00DE012E00F2EFE
:1011F000FFEDEF2EF2E0FF2EF02D0F2EFFEDAF2EC4
:10120000F2E0BF2EF02D0F2EF8EECF2EF3E0DF2E02
:10121000F02D66246394712CCE010B960E942E054E
:101220008C85873079F4CE0101960E942E058B8142
:10123000811108C040E050E060E070E0CB010E9406
:1012400045083EC0F801619171918F01C6010E946D
:1012500090094B01F701619171917F01072E000CFC
:10126000880B990B0E94D70AA4010E944508B4017B
:10127000990C880B990B0E94D70A2DEC3CEC4CE0A2
:1012800050E40E94630B0E949F0A623071056CF06B
:10129000262D372D8FE99FE00197F1F700C0000060
:1012A0002F5F3F4F26173707A9F70A151B0509F0CF
:1012B000B3CF40E050E060E070E0CB010E94450811
:1012C000A8960FB6F894DEBF0FBECDBFDF91CF91C9
:1012D0001F910F91FF90EF90DF90CF90BF90AF9054
:1012E0009F908F907F906F90089520E030E040E0D5
:1012F00053E40E94630B9B01AC0160E074E284E75D
:101300009BE40E942D0A20E030E040E85FE30E9469
:10131000C0090E949F0A70939700609396000895F9
:1013200097FB072E16F4009407D077FD09D00E9492
:10133000AC0907FC05D03EF4909581959F4F089528
:10134000709561957F4F0895EE0FFF1F881F8BBF2B
:101350000790F691E02D1994AA1BBB1B51E107C021
:10136000AA1FBB1FA617B70710F0A61BB70B881F35
:10137000991F5A95A9F780959095BC01CD010895C4
:101380005058BB27AA270E94D8090C94290B0E9409
:101390001B0B38F00E94220B20F039F49F3F19F408
:1013A00026F40C94180B0EF4E095E7FB0C94120B4A
:1013B000E92F0E943A0B58F3BA17620773078407A4
:1013C000950720F079F4A6F50C945C0B0EF4E095EB
:1013D0000B2EBA2FA02D0B01B90190010C01CA01EF
:1013E000A0011124FF27591B99F0593F50F4503E9A
:1013F00068F11A16F040A22F232F342F4427585F8C
:10140000F3CF469537952795A795F0405395C9F7A3
:101410007EF41F16BA0B620B730B840BBAF091505B
:10142000A1F0FF0FBB1F661F771F881FC2F70EC0FA
:10143000BA0F621F731F841F48F4879577956795CD
:10144000B795F7959E3F08F0B0CF9395880F08F0B9
:101450009927EE0F9795879508950E94410A0C945D
:10146000290B0E94220B58F00E941B0B40F029F41C
:101470005F3F29F00C94120B51110C945D0B0C94EE
:10148000180B0E943A0B68F39923B1F3552391F39B
:10149000951B550BBB27AA2762177307840738F0E3
:1014A0009F5F5F4F220F331F441FAA1FA9F335D040
:1014B0000E2E3AF0E0E832D091505040E695001CF4
:1014C000CAF72BD0FE2F29D0660F771F881FBB1FAE
:1014D000261737074807AB07B0E809F0BB0B802D8C
:1014E000BF01FF2793585F4F3AF09E3F510578F0B8
:1014F0000C94120B0C945D0B5F3FE4F3983ED4F315
:10150000869577956795B795F7959F5FC9F7880F8B
:10151000911D9695879597F90895E1E0660F771FDD
:10152000881FBB1F621773078407BA0720F0621B6E
:10153000730B840BBA0BEE1F88F7E09508950E9499
:10154000A60A6894B1110C945D0B08950E94420B99
:1015500088F09F5798F0B92F9927B751B0F0E1F074
:10156000660F771F881F991F1AF0BA95C9F714C024
:10157000B13091F00E945C0BB1E008950C945C0BCB
:10158000672F782F8827B85F39F0B93FCCF386955D
:1015900077956795B395D9F73EF4909580957095BA
:1015A00061957F4F8F4F9F4F0895E89409C097FB37
:1015B0003EF490958095709561957F4F8F4F9F4F2A
:1015C0009923A9F0F92F96E9BB279395F69587956E
:1015D00077956795B795F111F8CFFAF4BB0F11F431
:1015E00060FF1BC06F5F7F4F8F4F9F4F16C08823D8
:1015F00011F096E911C0772321F09EE8872F762F0E
:1016000005C0662371F096E8862F70E060E02AF04E
:101610009A95660F771F881FDAF7880F969587953A
:1016200097F9089597F99F6780E870E060E0089562
:101630009FEF80EC089500240A94161617061806EA
:101640000906089500240A941216130614060506C6
:101650000895092E0394000C11F4882352F0BB0F57
:1016600040F4BF2B11F460FF04C06F5F7F4F8F4FBA
:101670009F4F089557FD9058440F551F59F05F3FF5
:1016800071F04795880F97FB991F61F09F3F79F0A4
:1016900087950895121613061406551FF2CF469526
:1016A000F1DF08C0161617061806991FF1CF8695A8
:1016B0007105610508940895E894BB27662777278C
:1016C000CB0197F908950E94760B0C94290B0E9488
:1016D0001B0B38F00E94220B20F0952311F00C9484
:1016E000120B0C94180B11240C945D0B0E943A0BF6
:1016F00070F3959FC1F3950F50E0551F629FF00165
:10170000729FBB27F00DB11D639FAA27F00DB11D7D
:10171000AA1F649F6627B00DA11D661F829F222706
:10172000B00DA11D621F739FB00DA11D621F839F8D
:10173000A00D611D221F749F3327A00D611D231F63
:10174000849F600D211D822F762F6A2F11249F57B1
:1017500050409AF0F1F088234AF0EE0FFF1FBB1FB4
:10176000661F771F881F91505040A9F79E3F510573
:1017700080F00C94120B0C945D0B5F3FE4F3983EE9
:10178000D4F3869577956795B795F795E7959F5F1D
:10179000C1F7FE2B880F911D9695879597F90895AF
:1017A0000F931F93CF93DF93009731F46115710569
:1017B00019F480E090E03AC08B01EC016EE070E03B
:1017C00081E090E00E942A0EFC01892B91F380E8D1
:1017D00083830115110571F01387028781E88383E4
:1017E0008091FC059091FD05892B21F4F093FD0576
:1017F000E093FC052097C9F0D187C0878381826080
:1018000083838091FE059091FF05892B71F4F093FD
:10181000FF05E093FE058091000690910106892B5B
:1018200021F4F0930106E0930006CF01DF91CF9100
:101830001F910F910895CF93DF93CDB7DEB7AE011F
:101840004A5F5F4FFA0161917191AF018091FE058E
:101850009091FF050E942F0CDF91CF9108952F9258
:101860003F924F925F926F927F928F929F92AF9230
:10187000BF92CF92DF92EF92FF920F931F93CF937D
:10188000DF93CDB7DEB72C970FB6F894DEBF0FBE4F
:10189000CDBF7C016B018A01FC0117821682838116
:1018A00081FFBDC1CE0101964C01F7019381F60184
:1018B00093FD859193FF81916F01882309F4ABC15A
:1018C000853239F493FD859193FF81916F018532C3
:1018D00029F4B70190E00E94900FE7CF512C312CF2
:1018E00020E02032A0F48B3269F030F4803259F0DD
:1018F000833269F420612CC08D3239F0803339F4A1
:10190000216026C02260246023C0286021C027FDFA
:1019100027C030ED380F3A3078F426FF06C0FAE0E1
:101920005F9E300D1124532E13C08AE0389E300D77
:101930001124332E20620CC08E3221F426FD6BC19F
:10194000206406C08C3611F4206802C0883641F449
:10195000F60193FD859193FF81916F018111C1CFB4
:10196000982F9F7D9554933028F40C5F1F4FFFE311
:10197000F9830DC0833631F0833771F0833509F078
:101980005BC022C0F801808189830E5F1F4F442411
:101990004394512C540115C03801F2E06F0E711CB4
:1019A000F801A080B18026FF03C0652D70E002C061
:1019B0006FEF7FEFC5012C870E94850F2C018301FB
:1019C0002C852F77222E17C03801F2E06F0E711C84
:1019D000F801A080B18026FF03C0652D70E002C031
:1019E0006FEF7FEFC5012C870E94730F2C012C85B0
:1019F0002068222E830123FC1BC0832D90E0481613
:101A00005906B0F4B70180E290E00E94900F3A943A
:101A1000F4CFF50127FC859127FE81915F01B70185
:101A200090E00E94900F31103A94F1E04F1A510863
:101A30004114510471F7E5C0843611F0893639F547
:101A4000F80127FF07C060817181828193810C5F5B
:101A50001F4F08C060817181072E000C880B990B05
:101A60000E5F1F4F2F76722E97FF09C090958095BD
:101A7000709561957F4F8F4F9F4F2068722E2AE09F
:101A800030E0A4010E94C80FA82EA81844C08537D2
:101A900029F42F7EB22E2AE030E025C0F22FF97F04
:101AA000BF2E8F36C1F018F4883579F0B4C0803776
:101AB00019F0883721F0AFC02F2F2061B22EB4FE6D
:101AC0000DC08B2D8460B82E09C024FF0AC09F2F43
:101AD0009660B92E06C028E030E005C020E130E075
:101AE00002C020E132E0F801B7FE07C060817181D9
:101AF000828193810C5F1F4F06C06081718180E0FD
:101B000090E00E5F1F4FA4010E94C80FA82EA818D6
:101B1000FB2DFF777F2E76FE0BC0372D3E7FA51461
:101B200050F474FE0AC072FC08C0372D3E7E05C01A
:101B3000BA2C372D03C0BA2C01C0B52C34FF0DC010
:101B4000FE01EA0DF11D8081803311F4397E09C058
:101B500032FF06C0B394B39404C0832F867809F093
:101B6000B39433FD13C030FF06C05A2CB31418F4DD
:101B7000530C5B18B32CB31468F4B70180E290E007
:101B80003C870E94900FB3943C85F5CFB31410F4BA
:101B90003B1801C0312C34FF12C0B70180E390E044
:101BA0003C870E94900F3C8532FF17C031FD03C077
:101BB00088E790E002C088E590E0B7010CC0832F71
:101BC000867859F031FF02C08BE201C080E237FD18
:101BD0008DE2B70190E00E94900FA51438F4B70190
:101BE00080E390E00E94900F5A94F7CFAA94F401FA
:101BF000EA0DF11D8081B70190E00E94900FA110C5
:101C0000F5CF332009F451CEB70180E290E00E9475
:101C1000900F3A94F6CFF7018681978102C08FEF3B
:101C20009FEF2C960FB6F894DEBF0FBECDBFDF91AD
:101C3000CF911F910F91FF90EF90DF90CF90BF90C9
:101C4000AF909F908F907F906F905F904F903F905C
:101C50002F9008950F931F93CF93DF93869F80015A
:101C6000879F100D969F100D1124C8010E94460EEB
:101C7000EC01009729F0A80160E070E00E947E0F5F
:101C8000CE01DF91CF911F910F910895CF93DF93F4
:101C90008230910510F482E090E0E0910406F0912A
:101CA000050620E030E0C0E0D0E0309711F140813F
:101CB000518148175907C0F04817590761F48281CC
:101CC0009381209719F09B838A832BC090930506FC
:101CD0008093040626C02115310519F042175307D9
:101CE00018F49A01BE01DF01EF010280F381E02DBB
:101CF000DCCF2115310509F1281B390B24303105C2
:101D000090F412968D919C9113976115710521F0B5
:101D1000FB019383828304C090930506809304069D
:101D2000FD01329644C0FD01E20FF31F81939193B0
:101D3000225031092D933C933AC0209102063091F4
:101D40000306232B41F42091CB053091CC05309331
:101D50000306209302062091C9053091CA0521157A
:101D6000310541F42DB73EB74091CD055091CE05D8
:101D7000241B350BE0910206F0910306E217F307EE
:101D8000A0F42E1B3F0B2817390778F0AC014E5FEB
:101D90005F4F2417350748F04E0F5F1F509303061F
:101DA000409302068193919302C0E0E0F0E0CF01FE
:101DB000DF91CF9108950F931F93CF93DF930097F7
:101DC00009F48CC0FC013297138212820091040640
:101DD000109105060115110581F420813181820FD2
:101DE000931F20910206309103062817390779F5D1
:101DF000F0930306E093020671C0D80140E050E082
:101E0000AE17BF0750F412962D913C911397AD0178
:101E10002115310509F1D901F3CF9D01DA01338391
:101E2000228360817181860F971F8217930769F45F
:101E3000EC0128813981260F371F2E5F3F4F3183F8
:101E400020838A819B8193838283452B29F4F0939D
:101E50000506E093040642C01396FC93EE93129796
:101E6000ED01499159919E01240F351FE217F307A7
:101E700071F480819181840F951F029611969C9335
:101E80008E938281938113969C938E931297E0E0B8
:101E9000F0E0D80112968D919C911397009719F05C
:101EA000F8018C01F6CF8D919C9198012E5F3F4FE8
:101EB000820F931F209102063091030628173907DD
:101EC00069F4309729F4109205061092040602C0B6
:101ED000138212821093030600930206DF91CF91C2
:101EE0001F910F910895FC01059061507040011001
:101EF000D8F7809590958E0F9F1F0895DC0101C043
:101F00006D9341505040E0F70895FC0161507040DE
:101F100001900110D8F7809590958E0F9F1F08951E
:101F20000F931F93CF93DF93FB01238121FD03C008
:101F30008FEF9FEF28C022FF16C046815781248172
:101F400035814217530744F4A081B1819D012F5F71
:101F50003F4F318320838C93268137812F5F3F4F02
:101F60003783268310C0EB01092F182F0084F185D9
:101F7000E02D1995892BE1F68E819F8101969F8333
:101F80008E83812F902FDF91CF911F910F91089514
:101F9000FA01AA27283051F1203181F1E8946F939A
:101FA0006E7F6E5F7F4F8F4F9F4FAF4FB1E03ED040
:101FB000B4E03CD0670F781F891F9A1FA11D680FDE
:101FC000791F8A1F911DA11D6A0F711D811D911D11
:101FD000A11D20D009F468943F912AE0269F112486
:101FE0003019305D3193DEF6CF010895462F4770EA
:101FF000405D4193B3E00FD0C9F7F6CF462F4F7045
:10200000405D4A3318F0495D31FD4052419302D0A2
:10201000A9F7EACFB4E0A695979587957795679548
:10202000BA95C9F700976105710508959B01AC0148
:102030000A2E06945795479537952795BA95C9F76F
:10204000620F731F841F951FA01D0895F894FFCF82
:10205000F8000040400000803F0000803F0800047E
:10206000000600100004000800080004000600102C
:10207000000400080008000400080008000400082C
:102080000008000400080008000200040006001018
:102090000004000800080004000600100004000806
:1020A00000080004000600100004000600100004F0
:1020B00000060010000800080008000800020008E0
:1020C00000080008000800030008000800080008D5
:1020D00000080002000800080008000800030008CB
:1020E00000080008000800080004000600100004B2
:1020F00000060010000400080008000200020008AA
:1021000000080008000800030008000200020008A0
:102110000008000800080003000800020004000690
:102120000010000400040002000400040001008804
:10213000010B028801B801EE014A014A01B8018889
:10214000015D01880106010601260126014A015DA3
:10215000015D018801B801EE010B024B0293024BB5
:10216000020B024B02EE0188010B02EE01B801EEF8
:10217000014A014A01B80188015D01880106010692
:10218000010B02EE01B8018801EE010B024B029334
:10219000024B020B02EE010B024B0288018801EE9A
:1021A000010B024B020B02EE01B8018801B801EEEF
:1021B000014A014A018801B801EE010B02B801EEA3
:1021C000010B02B801EE010B02B8010B02BA02BA10
:1021D0000293024B020B024B0293020B020B024BC7
:1021E000020B02EE01B801EE010B02B801B8010BBF
:1021F00002EE01B801880106018801B801EE010B69
:10220000020C000C000C000C000C000C000600037B
:10221000000C000C000C000C000C000C000600036D
:10222000000C000C000C000C000C000C000600035D
:10223000000C000C000C000C000C000C000600064A
:10224000001200120012000600060006000600063A
:102250000006001200120012001200120012000A02
:10226000000A000A000A000A000A00030003000333
:102270000006010B02DC00B801E900D201000000F9
:102280000006010B02DC00B801E900D201000000E9
:1022900000AF005D01930026019C003701000000A3
:1022A00000AF005D01930026019C00370100000093
:1022B00000370115012601150137013701D000C48F
:1022C000001501060172015D01A500D201B8019F50
:1022D000013701F700E900DC00D000000000000039
:1022E000000C000C000C000C000C000C000C000C8E
:1022F000000C000C000C000C000C000C000C000C7E
:10230000000C000C000C000C000C000C000C000C6D
:10231000000C000C000C000C000C000C000C000C5D
:10232000000900090009000C000C000C000C000C56
:10233000000C000C000C000C000C000C000C000C3D
:10234000000C000C000C000C000C000C000C000C2D
:10235000000C000C000C000C000C000C000C000920
:1023600000090009000C000C000C000C000C000C13
:10237000000C000C000C000C000C000C004D0A4D71
:102380000A00004D0A00002D084D0A0000400C0014
:10239000000000000020060000000000002D0800E2
:1023A000000000200600000000270500000000E0FB
:1023B000060000B80700004907E006000020064DAF
:1023C0000A400CC00D0000EA0A400C00004D0A0053
:1023D000002D082D09B807000000002D080000009E
:1023E00000200600000000270500000000E00600B5
:1023F00000B80700004907E006000020064D0A402B
:102400000CC00D0000EA0A400C00004D0A00002D2F
:10241000082D09B80700000000000006062000543F
:062420006573740A0D0053
:00000001FF
