:100000000C9476000C9451020C9497000C94970079
:100010000C9497000C9497000C9497000C94970004
:100020000C9497000C9497000C9497000C949700F4
:100030000C9497000C9497000C9497000C949700E4
:100040000C9497000C9497000C9497000C949700D4
:100050000C9497000C9497000C9497000C949700C4
:100060000C9497000C9497000C9497000C949700B4
:100070000C9497000C9497000C9497000C949700A4
:100080000C9497000C9497000C9497000C94970094
:100090000C9497000C9497000C9497000C94970084
:1000A0000C9497000C9497000C9497000C94970074
:1000B0000C9497000C9497000C9497000C94970064
:1000C0000C9497000C9497000C9497000C94970054
:1000D0000C9497000C9497000C9497000C94970044
:1000E0000C9497000C940B010C94030111241FBE77
:1000F000CFEFD1E2DEBFCDBF00E00CBF12E0A0E049
:10010000B2E0E4E5FEE000E00BBF02C007900D9214
:10011000AC34B107D9F722E0ACE4B2E001C01D92E3
:10012000A635B207E1F70E9499000C9428070C94B9
:100130000000CF93DF93CDB7DEB72A970FB6F894C0
:10014000DEBF0FBECDBFF8940E941E010E949C012D
:100150000E948C02772473940F2EF6E08F2EF2E02B
:100160009F2EF02D0F2EF8E2AF2EF2E0BF2EF02DD5
:100170000F2EF2E2EF2EF2E0FF2EF02DCE010196CF
:100180000E94F101C9808A818130C1F70C2D10E0F5
:100190001F92CF921F927F929F928F920E941D0377
:1001A000BF92AF920E941D030FB6F894DEBF0FBE40
:1001B000CDBF10161106ECF48E010D5F1F4FD12C30
:1001C00092E0C90ED11CE1E0F0E0EC0FFD1FCE0E75
:1001D000DF1EF80181918F011F928F93FF92EF92A2
:1001E0000E941D030F900F900F900F900C151D058E
:1001F00081F7FFEF23EC89E0F15020408040E1F7E8
:1002000000C00000BBCFE0ECF0E0908195FFFDCF97
:100210008093C6000895E0ECF0E080818823ECF73D
:100220008091C60008959093C5008093C40088E132
:100230008093C1008EE08093C200089587E690E02D
:100240000E9413016BE071E083E091E00E94D20212
:10025000089584B1876884B98CB581658CBD089593
:100260008EBD0DB407FEFDCF8EB50895CF93C82F78
:100270002F9883E00E9430018C2F0E9430018FEF75
:100280000E9430012F9ACF910895CF93DF93D82FFA
:10029000C62F2F9882E00E9430018D2F0E943001DE
:1002A0008C2F0E9430012F9ADF91CF9108952F98C3
:1002B000813051F028F0823059F0833069F00FC05E
:1002C00081E80E9430010BC082E80E94300107C023
:1002D00084E80E94300103C087E80E9430012F9A11
:1002E000089580EA0E94360108951F93CF93DF930B
:1002F000182FD62FC42F2F9885E00E943001812F10
:100300000E9430018D2F0E9430018C2F0E943001FD
:100310002F9ADF91CF911F9108952F9880EC0E9422
:1003200030012F9A08950E9429010E948D0160E0FA
:100330008FE00E94450108950E94930160E08FE0E4
:100340000E94450160E680E60E94450141E061E0CF
:100350008BE20E94750140E061E08CE20E94750131
:10036000E9E6F0E0808182608083E89AE09A08956F
:10037000EF92FF920F931F93CF93DF937C0160E086
:1003800081E30E944501F70161816295660F607EFD
:1003900082E30E944501F701608185E30E944501E7
:1003A000F7018081882399F087010E5F1F4FC0E01D
:1003B000D0E0F80161918F018C2F8A5C0E94450189
:1003C0002196F701208130E0C217D30794F380E033
:1003D0000E945701DF91CF911F910F91FF90EF90F5
:1003E00008959F92AF92BF92CF92DF92EF92FF92C9
:1003F0000F931F93CF93DF93CDB7DEB72A970FB636
:10040000F894DEBF0FBECDBF5C0185E60E943601C9
:10041000982E81E60E943601182F82E60E9436014E
:10042000829586958770169516951695082F010F5B
:100430009920A9F07E0183E0E80EF11C9E01290DB0
:10044000311DF90133966F0116E6812F0E943601A6
:10045000F70181937F011F5FEC15FD05B1F740E0C7
:1004600061E08CE20E94750199820A838AE0FE01B4
:100470003196D50101900D928A95E1F7C5012A9632
:100480000FB6F894DEBF0FBECDBFDF91CF911F91A5
:100490000F91FF90EF90DF90CF90BF90AF909F9023
:1004A00008951F920F920FB60F9211240BB60F9260
:1004B0002F933F934F935F936F937F938F939F936C
:1004C000AF93BF93EF93FF93CF93DF93CDB7DEB797
:1004D0002A97DEBFCDBFF894CE0101960E94F101AC
:1004E00078942A960FB6F894DEBF0FBECDBFDF9189
:1004F000CF91FF91EF91BF91AF919F918F917F919C
:100500006F915F914F913F912F910F900BBE0F9084
:100510000FBE0F901F901895E0E8F0E080818A6090
:100520008083E1E8F0E080818A61808380E49CE957
:10053000909387008093860088EB9BE090938D00DA
:1005400080938C0016BA279A08950F931F938B01FE
:100550009C01085017402109310901361940210535
:10056000310568F470938D0060938C008FE292E007
:100570009F938F930E941D030F900F9010C09F9325
:100580008F937F936F9389E392E09F938F930E9461
:100590001D030F900F900F900F900F900F901F91D1
:1005A0000F9108950F931F93CF93DF93009731F42A
:1005B0006115710519F480E090E03AC08B01EC01FF
:1005C0006EE070E081E090E00E942C05FC01892B38
:1005D00091F380E883830115110571F01387028779
:1005E00081E8838380914C0290914D02892B21F404
:1005F000F0934D02E0934C022097C9F0D187C08759
:1006000083818260838380914E0290914F02892B77
:1006100071F4F0934F02E0934E028091500290915A
:100620005102892B21F4F0935102E0935002CF0143
:10063000DF91CF911F910F910895CF93DF93CDB7A5
:10064000DEB7AE014A5F5F4FFA0161917191AF0170
:1006500080914E0290914F020E943103DF91CF9121
:1006600008952F923F924F925F926F927F928F9256
:100670009F92AF92BF92CF92DF92EF92FF920F9331
:100680001F93CF93DF93CDB7DEB72C970FB6F894B7
:10069000DEBF0FBECDBF7C016B018A01FC0117825A
:1006A0001682838181FFBDC1CE0101964C01F70105
:1006B0009381F60193FD859193FF81916F018823CA
:1006C00009F4ABC1853239F493FD859193FF819193
:1006D0006F01853229F4B70190E00E949206E7CFBE
:1006E000512C312C20E02032A0F48B3269F030F410
:1006F000803259F0833269F420612CC08D3239F098
:10070000803339F4216026C02260246023C0286031
:1007100021C027FD27C030ED380F3A3078F426FF8E
:1007200006C0FAE05F9E300D1124532E13C08AE0FC
:10073000389E300D1124332E20620CC08E3221F4ED
:1007400026FD6BC1206406C08C3611F4206802C0FF
:10075000883641F4F60193FD859193FF81916F01F5
:100760008111C1CF982F9F7D9554933028F40C5F51
:100770001F4FFFE3F9830DC0833631F0833771F0EB
:10078000833509F05BC022C0F801808189830E5F48
:100790001F4F44244394512C540115C03801F2E0FA
:1007A0006F0E711CF801A080B18026FF03C0652D7B
:1007B00070E002C06FEF7FEFC5012C870E948706B3
:1007C0002C0183012C852F77222E17C03801F2E0EF
:1007D0006F0E711CF801A080B18026FF03C0652D4B
:1007E00070E002C06FEF7FEFC5012C870E94750695
:1007F0002C012C852068222E830123FC1BC0832D15
:1008000090E048165906B0F4B70180E290E00E94EB
:1008100092063A94F4CFF50127FC859127FE819149
:100820005F01B70190E00E94920631103A94F1E026
:100830004F1A51084114510471F7E5C0843611F084
:10084000893639F5F80127FF07C0608171818281FF
:1008500093810C5F1F4F08C060817181072E000CCF
:10086000880B990B0E5F1F4F2F76722E97FF09C0D2
:1008700090958095709561957F4F8F4F9F4F206821
:10088000722E2AE030E0A4010E94CA06A82EA81801
:1008900044C0853729F42F7EB22E2AE030E025C0EF
:1008A000F22FF97FBF2E8F36C1F018F4883579F01A
:1008B000B4C0803719F0883721F0AFC02F2F2061E6
:1008C000B22EB4FE0DC08B2D8460B82E09C024FF5B
:1008D0000AC09F2F9660B92E06C028E030E005C000
:1008E00020E130E002C020E132E0F801B7FE07C0AD
:1008F00060817181828193810C5F1F4F06C060818E
:10090000718180E090E00E5F1F4FA4010E94CA0633
:10091000A82EA818FB2DFF777F2E76FE0BC0372D53
:100920003E7FA51450F474FE0AC072FC08C0372D37
:100930003E7E05C0BA2C372D03C0BA2C01C0B52CA1
:1009400034FF0DC0FE01EA0DF11D8081803311F4EA
:10095000397E09C032FF06C0B394B39404C0832F1C
:10096000867809F0B39433FD13C030FF06C05A2CCB
:10097000B31418F4530C5B18B32CB31468F4B70118
:1009800080E290E03C870E949206B3943C85F5CFCC
:10099000B31410F43B1801C0312C34FF12C0B7015E
:1009A00080E390E03C870E9492063C8532FF17C0AE
:1009B00031FD03C088E790E002C088E590E0B70110
:1009C0000CC0832F867859F031FF02C08BE201C042
:1009D00080E237FD8DE2B70190E00E949206A514F7
:1009E00038F4B70180E390E00E9492065A94F7CF62
:1009F000AA94F401EA0DF11D8081B70190E00E94F4
:100A00009206A110F5CF332009F451CEB70180E250
:100A100090E00E9492063A94F6CFF7018681978182
:100A200002C08FEF9FEF2C960FB6F894DEBF0FBE7B
:100A3000CDBFDF91CF911F910F91FF90EF90DF908D
:100A4000CF90BF90AF909F908F907F906F905F906E
:100A50004F903F902F9008950F931F93CF93DF9364
:100A6000869F8001879F100D969F100D1124C8014D
:100A70000E944805EC01009729F0A80160E070E0B1
:100A80000E948006CE01DF91CF911F910F910895B2
:100A9000CF93DF938230910510F482E090E0E091F3
:100AA0005402F091550220E030E0C0E0D0E03097F1
:100AB00011F14081518148175907C0F04817590773
:100AC00061F482819381209719F09B838A832BC0E4
:100AD000909355028093540226C02115310519F0D8
:100AE0004217530718F49A01BE01DF01EF0102809B
:100AF000F381E02DDCCF2115310509F1281B390BDD
:100B00002430310590F412968D919C9113976115C4
:100B1000710521F0FB019383828304C090935502F9
:100B200080935402FD01329644C0FD01E20FF31F91
:100B300081939193225031092D933C933AC0209197
:100B4000520230915302232B41F420910202309142
:100B500003023093530220935202209100023091FD
:100B600001022115310541F42DB73EB74091040231
:100B700050910502241B350BE0915202F091530273
:100B8000E217F307A0F42E1B3F0B2817390778F064
:100B9000AC014E5F5F4F2417350748F04E0F5F1FC3
:100BA00050935302409352028193919302C0E0E02C
:100BB000F0E0CF01DF91CF9108950F931F93CF9372
:100BC000DF93009709F48CC0FC01329713821282E4
:100BD00000915402109155020115110581F42081F4
:100BE0003181820F931F20915202309153022817B6
:100BF000390779F5F0935302E093520271C0D8019E
:100C000040E050E0AE17BF0750F412962D913C9192
:100C10001397AD012115310509F1D901F3CF9D01DC
:100C2000DA013383228360817181860F971F8217D7
:100C3000930769F4EC0128813981260F371F2E5F55
:100C40003F4F318320838A819B8193838283452B0D
:100C500029F4F0935502E093540242C01396FC939A
:100C6000EE931297ED01499159919E01240F351F82
:100C7000E217F30771F480819181840F951F02962A
:100C800011969C938E938281938113969C938E935D
:100C90001297E0E0F0E0D80112968D919C911397A5
:100CA000009719F0F8018C01F6CF8D919C91980175
:100CB0002E5F3F4F820F931F2091520230915302BB
:100CC0002817390769F4309729F4109255021092C9
:100CD000540202C0138212821093530200935202F4
:100CE000DF91CF911F910F910895FC010590615004
:100CF00070400110D8F7809590958E0F9F1F089532
:100D0000DC0101C06D9341505040E0F70895FC01B3
:100D10006150704001900110D8F7809590958E0F2A
:100D20009F1F08950F931F93CF93DF93FB012381A0
:100D300021FD03C08FEF9FEF28C022FF16C0468120
:100D40005781248135814217530744F4A081B18132
:100D50009D012F5F3F4F318320838C932681378104
:100D60002F5F3F4F3783268310C0EB01092F182FC9
:100D70000084F185E02D1995892BE1F68E819F8104
:100D800001969F838E83812F902FDF91CF911F91AA
:100D90000F910895FA01AA27283051F1203181F1ED
:100DA000E8946F936E7F6E5F7F4F8F4F9F4FAF4F73
:100DB000B1E03ED0B4E03CD0670F781F891F9A1F86
:100DC000A11D680F791F8A1F911DA11D6A0F711D3A
:100DD000811D911DA11D20D009F468943F912AE046
:100DE000269F11243019305D3193DEF6CF0108952E
:100DF000462F4770405D4193B3E00FD0C9F7F6CF5F
:100E0000462F4F70405D4A3318F0495D31FD405226
:100E1000419302D0A9F7EACFB4E0A69597958795BC
:100E200077956795BA95C9F700976105710508959B
:100E30009B01AC010A2E0694579547953795279547
:100E4000BA95C9F7620F731F841F951FA01D0895DF
:040E5000F894FFCF44
:100E54000000560220004D657373616765204944A4
:100E64003A2025642020202020204C656E67746879
:100E74003A202564200A0D00446174613A20005729
:100E84006F726B696E670A0D006E6F7420776F72F4
:0C0E94006B696E673A2025640A0D0000AF
:00000001FF
