:100000000C94D5000C94F6000C94F6000C94F704B4
:100010000C94F6000C94F6000C94F6000C94F60088
:100020000C94F6000C94F6000C94F6000C94F60078
:100030000C94F6000C94F6000C94F6000C94F60068
:100040000C94F6000C9462050C94F6000C94F600E7
:100050000C94F6000C94F6000C94F6000C94F60048
:100060000C94F6000C94F6000C94F6000C94F60038
:100070000C94F6000C9426060C94F6000C94F600F2
:100080000C94F6000C94F6000C94F6000C94FB060D
:100090000C94F6000C94F6000C94F6000C94A30358
:1000A0000C94F6000C94F6000C94F6000C94F600F8
:1000B0000C94F6000C94F6000C94F6000C94F600E8
:1000C0000C94F6000C94F6000C94F6000C94F600D8
:1000D0000C94F6000C94F6000C94F6000C94F600C8
:1000E0000C94F600C203140414041404140414043D
:1000F00014041404C2031404140414041404140493
:1001000014041404C4031404140414041404140480
:10011000140414041404140414041404140414041F
:1001200014041404C4031404140414041404140460
:1001300014041404140414041404140414041404FF
:1001400014041404100414041404140414041404F3
:1001500014041404ED031404140414041404140407
:1001600014041404140414041404140414041404CF
:1001700014041404E10314041404140414041404F3
:1001800014041404FF030C94ED030C94E1030C9489
:1001900014040C9410040C94C2030C94C4030C9427
:1001A000FF030C9496010C948E0111241FBECFEF17
:1001B000D1E2DEBFCDBF00E00CBF12E0A0E0B2E0B4
:1001C000EAEEFAE100E00BBF02C007900D92A839F9
:1001D000B107D9F722E0A8E9B2E001C01D92A23C24
:1001E000B207E1F70E9426010C94730D0C94F800FD
:1001F0001F920F920FB60F9211240BB60F922F93EE
:100200003F934F935F936F937F938F939F93AF939E
:10021000BF93EF93FF9383E192E09F938F930E94AC
:1002200068090F900F90FF91EF91BF91AF919F914F
:100230008F917F916F915F914F913F912F910F908F
:100240000BBE0F900FBE0F901F901895CF93DF93AA
:10025000CDB7DEB7A8970FB6F894DEBF0FBECDBFFF
:10026000F8940E94A9010E942A040E9439050E9464
:100270007C050E949405789418A281E08F8F88E015
:1002800089A38DE192E09F938F930E9468090F905C
:100290000F9000E010E0AA24A394B12CC12CD12C23
:1002A0000F2EF1E4EF2EF2E0FF2EF02D01151105D7
:1002B00021F001301105D1F0F9CFCE0145960E9411
:1002C000EE048E8981110DC0CE010B960E94EE04C2
:1002D0009A2D8B2D2D85213011F09C2D8D2D092FE0
:1002E000182FCE0101960E94EE04E0CFFF92EF920C
:1002F0000E9468090E94C9052FEF81EE94E0215009
:1003000080409040E1F700C00000CE014F960E946F
:100310004F040F900F900C2D1D2DC8CFE0ECF0E096
:10032000908195FFFDCF8093C6000895E0ECF0E04A
:1003300080818823ECF78091C60008959093C500D2
:100340008093C40088E18093C1008EE08093C20056
:10035000089587E690E00E949E0166E971E08EE8CC
:1003600091E00E941D090895CF93DF9300D0CDB78F
:10037000DEB78456682F3AF46195E2E0F1E08081BF
:100380008D7F808309C0803134F0E2E0F1E080812C
:100390008260808301C060E080E589831A82062E36
:1003A000000C770B880B990B0E94240823E333E39E
:1003B00043E250E40E94B0080E94EC076B8363E0C4
:1003C000CE0101960E944E030F900F900F90DF9187
:1003D000CF910895CF93DF9300D0CDB7DEB7181635
:1003E000190634F4E2E0F1E020812D7F208308C07B
:1003F000919581959109E2E0F1E0208122602083CE
:1004000090E599831A828B8363E0CE0101960E9466
:100410004E030F900F900F90DF91CF910895E2E07F
:10042000F1E080818F7D80838081877F80838FEA68
:1004300094E00197F1F700C00000A6E0B1E02C9134
:100440008081886080838FEA94E00197F1F700C093
:1004500000008C9190819062908390E0922B08959F
:100460000E940F028C3023E2920710F08BE093E29F
:10047000BC0180E090E00E94220822E538EB4CE0CD
:1004800052E40E947A070E94F3076F3F710509F05A
:1004900010F4862F08958FEF0895E2E0F1E0808157
:1004A0008F7B80838FE193E00197F1F700C000001C
:1004B00080818064808308950E943803E1E0F1E048
:1004C000808180618083A0E0B1E08C9180618C9319
:1004D0008081826080838081886080838081806267
:1004E0008083808180648083E7E0F1E080818F7782
:1004F000808380818F7B808380818F7D80838081DA
:100500008F7E80838081877F808380818B7F8083C3
:1005100080818D7F808380818E7F80830E944D02C9
:100520000895CF93DF9300D0CDB7DEB7E2E0F1E0DE
:1005300080818260808380E589831A8284E68B8350
:1005400063E0CE0101960E944E032FEF8DE399E404
:10055000215080409040E1F700C000001B8263E022
:10056000CE0101960E944E032FEF83EC99E02150BB
:1005700080409040E1F700C000000E944D020F90C3
:100580000F900F90DF91CF91089584B1876884B95F
:100590008CB581658CBD08958EBD0DB407FEFDCF71
:1005A0008EB50895CF93C82F2F9883E00E94CC0278
:1005B0008C2F0E94CC028FEF0E94CC022F9ACF91F9
:1005C0000895CF93DF93D82FC62F2F9882E00E94F3
:1005D000CC028D2F0E94CC028C2F0E94CC022F9A2D
:1005E000DF91CF9108952F98813051F028F082301B
:1005F00059F0833069F00FC081E80E94CC020BC033
:1006000082E80E94CC0207C084E80E94CC0203C0AA
:1006100087E80E94CC022F9A089580EA0E94D202B5
:1006200008951F93CF93DF93182FD62FC42F2F98A1
:1006300085E00E94CC02812F0E94CC028D2F0E9467
:10064000CC028C2F0E94CC022F9ADF91CF911F9168
:1006500008952F9880EC0E94CC022F9A08950E9452
:10066000C5020E94290360E08FE00E94E102089524
:100670008CE08093B8008FEF8093BB0084E0809380
:10068000BC0008958091BC0081700895ECEBF0E00F
:10069000808180FDFDCF809100020895CF93DF938C
:1006A000EC01ECEBF0E0908190FDFDCF60939A02BD
:1006B000988190939B0290FD13C0623088F0FE01F8
:1006C0003196ACE9B2E06250262F30E02E5F3F4F0A
:1006D000CE01820F931F21912D93E817F907D9F7C7
:1006E0001092980288EF8093000285EA8093BC0004
:1006F000DF91CF910895ECEBF0E0808180FDFDCF9C
:100700001092980288EF8093000285EA8093BC00E3
:100710000895ECEBF0E0208120FDFDCF20919802C0
:1007200020FF0DC0662359F02BE932E0A82FB92F26
:10073000F90181918D938E2F821B8617D0F38091C2
:100740009802817008951F920F920FB60F92112494
:100750000BB60F922F933F938F939F93AF93BF93BB
:10076000EF93FF93E091B9008E2F90E0FC01389752
:10077000E135F10508F058C08827EE58FF4F8F4F3C
:100780000C94050710929902E091990280919A02C7
:10079000E81770F481E08E0F80939902F0E0E5563F
:1007A000FD4F80818093BB0085E88093BC0043C0EF
:1007B0008091980281608093980284E98093BC00C4
:1007C0003AC0E091990281E08E0F80939902809166
:1007D000BB00F0E0E556FD4F80832091990230E0A8
:1007E00080919A0290E001972817390724F485EC4C
:1007F0008093BC0020C085E88093BC001CC0809121
:10080000BB00E0919902F0E0E556FD4F80838091B6
:10081000980281608093980284E98093BC000BC0A9
:1008200085EA8093BC0007C08091B90080930002E4
:1008300084E08093BC00FF91EF91BF91AF919F91B5
:100840008F913F912F910F900BBE0F900FBE0F9085
:100850001F901895E9E6F0E080818F7E808380818B
:1008600080628083EA9AE29A0E942F0340E060EE61
:100870008FE00E94110360E680E60E94E10243E0FF
:1008800063E08BE20E94110340E063E08CE20E948F
:100890001103EFE9F2E088E0818382830895EF920B
:1008A000FF920F931F93CF93DF937C0160E081E36E
:1008B0000E94E102F70161816295660F607E82E32A
:1008C0000E94E102F701608185E30E94E102F701E5
:1008D00080818823C9F087010E5F1F4FC0E0D0E000
:1008E000F80161918F018C2F8A5C0E94E1028FE9EF
:1008F0009FE00197F1F700C000002196F7012081E9
:1009000030E0C217D30764F380E00E94F302DF9166
:10091000CF911F910F91FF90EF9008959F92AF920A
:10092000BF92CF92DF92EF92FF920F931F93CF93DC
:10093000DF93CDB7DEB72A970FB6F894DEBF0FBEB0
:10094000CDBF5C0185E60E94D202982E81E60E940E
:10095000D202182F82E60E94D20282958695877075
:10096000169516951695082F010F9920A9F07E016E
:1009700083E0E80EF11C9E01290D311DF90133962B
:100980006F0116E6812F0E94D202F70181937F0149
:100990001F5FEC15FD05B1F740E061E08CE20E94BD
:1009A000110399820A838AE0FE013196D5010190F4
:1009B0000D928A95E1F7C5012A960FB6F894DEBF2D
:1009C0000FBECDBFDF91CF911F910F91FF90EF90A0
:1009D000DF90CF90BF90AF909F9008952AE0EFE90D
:1009E000F2E0DC0101900D922A95E1F708951F9243
:1009F0000F920FB60F9211240BB60F922F933F93C5
:100A00004F935F936F937F938F939F93AF93BF9316
:100A1000EF93FF93CF93DF93CDB7DEB72A97DEBF77
:100A2000CDBFCE0101960E948E048AE0FE01319670
:100A3000AFE9B2E001900D928A95E1F72A960FB6E0
:100A4000F894DEBF0FBECDBFDF91CF91FF91EF9144
:100A5000BF91AF919F918F917F916F915F914F91D6
:100A60003F912F910F900BBE0F900FBE0F901F90D4
:100A70001895E0E8F0E0808182628083E1E8F0E0B0
:100A800080818A61808380E49CE9909387008093D1
:100A9000860088EB9BE090938B0080938A00EFE6C2
:100AA000F0E0808182608083B19A269A08959C014B
:100AB000285037402136394020F490938B008093A2
:100AC0008A0008951F920F920FB60F921124B19AC7
:100AD0000F900FBE0F901F90189590E09C01220F71
:100AE000331F820F931F880F991F880F991F885FEC
:100AF000984F0E9457050895EAE7F0E080818068EA
:100B000080838081876080838098ACE7B0E08C919F
:100B10008F778C938C9180648C93808188608083A4
:100B200080818F7E80830895259A2D98089524E0F2
:100B300030E040E050E0EAE7F0E0A8E7B0E0808194
:100B4000806480838091AF029091B002892BD1F3B1
:100B50001092B0021092AF028D919C911197480FA4
:100B6000591F2150310959F7CA0199230CF40396F2
:100B7000959587959595879508952D9A2FEF81EEF8
:100B800094E0215080409040E1F700C000002D9893
:100B900008950F931F93CF93DF93CDB7DEB76E9772
:100BA0000FB6F894DEBF0FBECDBF0E945C020E945C
:100BB00091020E943A0603E210E01093AA02009309
:100BC000A902CE010B960E94EE048C85823039F486
:100BD000CE0101960E94EE048B810E9446062FEF03
:100BE00089EF90E0215080409040E1F700C0000084
:100BF0008091A9029091AA024997F8F61E8A81E095
:100C00008D8B1F8ACE0145960E944F0482E592E0AB
:100C10009F938F930E94680988EB9BE00E94570581
:100C20002FEF83EC99E0215080409040E1F700C025
:100C300000000F900F906E960FB6F894DEBF0FBEB7
:100C4000CDBFDF91CF911F910F9108951F920F9209
:100C50000FB60F9211248F939F9381E090E09093B1
:100C6000B0028093AF029F918F910F900FBE0F90B3
:100C70001F901895E1E9F0E0808182608083E1E7D0
:100C8000F0E0808181608083C09A08958F929F9266
:100C9000AF92BF92CF92DF92EF92FF920F931F938A
:100CA000CF93DF93D82ED0940E943002C82ECD2D42
:100CB000D0E0C81BD1098091B7028F5F8093B70243
:100CC0009E012A5F3F4F2D30310510F0883231F4FC
:100CD0001092B6021092B5021092B7020091B502BE
:100CE0001091B6020C0F1D1F1093B6020093B502AF
:100CF0008091B1029091B2027E01E81AF90AF09255
:100D0000B402E092B302D093B202C093B102BE012A
:100D10000D2E000C880B990B0E94240820910902CB
:100D200030910A0240910B0250910C020E94B008CF
:100D30004B015C01B801110F880B990B0E9424082C
:100D4000209101023091020240910302509104026D
:100D50000E94B0089B01AC01C501B4010E940E07BE
:100D60004B015C01B701FF0C880B990B0E94240812
:100D7000209105023091060240910702509108022D
:100D80000E94B0089B01AC01C501B4010E940E078E
:100D90000E94EC07062F062E000C110BDF93CF9359
:100DA0001F92CF921F92DF921F936F9387E692E07C
:100DB0009F938F930E946809C80182509F4F2DB75F
:100DC0003EB7265F3F4F0FB6F8943EBF0FBE2DBF14
:100DD0008D3F914018F4C8010E94EA01DF91CF9144
:100DE0001F910F91FF90EF90DF90CF90BF90AF9049
:100DF0009F908F9008951F920F920FB60F9211241B
:100E00000F900FBE0F901F901895EE0FFF1F881FB9
:100E10008BBF0790F691E02D19945058BB27AA2755
:100E20000E9425070C9476080E94680838F00E94FA
:100E30006F0820F039F49F3F19F426F40C946508EC
:100E40000EF4E095E7FB0C945F08E92F0E948708F9
:100E500058F3BA17620773078407950720F079F4EF
:100E6000A6F50C94A9080EF4E0950B2EBA2FA02D30
:100E70000B01B90190010C01CA01A0011124FF2747
:100E8000591B99F0593F50F4503E68F11A16F04042
:100E9000A22F232F342F4427585FF3CF4695379541
:100EA0002795A795F0405395C9F77EF41F16BA0B06
:100EB000620B730B840BBAF09150A1F0FF0FBB1FB4
:100EC000661F771F881FC2F70EC0BA0F621F731FFD
:100ED000841F48F4879577956795B795F7959E3F5A
:100EE00008F0B0CF9395880F08F09927EE0F9795EB
:100EF000879508950E948E070C9476080E946F08CB
:100F000058F00E94680840F029F45F3F29F00C94E3
:100F10005F0851110C94AA080C9465080E94870878
:100F200068F39923B1F3552391F3951B550BBB2718
:100F3000AA2762177307840738F09F5F5F4F220F5D
:100F4000331F441FAA1FA9F335D00E2E3AF0E0E854
:100F500032D091505040E695001CCAF72BD0FE2F9E
:100F600029D0660F771F881FBB1F26173707480732
:100F7000AB07B0E809F0BB0B802DBF01FF279358EA
:100F80005F4F3AF09E3F510578F00C945F080C9447
:100F9000AA085F3FE4F3983ED4F38695779567956A
:100FA000B795F7959F5FC9F7880F911D969587951F
:100FB00097F90895E1E0660F771F881FBB1F62173E
:100FC00073078407BA0720F0621B730B840BBA0BFC
:100FD000EE1F88F7E09508950E94F3076894B11119
:100FE0000C94AA0808950E948F0888F09F5798F0E3
:100FF000B92F9927B751B0F0E1F0660F771F881F1E
:10100000991F1AF0BA95C9F714C0B13091F00E9437
:10101000A908B1E008950C94A908672F782F8827B4
:10102000B85F39F0B93FCCF3869577956795B3955E
:10103000D9F73EF490958095709561957F4F8F4FCD
:101040009F4F0895E89409C097FB3EF490958095D2
:10105000709561957F4F8F4F9F4F9923A9F0F92F7E
:1010600096E9BB279395F695879577956795B795FC
:10107000F111F8CFFAF4BB0F11F460FF1BC06F5FE2
:101080007F4F8F4F9F4F16C0882311F096E911C0F4
:10109000772321F09EE8872F762F05C0662371F015
:1010A00096E8862F70E060E02AF09A95660F771F29
:1010B000881FDAF7880F9695879597F9089597F91D
:1010C0009F6780E870E060E008959FEF80EC0895EE
:1010D00000240A9416161706180609060895002417
:1010E0000A9412161306140605060895092E039491
:1010F000000C11F4882352F0BB0F40F4BF2B11F405
:1011000060FF04C06F5F7F4F8F4F9F4F089557FD63
:101110009058440F551F59F05F3F71F04795880F65
:1011200097FB991F61F09F3F79F0879508951216FC
:1011300013061406551FF2CF4695F1DF08C01616A8
:1011400017061806991FF1CF869571056105089459
:101150000895E894BB2766277727CB0197F9089570
:101160000E94C3080C9476080E94680838F00E9418
:101170006F0820F0952311F00C945F080C9465081B
:1011800011240C94AA080E94870870F3959FC1F35C
:10119000950F50E0551F629FF001729FBB27F00D25
:1011A000B11D639FAA27F00DB11DAA1F649F66277A
:1011B000B00DA11D661F829F2227B00DA11D621FC9
:1011C000739FB00DA11D621F839FA00D611D221F83
:1011D000749F3327A00D611D231F849F600D211D67
:1011E000822F762F6A2F11249F5750409AF0F1F0EA
:1011F00088234AF0EE0FFF1FBB1F661F771F881F53
:1012000091505040A9F79E3F510580F00C945F0823
:101210000C94AA085F3FE4F3983ED4F38695779543
:101220006795B795F795E7959F5FC1F7FE2B880FF8
:10123000911D9695879597F908950F931F93CF93D6
:10124000DF93009731F46115710519F480E090E0A7
:101250003AC08B01EC016EE070E081E090E00E940A
:10126000770BFC01892B91F380E88383011511052D
:1012700071F01387028781E883838091B80290918F
:10128000B902892B21F4F093B902E093B8022097B8
:10129000C9F0D187C0878381826083838091BA023D
:1012A0009091BB02892B71F4F093BB02E093BA02D8
:1012B0008091BC029091BD02892B21F4F093BD0274
:1012C000E093BC02CF01DF91CF911F910F91089560
:1012D000CF93DF93CDB7DEB7AE014A5F5F4FFA0120
:1012E00061917191AF018091BA029091BB020E940D
:1012F0007C09DF91CF9108952F923F924F925F9298
:101300006F927F928F929F92AF92BF92CF92DF9215
:10131000EF92FF920F931F93CF93DF93CDB7DEB77A
:101320002C970FB6F894DEBF0FBECDBF7C016B01CA
:101330008A01FC0117821682838181FFBDC1CE0123
:1013400001964C01F7019381F60193FD859193FF7E
:1013500081916F01882309F4ABC1853239F493FD83
:10136000859193FF81916F01853229F4B70190E057
:101370000E94DD0CE7CF512C312C20E02032A0F46C
:101380008B3269F030F4803259F0833269F4206195
:101390002CC08D3239F0803339F4216026C02260B0
:1013A000246023C0286021C027FD27C030ED380FFE
:1013B0003A3078F426FF06C0FAE05F9E300D112423
:1013C000532E13C08AE0389E300D1124332E206234
:1013D0000CC08E3221F426FD6BC1206406C08C3611
:1013E00011F4206802C0883641F4F60193FD85911E
:1013F00093FF81916F018111C1CF982F9F7D9554EB
:10140000933028F40C5F1F4FFFE3F9830DC0833640
:1014100031F0833771F0833509F05BC022C0F801E9
:10142000808189830E5F1F4F44244394512C5401C3
:1014300015C03801F2E06F0E711CF801A080B18078
:1014400026FF03C0652D70E002C06FEF7FEFC5017E
:101450002C870E94D20C2C0183012C852F77222E01
:1014600017C03801F2E06F0E711CF801A080B18046
:1014700026FF03C0652D70E002C06FEF7FEFC5014E
:101480002C870E94C00C2C012C852068222E830101
:1014900023FC1BC0832D90E048165906B0F4B70119
:1014A00080E290E00E94DD0C3A94F4CFF50127FC35
:1014B000859127FE81915F01B70190E00E94DD0CCC
:1014C00031103A94F1E04F1A51084114510471F768
:1014D000E5C0843611F0893639F5F80127FF07C0D9
:1014E00060817181828193810C5F1F4F08C0608190
:1014F0007181072E000C880B990B0E5F1F4F2F7602
:10150000722E97FF09C090958095709561957F4FD9
:101510008F4F9F4F2068722E2AE030E0A4010E9476
:10152000150DA82EA81844C0853729F42F7EB22E99
:101530002AE030E025C0F22FF97FBF2E8F36C1F0B0
:1015400018F4883579F0B4C0803719F0883721F065
:10155000AFC02F2F2061B22EB4FE0DC08B2D846042
:10156000B82E09C024FF0AC09F2F9660B92E06C06E
:1015700028E030E005C020E130E002C020E132E0A8
:10158000F801B7FE07C060817181828193810C5F91
:101590001F4F06C06081718180E090E00E5F1F4F99
:1015A000A4010E94150DA82EA818FB2DFF777F2EF1
:1015B00076FE0BC0372D3E7FA51450F474FE0AC092
:1015C00072FC08C0372D3E7E05C0BA2C372D03C0F3
:1015D000BA2C01C0B52C34FF0DC0FE01EA0DF11D7F
:1015E0008081803311F4397E09C032FF06C0B39484
:1015F000B39404C0832F867809F0B39433FD13C0ED
:1016000030FF06C05A2CB31418F4530C5B18B32CDB
:10161000B31468F4B70180E290E03C870E94DD0CCF
:10162000B3943C85F5CFB31410F43B1801C0312CB2
:1016300034FF12C0B70180E390E03C870E94DD0CCC
:101640003C8532FF17C031FD03C088E790E002C03F
:1016500088E590E0B7010CC0832F867859F031FF00
:1016600002C08BE201C080E237FD8DE2B70190E05D
:101670000E94DD0CA51438F4B70180E390E00E94CD
:10168000DD0C5A94F7CFAA94F401EA0DF11D808184
:10169000B70190E00E94DD0CA110F5CF332009F4D2
:1016A00051CEB70180E290E00E94DD0C3A94F6CF73
:1016B000F7018681978102C08FEF9FEF2C960FB6BE
:1016C000F894DEBF0FBECDBFDF91CF911F910F9178
:1016D000FF90EF90DF90CF90BF90AF909F908F9052
:1016E0007F906F905F904F903F902F9008950F9351
:1016F0001F93CF93DF93869F8001879F100D969F46
:10170000100D1124C8010E94930BEC01009729F0E1
:10171000A80160E070E00E94CB0CCE01DF91CF9178
:101720001F910F910895CF93DF938230910510F4AC
:1017300082E090E0E091C002F091C10220E030E050
:10174000C0E0D0E0309711F140815181481759072E
:10175000C0F04817590761F482819381209719F0EE
:101760009B838A832BC09093C1028093C00226C0C2
:101770002115310519F04217530718F49A01BE01DB
:10178000DF01EF010280F381E02DDCCF211531056F
:1017900009F1281B390B2430310590F412968D91F4
:1017A0009C9113976115710521F0FB01938382834E
:1017B00004C09093C1028093C002FD01329644C0E0
:1017C000FD01E20FF31F81939193225031092D9374
:1017D0003C933AC02091BE023091BF02232B41F4CA
:1017E00020910F02309110023093BF022093BE026D
:1017F00020910D0230910E022115310541F42DB7D3
:101800003EB74091110250911202241B350BE0911A
:10181000BE02F091BF02E217F307A0F42E1B3F0BAC
:101820002817390778F0AC014E5F5F4F2417350752
:1018300048F04E0F5F1F5093BF024093BE0281934A
:10184000919302C0E0E0F0E0CF01DF91CF910895E5
:101850000F931F93CF93DF93009709F48CC0FC0183
:101860003297138212820091C0021091C1020115B9
:10187000110581F420813181820F931F2091BE02D6
:101880003091BF022817390779F5F093BF02E09332
:10189000BE0271C0D80140E050E0AE17BF0750F45F
:1018A00012962D913C911397AD012115310509F147
:1018B000D901F3CF9D01DA013383228360817181E5
:1018C000860F971F8217930769F4EC0128813981ED
:1018D000260F371F2E5F3F4F318320838A819B81E4
:1018E00093838283452B29F4F093C102E093C002D5
:1018F00042C01396FC93EE931297ED0149915991D2
:101900009E01240F351FE217F30771F48081918146
:10191000840F951F029611969C938E9382819381DA
:1019200013969C938E931297E0E0F0E0D801129604
:101930008D919C911397009719F0F8018C01F6CFC7
:101940008D919C9198012E5F3F4F820F931F2091A4
:10195000BE023091BF022817390769F4309729F485
:101960001092C1021092C00202C013821282109320
:10197000BF020093BE02DF91CF911F910F91089596
:10198000FC010590615070400110D8F7809590954A
:101990008E0F9F1F0895DC0101C06D934150504090
:1019A000E0F70895FC016150704001900110D8F7F4
:1019B000809590958E0F9F1F08950F931F93CF933F
:1019C000DF93FB01238121FD03C08FEF9FEF28C030
:1019D00022FF16C046815781248135814217530763
:1019E00044F4A081B1819D012F5F3F4F318320835B
:1019F0008C93268137812F5F3F4F3783268310C01A
:101A0000EB01092F182F0084F185E02D1995892B02
:101A1000E1F68E819F8101969F838E83812F902F87
:101A2000DF91CF911F910F910895FA01AA272830D5
:101A300051F1203181F1E8946F936E7F6E5F7F4F9B
:101A40008F4F9F4FAF4FB1E03ED0B4E03CD0670F17
:101A5000781F891F9A1FA11D680F791F8A1F911D6A
:101A6000A11D6A0F711D811D911DA11D20D009F4BA
:101A700068943F912AE0269F11243019305D3193FC
:101A8000DEF6CF010895462F4770405D4193B3E0E5
:101A90000FD0C9F7F6CF462F4F70405D4A3318F08C
:101AA000495D31FD4052419302D0A9F7EACFB4E03D
:101AB000A6959795879577956795BA95C9F70097F5
:101AC0006105710508959B01AC010A2E0694579596
:101AD000479537952795BA95C9F7620F731F841FED
:0A1AE000951FA01D0895F894FFCF94
:101AEA00F80000003FCDCC4C3DCDCC4C3F0000C2AD
:101AFA000220004655434B204D450A0D002323235F
:101B0A002323232323232323205265626F6F742008
:101B1A0023232323232323232323232323230A0DBA
:101B2A00004D4F44453A2050494E47504F4E470AC0
:101B3A000D0053544F502050494E47504F4E4720A6
:101B4A0053454E540A0D0050494420553A20256405
:101B5A002020205265663A202025642020506F7389
:101B6A003A202025642020204572726F723A20257F
:081B7A00642020200A0D000088
:00000001FF
