:100000000C94D5000C94CF030C94F6000C94F600DD
:100010000C94F6000C94F6000C94F6000C94F60088
:100020000C94F6000C94F6000C94F6000C94F60078
:100030000C94F6000C94F6000C94F6000C94F60068
:100040000C94F6000C9433040C94F6000C94F60017
:100050000C94F6000C94F6000C94F6000C94F60048
:100060000C94F6000C94F6000C94F6000C94F60038
:100070000C94F6000C948A040C94F6000C94F60090
:100080000C94F6000C94F6000C94F6000C94F60018
:100090000C94F6000C94F6000C94F6000C94930269
:1000A0000C94F6000C94F6000C94F6000C94F600F8
:1000B0000C94F6000C94F6000C94F6000C94F600E8
:1000C0000C94F6000C94F6000C94F6000C94F600D8
:1000D0000C94F6000C94F6000C94F6000C94F600C8
:1000E0000C94F600B20204030403040304030403A3
:1000F00004030403B202040304030403040304031B
:1001000004030403B4020403040304030403040308
:1001100004030403040304030403040304030403A7
:1001200004030403B40204030403040304030403E8
:100130000403040304030403040304030403040387
:10014000040304030003040304030403040304037B
:1001500004030403DD02040304030403040304038F
:100160000403040304030403040304030403040357
:1001700004030403D102040304030403040304037B
:1001800004030403EF020C94DD020C94D1020C94DE
:1001900004030C9400030C94B2020C94B4020C946B
:1001A000EF020C9441010C94390111241FBECFEFD2
:1001B000D1E2DEBFCDBF00E00CBF12E0A0E0B2E0B4
:1001C000E8EDF2E100E00BBF02C007900D92AC3405
:1001D000B107D9F722E0ACE4B2E001C01D92A3362A
:1001E000B207E1F70E94F8000C946A090C94000031
:1001F000CF93DF93CDB7DEB76A970FB6F894DEBF23
:100200000FBECDBFF8940E9454010E941A030E94B1
:100210000A040E944F040E945F01789467E072E034
:10022000CE010B960E949E0483E192E09F938F93F0
:100230000E945F050F900F901AE0CE0141960E9438
:100240006F03FE017196DE011196812F01900D92D0
:100250008A95E1F7CE010B960E94A8048A8181302D
:1002600061F7CE0101960E943E048B810E947201CB
:10027000E4CFE0ECF0E0908195FFFDCF8093C600E5
:100280000895E0ECF0E080818823ECF78091C600CF
:1002900008959093C5008093C40088E18093C100C5
:1002A0008EE08093C200089587E690E00E944901A5
:1002B00061E471E089E391E00E94140508950E94D1
:1002C0002802E1E0F1E080818260808380818860A3
:1002D00080838081806180838081806280831092AE
:1002E00007010895CF93DF9300D0CDB7DEB7E2E0EA
:1002F000F1E090819260908390E599831A828B83DC
:1003000063E0CE0101960E943E020F900F900F9085
:10031000DF91CF910895E2E0F1E080818F7D8083CD
:100320008081877F808380E18A95F1F700C0A6E015
:10033000B1E02C9180818860808380E18A95F1F71B
:1003400000C08C9190819062908390E0922B0895F0
:10035000E2E0F1E080818F7B808382E48A95F1F78F
:1003600000C0808180648083089584B1876884B9E7
:100370008CB581658CBD08958EBD0DB407FEFDCF93
:100380008EB50895CF93C82F2F9883E00E94BC01AB
:100390008C2F0E94BC018FEF0E94BC012F9ACF913D
:1003A0000895CF93DF93D82FC62F2F9882E00E9415
:1003B000BC018D2F0E94BC018C2F0E94BC012F9A82
:1003C000DF91CF9108952F98813051F028F082303D
:1003D00059F0833069F00FC081E80E94BC010BC066
:1003E00082E80E94BC0107C084E80E94BC0103C0EF
:1003F00087E80E94BC012F9A089580EA0E94C201FA
:1004000008951F93CF93DF93182FD62FC42F2F98C3
:1004100085E00E94BC01812F0E94BC018D2F0E94AB
:10042000BC018C2F0E94BC012F9ADF91CF911F91AC
:1004300008952F9880EC0E94BC012F9A08950E9485
:10044000B5010E94190260E08FE00E94D101089579
:100450008CE08093B8008FEF8093BB0084E08093A2
:10046000BC0008958091BC0081700895ECEBF0E031
:10047000808180FDFDCF809100020895CF93DF93AE
:10048000EC01ECEBF0E0908190FDFDCF60934E022B
:10049000988190934F0290FD13C0623088F0FE0166
:1004A0003196A0E5B2E06250262F30E02E5F3F4F3C
:1004B000CE01820F931F21912D93E817F907D9F7E9
:1004C00010924C0288EF8093000285EA8093BC0072
:1004D000DF91CF910895ECEBF0E0808180FDFDCFBE
:1004E00010924C0288EF8093000285EA8093BC0052
:1004F0000895ECEBF0E0208120FDFDCF20914C022F
:1005000020FF0DC0662359F02FE432E0A82FB92F49
:10051000F90181918D938E2F821B8617D0F38091E4
:100520004C02817008951F920F920FB60F92112402
:100530000BB60F922F933F938F939F93AF93BF93DD
:10054000EF93FF93E091B9008E2F90E0FC01389774
:10055000E135F10508F058C08827EE58FF4F8F4F5E
:100560000C940C0510924D02E0914D0280914E02C8
:10057000E81770F481E08E0F80934D02F0E0E15BAC
:10058000FD4F80818093BB0085E88093BC0043C011
:1005900080914C02816080934C0284E98093BC007E
:1005A0003AC0E0914D0281E08E0F80934D02809120
:1005B000BB00F0E0E15BFD4F808320914D0230E015
:1005C00080914E0290E001972817390724F485ECBA
:1005D0008093BC0020C085E88093BC001CC0809143
:1005E000BB00E0914D02F0E0E15BFD4F8083809124
:1005F0004C02816080934C0284E98093BC000BC064
:1006000085EA8093BC0007C08091B9008093000206
:1006100084E08093BC00FF91EF91BF91AF919F91D7
:100620008F913F912F910F900BBE0F900FBE0F90A7
:100630001F9018950E941F0260E08FE00E94D10178
:1006400060E680E60E94D10141E061E08BE20E9419
:10065000010240E061E08CE20E940102E9E6F0E084
:10066000808182608083E89AE09A0895EF92FF92F9
:100670000F931F93CF93DF937C0160E081E30E948F
:10068000D101F70161816295660F607E82E30E946D
:10069000D101F701608185E30E94D101F7018081DA
:1006A000882399F087010E5F1F4FC0E0D0E0F8016A
:1006B00061918F018C2F8A5C0E94D1012196F701F4
:1006C000208130E0C217D30794F380E00E94E30159
:1006D000DF91CF911F910F91FF90EF9008959F921E
:1006E000AF92BF92CF92DF92EF92FF920F931F9340
:1006F000CF93DF93CDB7DEB72A970FB6F894DEBF5E
:100700000FBECDBF5C0185E60E94C201982E81E636
:100710000E94C201182F82E60E94C201829586952E
:100720008770169516951695082F010F9920A9F038
:100730007E0183E0E80EF11C9E01290D311DF901B7
:1007400033966F0116E6812F0E94C201F701819353
:100750007F011F5FEC15FD05B1F740E061E08CE221
:100760000E94010299820A838AE0FE013196D50136
:1007700001900D928A95E1F7C5012A960FB6F8947B
:10078000DEBF0FBECDBFDF91CF911F910F91FF90C4
:10079000EF90DF90CF90BF90AF909F9008951F9201
:1007A0000F920FB60F9211240BB60F922F933F9317
:1007B0004F935F936F937F938F939F93AF93BF9369
:1007C000EF93FF93CF93DF93CDB7DEB72A97DEBFCA
:1007D000CDBFF894CE0101960E946F0378942A96BB
:1007E0000FB6F894DEBF0FBECDBFDF91CF91FF9162
:1007F000EF91BF91AF919F918F917F916F915F9199
:100800004F913F912F910F900BBE0F900FBE0F9005
:100810001F901895E0E8F0E0808182628083E1E833
:10082000F0E080818A61808380E49CE99093870076
:100830008093860088EB9BE090938B0080938A00E6
:10084000EFE6F0E0808182608083B19A269A089575
:100850009C01285037402136394020F490938B007A
:1008600080938A0008951F920F920FB60F92112461
:10087000B19A0F900FBE0F901F901895FC018381C5
:1008800090E09C01220F331F820F931F880F991F46
:10089000880F991F885F984F0E9428040895EAE7FF
:1008A000F0E0808180688083808187608083809889
:1008B000ACE7B0E08C9180648C9380818860808309
:1008C00080818F7E8083089524E030E040E050E016
:1008D000EAE7F0E0A8E7B0E080818064808380915F
:1008E000570290915802892BD1F31092580210921E
:1008F00057028D919C911197480F591F2150310932
:1009000059F7CA0199230CF4039695958795959507
:10091000879508951F920F920FB60F9211248F930F
:100920009F9381E090E090935802809357029F91AB
:100930008F910F900FBE0F901F901895FC0113829E
:10094000128283E090E095838483718360830895AD
:10095000CF93DF93EC010E946404282F30E03093A2
:100960005402209353028091530290915402863492
:1009700091055CF58C819D81009709F446C020911A
:1009800055023091560221303105B9F501979D830A
:100990008C831092560210925502009749F480E31E
:1009A00092E09F938F930E945F050F900F9031C04C
:1009B0009F938F938FE392E09F938F930E945F05A5
:1009C0000F900F900F900F9024C080915302909140
:1009D000540287399105ECF08C819D81892BC9F0F7
:1009E0008091550290915602892B99F481E090E014
:1009F00090935602809355020CC0809153029091BF
:100A000054028739910564F704C080915302909194
:100A10005402DF91CF910895EE0FFF1F881F8BBF07
:100A20000790F691E02D19940F931F93CF93DF93C6
:100A3000009731F46115710519F480E090E03AC037
:100A40008B01EC016EE070E081E090E00E946E07A7
:100A5000FC01892B91F380E883830115110571F066
:100A60001387028781E883838091590290915A020B
:100A7000892B21F4F0935A02E09359022097C9F090
:100A8000D187C08783818260838380915B0290914C
:100A90005C02892B71F4F0935C02E0935B0280911D
:100AA0005D0290915E02892B21F4F0935E02E09347
:100AB0005D02CF01DF91CF911F910F910895CF93E8
:100AC000DF93CDB7DEB7AE014A5F5F4FFA016191A8
:100AD0007191AF0180915B0290915C020E9473055D
:100AE000DF91CF9108952F923F924F925F926F9234
:100AF0007F928F929F92AF92BF92CF92DF92EF92AE
:100B0000FF920F931F93CF93DF93CDB7DEB72C9750
:100B10000FB6F894DEBF0FBECDBF7C016B018A011A
:100B2000FC0117821682838181FFBDC1CE0101962F
:100B30004C01F7019381F60193FD859193FF81911B
:100B40006F01882309F4ABC1853239F493FD859197
:100B500093FF81916F01853229F4B70190E00E94E3
:100B6000D408E7CF512C312C20E02032A0F48B3276
:100B700069F030F4803259F0833269F420612CC07E
:100B80008D3239F0803339F4216026C02260246030
:100B900023C0286021C027FD27C030ED380F3A3030
:100BA00078F426FF06C0FAE05F9E300D1124532E24
:100BB00013C08AE0389E300D1124332E20620CC001
:100BC0008E3221F426FD6BC1206406C08C3611F4F0
:100BD000206802C0883641F4F60193FD859193FFA9
:100BE00081916F018111C1CF982F9F7D95549330D2
:100BF00028F40C5F1F4FFFE3F9830DC0833631F0FB
:100C0000833771F0833509F05BC022C0F801808121
:100C100089830E5F1F4F44244394512C540115C007
:100C20003801F2E06F0E711CF801A080B18026FF40
:100C300003C0652D70E002C06FEF7FEFC5012C8708
:100C40000E94C9082C0183012C852F77222E17C002
:100C50003801F2E06F0E711CF801A080B18026FF10
:100C600003C0652D70E002C06FEF7FEFC5012C87D8
:100C70000E94B7082C012C852068222E830123FCBA
:100C80001BC0832D90E048165906B0F4B70180E2EE
:100C900090E00E94D4083A94F4CFF50127FC8591A6
:100CA00027FE81915F01B70190E00E94D4083110C6
:100CB0003A94F1E04F1A51084114510471F7E5C01C
:100CC000843611F0893639F5F80127FF07C06081B5
:100CD0007181828193810C5F1F4F08C06081718197
:100CE000072E000C880B990B0E5F1F4F2F76722E6C
:100CF00097FF09C090958095709561957F4F8F4FB4
:100D00009F4F2068722E2AE030E0A4010E940C0957
:100D1000A82EA81844C0853729F42F7EB22E2AE0C9
:100D200030E025C0F22FF97FBF2E8F36C1F018F4C6
:100D3000883579F0B4C0803719F0883721F0AFC01A
:100D40002F2F2061B22EB4FE0DC08B2D8460B82EE3
:100D500009C024FF0AC09F2F9660B92E06C028E064
:100D600030E005C020E130E002C020E132E0F801CF
:100D7000B7FE07C060817181828193810C5F1F4F34
:100D800006C06081718180E090E00E5F1F4FA4017A
:100D90000E940C09A82EA818FB2DFF777F2E76FE47
:100DA0000BC0372D3E7FA51450F474FE0AC072FCB0
:100DB00008C0372D3E7E05C0BA2C372D03C0BA2C93
:100DC00001C0B52C34FF0DC0FE01EA0DF11D80817C
:100DD000803311F4397E09C032FF06C0B394B39456
:100DE00004C0832F867809F0B39433FD13C030FF1D
:100DF00006C05A2CB31418F4530C5B18B32CB3145C
:100E000068F4B70180E290E03C870E94D408B39474
:100E10003C85F5CFB31410F43B1801C0312C34FFDE
:100E200012C0B70180E390E03C870E94D4083C8563
:100E300032FF17C031FD03C088E790E002C088E5AB
:100E400090E0B7010CC0832F867859F031FF02C0C3
:100E50008BE201C080E237FD8DE2B70190E00E9495
:100E6000D408A51438F4B70180E390E00E94D408B8
:100E70005A94F7CFAA94F401EA0DF11D8081B701CD
:100E800090E00E94D408A110F5CF332009F451CE90
:100E9000B70180E290E00E94D4083A94F6CFF701BF
:100EA0008681978102C08FEF9FEF2C960FB6F89442
:100EB000DEBF0FBECDBFDF91CF911F910F91FF908D
:100EC000EF90DF90CF90BF90AF909F908F907F90EA
:100ED0006F905F904F903F902F9008950F931F93C6
:100EE000CF93DF93869F8001879F100D969F100DF3
:100EF0001124C8010E948A07EC01009729F0A8017B
:100F000060E070E00E94C208CE01DF91CF911F9196
:100F10000F910895CF93DF938230910510F482E012
:100F200090E0E0916102F091620220E030E0C0E0E8
:100F3000D0E0309711F14081518148175907C0F036
:100F40004817590761F482819381209719F09B8398
:100F50008A832BC0909362028093610226C0211580
:100F6000310519F04217530718F49A01BE01DF0149
:100F7000EF010280F381E02DDCCF2115310509F16D
:100F8000281B390B2430310590F412968D919C91D9
:100F900013976115710521F0FB019383828304C0CF
:100FA0009093620280936102FD01329644C0FD017C
:100FB000E20FF31F81939193225031092D933C93BB
:100FC0003AC020915F0230916002232B41F42091BE
:100FD0000302309104023093600220935F0220915B
:100FE0000102309102022115310541F42DB73EB7BF
:100FF0004091050250910602241B350BE0915F02DF
:10100000F0916002E217F307A0F42E1B3F0B2817A4
:10101000390778F0AC014E5F5F4F2417350748F071
:101020004E0F5F1F5093600240935F028193919334
:1010300002C0E0E0F0E0CF01DF91CF9108950F937F
:101040001F93CF93DF93009709F48CC0FC01329774
:101050001382128200916102109162020115110542
:1010600081F420813181820F931F20915F023091A2
:1010700060022817390779F5F0936002E0935F0268
:1010800071C0D80140E050E0AE17BF0750F412968F
:101090002D913C911397AD012115310509F1D9012D
:1010A000F3CF9D01DA013383228360817181860F42
:1010B000971F8217930769F4EC0128813981260F65
:1010C000371F2E5F3F4F318320838A819B8193831B
:1010D0008283452B29F4F0936202E093610242C0BF
:1010E0001396FC93EE931297ED01499159919E014D
:1010F000240F351FE217F30771F480819181840F6B
:10110000951F029611969C938E93828193811396DC
:101110009C938E931297E0E0F0E0D80112968D91A7
:101120009C911397009719F0F8018C01F6CF8D91DF
:101130009C9198012E5F3F4F820F931F20915F0279
:10114000309160022817390769F4309729F410921A
:1011500062021092610202C0138212821093600236
:1011600000935F02DF91CF911F910F910895FC01D1
:101170000590615070400110D8F7809590958E0FC2
:101180009F1F0895DC0101C06D9341505040E0F76E
:101190000895FC016150704001900110D8F78095CE
:1011A00090958E0F9F1F08950F931F93CF93DF93FA
:1011B000FB01238121FD03C08FEF9FEF28C022FF99
:1011C00016C046815781248135814217530744F464
:1011D000A081B1819D012F5F3F4F318320838C938C
:1011E000268137812F5F3F4F3783268310C0EB0165
:1011F000092F182F0084F185E02D1995892BE1F630
:101200008E819F8101969F838E83812F902FDF9106
:10121000CF911F910F910895FA01AA27283051F11B
:10122000203181F1E8946F936E7F6E5F7F4F8F4F17
:101230009F4FAF4FB1E03ED0B4E03CD0670F781F76
:10124000891F9A1FA11D680F791F8A1F911DA11D5B
:101250006A0F711D811D911DA11D20D009F4689494
:101260003F912AE0269F11243019305D3193DEF63C
:10127000CF010895462F4770405D4193B3E00FD0F2
:10128000C9F7F6CF462F4F70405D4A3318F0495DDD
:1012900031FD4052419302D0A9F7EACFB4E0A695C0
:1012A0009795879577956795BA95C9F700976105E2
:1012B000710508959B01AC010A2E06945795479538
:1012C00037952795BA95C9F7620F731F841F951F2D
:0812D000A01D0895F894FFCF62
:1012D800F8000063022000556E67205370696C6C3B
:1012E80065720056656C6B6F6D6D656E2074696C08
:1012F800204D756A6166617320424D57210A0D00C1
:10130800596F752064656164206E6F770A0D004C13
:0C131800697665733A2025640A0D000018
:00000001FF
