:100000000C94D5000C94F6000C94F6000C94410569
:100010000C94F6000C94F6000C94F6000C94F60088
:100020000C94F6000C94F6000C94F6000C94F60078
:100030000C94F6000C94F6000C94F6000C94F60068
:100040000C94F6000C94AC050C94F6000C94F6009D
:100050000C94F6000C94F6000C94F6000C94F60048
:100060000C94F6000C94F6000C94F6000C94F60038
:100070000C94F6000C94DB060C94F6000C94F6003D
:100080000C94F6000C94F6000C94F6000C94F60018
:100090000C94F6000C94F6000C94F6000C94ED030E
:1000A0000C94F6000C94F6000C9415080C94F600D1
:1000B0000C94F6000C94F6000C94F6000C94F600E8
:1000C0000C94F6000C94F6000C94F6000C94F600D8
:1000D0000C94F6000C94F6000C94F6000C94F600C8
:1000E0000C94F6000C045E045E045E045E045E0480
:1000F0005E045E040C045E045E045E045E045E0442
:100100005E045E040E045E045E045E045E045E042F
:100110005E045E045E045E045E045E045E045E04CF
:100120005E045E040E045E045E045E045E045E040F
:100130005E045E045E045E045E045E045E045E04AF
:100140005E045E045A045E045E045E045E045E04A3
:100150005E045E0437045E045E045E045E045E04B6
:100160005E045E045E045E045E045E045E045E047F
:100170005E045E042B045E045E045E045E045E04A2
:100180005E045E0449040C9437040C945A040C94E5
:100190005E040C94C1010C942B040C94B9010C94D2
:1001A0000C040C940E040C94490411241FBECFEFD0
:1001B000D1E2DEBFCDBF00E00CBF15E0A0E0B2E0B1
:1001C000EEEEFAE100E00BBF02C007900D92A03DF9
:1001D000B107D9F726E0A0EDB5E001C01D92A0302F
:1001E000B207E1F70E94F8000C94750D0C94000022
:1001F000CF93DF93CDB7DEB7C654D1090FB6F894CD
:10020000DEBF0FBECDBFF8940E94D4012FEF89EF5F
:1002100090E0215080409040E1F700C000000E9433
:1002200042082FEF89EF90E0215080409040E1F7A5
:1002300000C000000E9474042FEF89EF90E021506D
:1002400080409040E1F700C000000E9493022FEF31
:1002500089EF90E0215080409040E1F700C000001D
:100260000E94C9052FEF89EF90E021508040904017
:10027000E1F700C000000E94E1052FEF89EF90E058
:10028000215080409040E1F700C000000E94B70577
:100290002FEF89EF90E0215080409040E1F700C0BF
:1002A00000000E9483052FEF89EF90E021508040ED
:1002B0009040E1F700C0000078941EAE81E08DAF61
:1002C00088E08FAF00E010E0CC24C394D12CE12C67
:1002D000F12C0115110521F001301105C1F1F9CF03
:1002E000CE01C3960E9438058CA981110DC0CE01A4
:1002F00089960E9438059C2D8D2D2BA5213011F05B
:100300009E2D8F2D092F182FCE014F960E94380554
:1003100088A1833039F4CE0145960E9438058F8933
:100320000E94CB07CE010B960E9438058C85873042
:1003300081F6CE0101960E9438058B81813049F605
:100340000E94420882E090E00E947E08C2CF0E9494
:1003500018062FEF81EE94E0215080409040E1F7A5
:1003600000C00000CE01CD960E9499040E2D1F2DD5
:10037000B0CFE0ECF0E0908195FFFDCF8093C60018
:100380000895E0ECF0E080818823ECF78091C600CE
:1003900008959093C5008093C40088E18093C100C4
:1003A0008EE08093C200089587E690E00E94C90124
:1003B00061EC71E089EB91E00E94DA0B0895CF9334
:1003C000DF9300D0CDB7DEB78456682F3AF461953D
:1003D000E2E0F1E080818D7F808309C0803134F0DC
:1003E000E2E0F1E080818260808301C060E080E52E
:1003F00089831A82062E000C770B880B990B0E94BA
:10040000E10A23E333E343E250E40E946D0B0E94D0
:10041000A90A6B8363E0CE0101960E9498030F90B6
:100420000F900F90DF91CF910895CF93DF9300D07D
:10043000CDB7DEB71816190634F4E2E0F1E02081FA
:100440002D7F208308C0919581959109E2E0F1E02C
:1004500020812260208320E529831A828F3F910525
:1004600019F014F08FEF90E08B8363E0CE010196DA
:100470000E9498030F900F900F90DF91CF910895F5
:10048000E2E0F1E080818F7D80838081877F8083BF
:100490008FEA94E00197F1F700C00000A6E0B1E018
:1004A0002C918081886080838FEA94E00197F1F736
:1004B00000C000008C9190819062908390E0922B1C
:1004C00008950E944002992314F480E090E08C305B
:1004D00023E2920798F4BC01990F880B990B0E94B4
:1004E000E10A22E538EB4CE052E40E94370A0E9410
:1004F000B00A6F3F710509F028F402C06FEF70E099
:10050000862F08958FEF0895E2E0F1E080818F7BE0
:1005100080838FE193E00197F1F700C000008081B4
:10052000806480830895CF93DF9300D0CDB7DEB78A
:100530000E948203E1E0F1E080818260808380811B
:1005400088608083808180618083A0E0B1E08C91AD
:1005500080618C93808180628083808180648083CD
:10056000E7E0F1E080818F77808380818F7B8083DB
:1005700080818F7D808380818F7E80838081877F53
:10058000808380818B7F808380818D7F8083808149
:100590008E7F808380E589831A821B8263E0CE018F
:1005A00001960E9498030E9484020F900F900F9072
:1005B000DF91CF910895CF93DF9300D0CDB7DEB711
:1005C000E2E0F1E080818260808380E589831A82A5
:1005D00084E68B8363E0CE0101960E9498032FEF9F
:1005E0008DE399E4215080409040E1F700C0000085
:1005F0001B8263E0CE0101960E9498032FEF83ECEB
:1006000099E0215080409040E1F700C000000E9436
:1006100084020F900F900F90DF91CF91089584B1D5
:10062000876884B98CB581658CBD08958EBD0DB485
:1006300007FEFDCF8EB50895CF93C82F2F9883E086
:100640000E9416038C2F0E9416038FEF0E94160340
:100650002F9ACF910895CF93DF93D82FC62F2F983D
:1006600082E00E9416038D2F0E9416038C2F0E9499
:1006700016032F9ADF91CF9108952F98813051F072
:1006800028F0823059F0833069F00FC081E80E9471
:1006900016030BC082E80E94160307C084E80E947C
:1006A000160303C087E80E9416032F9A089580EA74
:1006B0000E941C0308951F93CF93DF93182FD62F0A
:1006C000C42F2F9885E00E941603812F0E941603E5
:1006D0008D2F0E9416038C2F0E9416032F9ADF91F4
:1006E000CF911F9108952F9880EC0E9416032F9AA6
:1006F00008950E940F030E94730360E08FE00E9440
:100700002B0308958CE08093B8008FEF8093BB009B
:1007100084E08093BC0008958091BC0081700895AE
:10072000ECEBF0E0808180FDFDCF80910002089528
:10073000CF93DF93EC01ECEBF0E0908190FDFDCFE7
:100740006093D20598819093D30590FD13C06230D9
:1007500088F0FE013196A4EDB5E06250262F30E01E
:100760002E5F3F4FCE01820F931F21912D93E817EB
:10077000F907D9F71092D00588EF8093000285EA37
:100780008093BC00DF91CF910895ECEBF0E0808185
:1007900080FDFDCF1092D00588EF8093000285EA9E
:1007A0008093BC000895ECEBF0E0208120FDFDCFAC
:1007B0002091D00520FF0DC0662359F023ED35E0D0
:1007C000A82FB92FF90181918D938E2F821B861747
:1007D000D0F38091D005817008951F920F920FB6CB
:1007E0000F9211240BB60F922F933F938F939F93E9
:1007F000AF93BF93EF93FF93E091B9008E2F90E0FA
:10080000FC013897E135F10508F058C08827EE580B
:10081000FF4F8F4F0C94AE091092D105E091D10596
:100820008091D205E81770F481E08E0F8093D10596
:10083000F0E0ED52FA4F80818093BB0085E8809311
:10084000BC0043C08091D00581608093D00584E9CD
:100850008093BC003AC0E091D10581E08E0F809377
:10086000D1058091BB00F0E0ED52FA4F80832091DA
:10087000D10530E08091D20590E001972817390723
:1008800024F485EC8093BC0020C085E88093BC00F4
:100890001CC08091BB00E091D105F0E0ED52FA4F11
:1008A00080838091D00581608093D00584E9809316
:1008B000BC000BC085EA8093BC0007C08091B900E2
:1008C0008093000284E08093BC00FF91EF91BF9180
:1008D000AF919F918F913F912F910F900BBE0F90F1
:1008E0000FBE0F901F901895E9E6F0E080818F7E93
:1008F0008083808180628083EA9AE29A0E947903F1
:1009000040E060EE8FE00E945B0360E680E60E94BC
:100910002B0343E063E08BE20E945B0340E063E073
:100920008CE20E945B03E7EDF5E088E0818382833F
:100930000895EF92FF920F931F93CF93DF937C0163
:1009400060E081E30E942B03F70161816295660FED
:10095000607E82E30E942B03F701608185E30E94A1
:100960002B03F70180818823C9F087010E5F1F4F99
:10097000C0E0D0E0F80161918F018C2F8A5C0E9469
:100980002B038FE99FE00197F1F700C0000021964B
:10099000F701208130E0C217D30764F380E00E94A2
:1009A0003D03DF91CF911F910F91FF90EF9008953C
:1009B0009F92AF92BF92CF92DF92EF92FF920F93EE
:1009C0001F93CF93DF93CDB7DEB72A970FB6F89476
:1009D000DEBF0FBECDBF5C0185E60E941C03982ED2
:1009E00081E60E941C03182F82E60E941C03829558
:1009F00086958770169516951695082F010F9920E4
:100A0000A9F07E0183E0E80EF11C9E01290D311D45
:100A1000F90133966F0116E6812F0E941C03F7013E
:100A200081937F011F5FEC15FD05B1F740E061E0A8
:100A30008CE20E945B0399820A838AE0FE01319670
:100A4000D50101900D928A95E1F7C5012A960FB65E
:100A5000F894DEBF0FBECDBFDF91CF911F910F91F4
:100A6000FF90EF90DF90CF90BF90AF909F90089550
:100A70002AE0E7EDF5E0DC0101900D922A95E1F71F
:100A800008951F920F920FB60F9211240BB60F927A
:100A90002F933F934F935F936F937F938F939F9386
:100AA000AF93BF93EF93FF93CF93DF93CDB7DEB7B1
:100AB0002A97DEBFCDBFCE0101960E94D8048AE0FE
:100AC000FE013196A7EDB5E001900D928A95E1F710
:100AD0002A960FB6F894DEBF0FBECDBFDF91CF913F
:100AE000FF91EF91BF91AF919F918F917F916F9106
:100AF0005F914F913F912F910F900BBE0F900FBEC2
:100B00000F901F901895E0E8F0E08081826280836A
:100B1000E1E8F0E080818A61808380E49CE9909341
:100B200087008093860088EB9BE090938B008093F6
:100B30008A00EFE6F0E0808182608083B19A269A95
:100B400008959C01285037402136394020F4909375
:100B50008B0080938A0008951F920F920FB60F9218
:100B60001124B19A0F900FBE0F901F901895E2EFCD
:100B7000F5E08FE78083118284E683830895282F30
:100B800034EF3203C001112488599F4E0E94A10501
:100B90000895EAE7F0E08081806880838081876043
:100BA00080838098ACE7B0E08C918F778C938C91A8
:100BB00080648C9380818860808380818F7E808335
:100BC0000895259A2D980895882359F02D9A2FEF8E
:100BD00081EE94E0215080409040E1F700C0000099
:100BE0002D98089524E030E040E050E0EAE7F0E09E
:100BF000A8E7B0E08081806480838091E7059091D0
:100C0000E805892BD1F31092E8051092E7058D9144
:100C10009C911197480F591F2150310959F7CA016A
:100C200099230CF403969595879595958795089546
:100C3000FF920F931F93CF93DF93CDB7DEB7C355CA
:100C4000D1090FB6F894DEBF0FBECDBFE2E7F0E0EA
:100C500080818D7F80830E94DB022FEF83EC99E0FF
:100C6000215080409040E1F700C000000E94EF0654
:100C7000EFEFF3ED20E3E150F0402040E1F700C05A
:100C8000000002EF15E0FF24F3940E94F205449760
:100C9000D8F5E2E7F0E080818D7F808380E5629681
:100CA0008FAF629763961FAE639764961FAE64978B
:100CB00063E070E0CE018F5A9F4F0E9498038FEF40
:100CC00093EDE0E381509040E040E1F700C0000088
:100CD00029961FAE299781E028968FAF28972A96EC
:100CE0001FAE2A97CE01895B9F4F0E94990484E62C
:100CF0000E94BF05FFEF23EC89E0F15020408040C7
:100D0000E1F700C000004AC0CE01CD960E94380530
:100D10008EAD823061F5CE01C3960E9438058DA953
:100D2000F8018083CE0189960E9438058DA588231D
:100D300039F0F8018181811103C0F182F28217C07C
:100D4000CE014F960E9438058BA1882331F0F8011F
:100D50008181813011F412820AC0CE0145960E9431
:100D60003805898D811103C0F80111821282CE01EC
:100D70000B960E9438058C85813039F4CE0101969E
:100D80000E9438058B81F8018383F80183810E94DA
:100D9000BF05F80182810E94E40577CFCD5ADF4F6D
:100DA0000FB6F894DEBF0FBECDBFDF91CF911F917C
:100DB0000F91FF9008951F920F920FB60F9211247A
:100DC0008F939F9381E090E09093E8058093E705EF
:100DD0009F918F910F900FBE0F901F9018951092BA
:100DE000F1051092F0051092EF051092EE051092A9
:100DF000ED051092EC051092EB051092EA051092A9
:100E0000E905E1EAF0E08081886080838081856087
:100E1000808384ED91E09093A9008093A8001092C4
:100E2000A5001092A400C99AE2E7F0E080818260F8
:100E3000808308958F929F92AF92BF92CF92DF925C
:100E4000EF92FF920F931F93CF93DF93CDB7DEB74F
:100E500064970FB6F894DEBF0FBECDBFCE010B96E0
:100E60000E9438058C85823009F07CC0CE01019645
:100E70000E9438058B8180958093E9050E9461026C
:100E80000091E90510E0081B1109B801012E000CC2
:100E9000880B990B0E94E10A4B015C012FE832ECB0
:100EA00045EF5CE30E946D0B0E94B00A4091F00593
:100EB0005091F1057A01E60EF71EF092F105E092ED
:100EC000F0058091EC059091ED056801C81AD90AEA
:100ED000D092EF05C092EE051093ED050093EC055E
:100EE0002091090230910A0240910B0250910C02AC
:100EF000C501B4010E946D0B4B015C01B701FF0CF1
:100F0000880B990B0E94E10A2091010230910202A4
:100F100040910302509104020E946D0B9B01AC01B1
:100F2000C501B4010E94CB094B015C01B601DD0C87
:100F3000880B990B0E94E10A20910502309106026C
:100F400040910702509108020E946D0B9B01AC0179
:100F5000C501B4010E94CB090E94A90A7093EB0558
:100F60006093EA058091EA059091EB050E941502D5
:100F700064960FB6F894DEBF0FBECDBFDF91CF9160
:100F80001F910F91FF90EF90DF90CF90BF90AF90A7
:100F90009F908F900895813009F580E090E0A0E85F
:100FA000BFE38093090290930A02A0930B02B093CF
:100FB0000C028093050290930602A0930702B0935F
:100FC000080280E090E0A0E4B0E4809301029093F6
:100FD0000202A0930302B09304020895811124C079
:100FE00083E393E3A3E3BFE38093090290930A02B0
:100FF000A0930B02B0930C0280E090E0A0E0B0E47C
:101000008093050290930602A0930702B093080212
:1010100080E090E0A0E4B0E48093010290930202AB
:10102000A0930302B093040208951F920F920FB68B
:101030000F9211240BB60F922F933F934F935F9310
:101040006F937F938F939F93AF93BF93EF93FF9390
:101050000E941A07C99A1092A5001092A400FF914D
:10106000EF91BF91AF919F918F917F916F915F9120
:101070004F913F912F910F900BBE0F900FBE0F908D
:101080001F9018956B9AE1E9F0E080818861808378
:1010900080E4809390008081836080830895CF9363
:1010A000DF93EA0120E030E040E053E40E946D0B62
:1010B0009B01AC0160E074E284E79BE40E94370A84
:1010C00020E030E040E85FE30E94CA090E94A90ADC
:1010D0007093970060939600C230D10564F081E070
:1010E00090E0E7ECF0E03197F1F700C000000196E6
:1010F0008C179D07B1F7DF91CF9108956F927F9282
:101100008F929F92AF92BF92CF92DF92EF92FF9217
:101110000F931F93CF93DF93CDB7DEB7A8970FB68A
:10112000F894DEBF0FBECDBF009721F0029709F4FF
:1011300066C0D0C001E914E00F2EFDE2EF2EF5E00D
:10114000FF2EF02D0F2EFDE2AF2EF5E0BF2EF02D7D
:101150000F2EF8EECF2EF3E0DF2EF02D66246394F1
:10116000712CCE014F960E94380588A1873079F402
:10117000CE0145960E9438058F89811108C040E054
:1011800050E060E070E0CB010E944F08A3C0F8017E
:10119000619171918F01C6010E949A094B01F7017B
:1011A000619171917F01072E000C880B990B0E94B1
:1011B000E10AA4010E944F08B401990C880B990B15
:1011C0000E94E10A26E636E646E050E40E946D0BF6
:1011D0000E94A90A623071056CF0262D372D8FE927
:1011E0009FE00197F1F700C000002F5F3F4F2617E7
:1011F0003707A9F70A151B0509F0B3CF6BC00DE03F
:1012000012E00F2EFFEDEF2EF2E0FF2EF02D0F2E4D
:10121000FFEDAF2EF2E0BF2EF02D0F2EF8EECF2E09
:10122000F3E0DF2EF02D66246394712CCE010B9633
:101230000E9438058C85873079F4CE0101960E9492
:1012400038058B81811108C040E050E060E070E01B
:10125000CB010E944F083EC0F801619171918F014E
:10126000C6010E949A094B01F701619171917F01BA
:10127000072E000C880B990B0E94E10AA4010E9422
:101280004F08B401990C880B990B0E94E10A2DECD0
:101290003CEC4CE050E40E946D0B0E94A90A6230C5
:1012A00071056CF0262D372D8FE99FE00197F1F73E
:1012B00000C000002F5F3F4F26173707A9F70A1518
:1012C0001B0509F0B3CF40E050E060E070E0CB01D7
:1012D0000E944F08A8960FB6F894DEBF0FBECDBF90
:1012E000DF91CF911F910F91FF90EF90DF90CF9002
:1012F000BF90AF909F908F907F906F90089520E067
:1013000030E040E053E40E946D0B9B01AC0160E0D3
:1013100074E284E79BE40E94370A20E030E040E872
:101320005FE30E94CA090E94A90A70939700609324
:101330009600089597FB072E16F4009407D077FDCA
:1013400009D00E94B60907FC05D03EF4909581951E
:101350009F4F0895709561957F4F0895EE0FFF1F81
:10136000881F8BBF0790F691E02D1994AA1BBB1B19
:1013700051E107C0AA1FBB1FA617B70710F0A61B95
:10138000B70B881F991F5A95A9F780959095BC01B6
:10139000CD0108955058BB27AA270E94E2090C945A
:1013A000330B0E94250B38F00E942C0B20F039F4EF
:1013B0009F3F19F426F40C94220B0EF4E095E7FB02
:1013C0000C941C0BE92F0E94440B58F3BA176207C8
:1013D00073078407950720F079F4A6F50C94660B43
:1013E0000EF4E0950B2EBA2FA02D0B01B901900140
:1013F0000C01CA01A0011124FF27591B99F0593F84
:1014000050F4503E68F11A16F040A22F232F342FCB
:101410004427585FF3CF469537952795A795F04019
:101420005395C9F77EF41F16BA0B620B730B840B2E
:10143000BAF09150A1F0FF0FBB1F661F771F881FE6
:10144000C2F70EC0BA0F621F731F841F48F487953E
:1014500077956795B795F7959E3F08F0B0CF939530
:10146000880F08F09927EE0F9795879508950E94A9
:101470004B0A0C94330B0E942C0B58F00E94250B46
:1014800040F029F45F3F29F00C941C0B51110C948F
:10149000670B0C94220B0E94440B68F39923B1F361
:1014A000552391F3951B550BBB27AA27621773078A
:1014B000840738F09F5F5F4F220F331F441FAA1F1E
:1014C000A9F335D00E2E3AF0E0E832D091505040DA
:1014D000E695001CCAF72BD0FE2F29D0660F771F88
:1014E000881FBB1F261737074807AB07B0E809F06E
:1014F000BB0B802DBF01FF2793585F4F3AF09E3FF3
:10150000510578F00C941C0B0C94670B5F3FE4F3CF
:10151000983ED4F3869577956795B795F7959F5F35
:10152000C9F7880F911D9695879597F90895E1E081
:10153000660F771F881FBB1F621773078407BA07E0
:1015400020F0621B730B840BBA0BEE1F88F7E0953B
:1015500008950E94B00A6894B1110C94670B089525
:101560000E944C0B88F09F5798F0B92F9927B751DC
:10157000B0F0E1F0660F771F881F991F1AF0BA9537
:10158000C9F714C0B13091F00E94660BB1E0089524
:101590000C94660B672F782F8827B85F39F0B93F16
:1015A000CCF3869577956795B395D9F73EF49095EA
:1015B0008095709561957F4F8F4F9F4F0895E89468
:1015C00009C097FB3EF490958095709561957F4F8B
:1015D0008F4F9F4F9923A9F0F92F96E9BB27939539
:1015E000F695879577956795B795F111F8CFFAF449
:1015F000BB0F11F460FF1BC06F5F7F4F8F4F9F4F7A
:1016000016C0882311F096E911C0772321F09EE8D7
:10161000872F762F05C0662371F096E8862F70E03D
:1016200060E02AF09A95660F771F881FDAF7880F17
:101630009695879597F9089597F99F6780E870E0E8
:1016400060E008959FEF80EC089500240A94161638
:10165000170618060906089500240A9412161306A0
:10166000140605060895092E0394000C11F488232E
:1016700052F0BB0F40F4BF2B11F460FF04C06F5F4A
:101680007F4F8F4F9F4F089557FD9058440F551F20
:1016900059F05F3F71F04795880F97FB991F61F0F4
:1016A0009F3F79F087950895121613061406551F6B
:1016B000F2CF4695F1DF08C0161617061806991FD7
:1016C000F1CF86957105610508940895E894BB27CC
:1016D00066277727CB0197F908950E94800B0C9419
:1016E000330B0E94250B38F00E942C0B20F0952321
:1016F00011F00C941C0B0C94220B11240C94670B0E
:101700000E94440B70F3959FC1F3950F50E0551F55
:10171000629FF001729FBB27F00DB11D639FAA2746
:10172000F00DB11DAA1F649F6627B00DA11D661F95
:10173000829F2227B00DA11D621F739FB00DA11DB6
:10174000621F839FA00D611D221F749F3327A00D70
:10175000611D231F849F600D211D822F762F6A2F0C
:1017600011249F5750409AF0F1F088234AF0EE0F71
:10177000FF1FBB1F661F771F881F91505040A9F79E
:101780009E3F510580F00C941C0B0C94670B5F3F3F
:10179000E4F3983ED4F3869577956795B795F795DA
:1017A000E7959F5FC1F7FE2B880F911D9695879552
:1017B00097F908950F931F93CF93DF93009731F418
:1017C0006115710519F480E090E03AC08B01EC01DD
:1017D0006EE070E081E090E00E94250CFC01892B16
:1017E00091F380E883830115110571F01387028757
:1017F00081E883838091F6059091F705892B21F488
:10180000F093F705E093F6052097C9F0D187C087DC
:101810008381826083838091F8059091F905892BFB
:1018200071F4F093F905E093F8058091FA05909131
:10183000FB05892B21F4F093FB05E093FA05CF011A
:10184000DF91CF911F910F9108950F931F93CF9325
:10185000DF93869F8001879F100D969F100D1124A6
:10186000C8010E94410CEC01009729F0A80160E03A
:1018700070E00E946E0DCE01DF91CF911F910F910C
:101880000895CF93DF938230910510F482E090E0C9
:10189000E091FE05F091FF0520E030E0C0E0D0E0EF
:1018A000309711F14081518148175907C0F048170E
:1018B000590761F482819381209719F09B838A8371
:1018C0002BC09093FF058093FE0526C0211531059E
:1018D00019F04217530718F49A01BE01DF01EF0116
:1018E0000280F381E02DDCCF2115310509F1281BA1
:1018F000390B2430310590F412968D919C911397F9
:101900006115710521F0FB019383828304C09093DC
:10191000FF058093FE05FD01329644C0FD01E20FF4
:10192000F31F81939193225031092D933C933AC038
:101930002091FC053091FD05232B41F42091CB052E
:101940003091CC053093FD052093FC052091C9050D
:101950003091CA052115310541F42DB73EB74091AC
:10196000CD055091CE05241B350BE091FC05F0917F
:10197000FD05E217F307A0F42E1B3F0B28173907CC
:1019800078F0AC014E5F5F4F2417350748F04E0FDB
:101990005F1F5093FD054093FC058193919302C016
:1019A000E0E0F0E0CF01DF91CF9108950F931F9316
:1019B000CF93DF93009709F48CC0FC013297138218
:1019C00012820091FE051091FF050115110581F4A9
:1019D00020813181820F931F2091FC053091FD05FC
:1019E0002817390779F5F093FD05E093FC0571C0E0
:1019F000D80140E050E0AE17BF0750F412962D9189
:101A00003C911397AD012115310509F1D901F3CFAF
:101A10009D01DA013383228360817181860F971FD4
:101A20008217930769F4EC0128813981260F371F4B
:101A30002E5F3F4F318320838A819B8193838283F2
:101A4000452B29F4F093FF05E093FE0542C0139661
:101A5000FC93EE931297ED01499159919E01240F49
:101A6000351FE217F30771F480819181840F951F70
:101A7000029611969C938E938281938113969C93E8
:101A80008E931297E0E0F0E0D80112968D919C9130
:101A90001397009719F0F8018C01F6CF8D919C9166
:101AA00098012E5F3F4F820F931F2091FC053091CC
:101AB000FD052817390769F4309729F41092FF05BE
:101AC0001092FE0502C0138212821093FD0500934E
:101AD000FC05DF91CF911F910F910895DC0101C0AA
:0E1AE0006D9341505040E0F70895F894FFCF09
:101AEE00F8000040400000803F0000803F080004E6
:101AFE000006001000040008000800040006001094
:101B0E000004000800080004000800080004000893
:101B1E00000800040008000800020004000600107F
:101B2E00000400080008000400060010000400086D
:101B3E000008000400060010000400060010000457
:101B4E000006001000080008000800080002000847
:101B5E00000800080008000300080008000800083C
:101B6E000008000200080008000800080003000832
:101B7E000008000800080008000400060010000419
:101B8E000006001000040008000800020002000811
:101B9E000008000800080003000800020002000808
:101BAE0000080008000800030008000200040006F8
:101BBE00001000040004000200040004000100886C
:101BCE00010B028801B801EE014A014A01B80188F1
:101BDE00015D01880106010601260126014A015D0B
:101BEE00015D018801B801EE010B024B0293024B1D
:101BFE00020B024B02EE0188010B02EE01B801EE60
:101C0E00014A014A01B80188015D018801060106F9
:101C1E00010B02EE01B8018801EE010B024B02939B
:101C2E00024B020B02EE010B024B0288018801EE01
:101C3E00010B024B020B02EE01B8018801B801EE56
:101C4E00014A014A018801B801EE010B02B801EE0A
:101C5E00010B02B801EE010B02B8010B02BA02BA77
:101C6E000293024B020B024B0293020B020B024B2E
:101C7E00020B02EE01B801EE010B02B801B8010B26
:101C8E0002EE01B801880106018801B801EE010BD0
:101C9E00020C000C000C000C000C000C00060003E3
:101CAE00000C000C000C000C000C000C00060003D5
:101CBE00000C000C000C000C000C000C00060003C5
:101CCE00000C000C000C000C000C000C00060006B2
:101CDE0000120012001200060006000600060006A2
:101CEE000006001200120012001200120012000A6A
:101CFE00000A000A000A000A000A0003000300039B
:101D0E000006010B02DC00B801E900D20100000060
:101D1E000006010B02DC00B801E900D20100000050
:101D2E0000AF005D01930026019C0037010000000A
:101D3E0000AF005D01930026019C003701000000FA
:101D4E0000370115012601150137013701D000C4F6
:101D5E00001501060172015D01A500D201B8019FB7
:101D6E00013701F700E900DC00D0000000000000A0
:101D7E00000C000C000C000C000C000C000C000CF5
:101D8E00000C000C000C000C000C000C000C000CE5
:101D9E00000C000C000C000C000C000C000C000CD5
:101DAE00000C000C000C000C000C000C000C000CC5
:101DBE00000900090009000C000C000C000C000CBE
:101DCE00000C000C000C000C000C000C000C000CA5
:101DDE00000C000C000C000C000C000C000C000C95
:101DEE00000C000C000C000C000C000C000C000988
:101DFE0000090009000C000C000C000C000C000C7B
:101E0E00000C000C000C000C000C000C004D0A4DD8
:101E1E000A00004D0A00002D084D0A0000400C007B
:101E2E00000000000020060000000000002D080049
:101E3E00000000200600000000270500000000E062
:101E4E00060000B80700004907E006000020064D16
:101E5E000A400CC00D0000EA0A400C00004D0A00BA
:101E6E00002D082D09B807000000002D0800000005
:101E7E0000200600000000270500000000E006001C
:101E8E0000B80700004907E006000020064D0A4092
:101E9E000CC00D0000EA0A400C00004D0A00002D97
:101EAE00082D09B807000000000000000620000001
:00000001FF
