:100000000C9476000C9422020C9497000C949700A8
:100010000C9497000C9497000C9497000C94970004
:100020000C9497000C9497000C9497000C949700F4
:100030000C9497000C9497000C9497000C949700E4
:100040000C9497000C948F020C9497000C949700DA
:100050000C9497000C9497000C9497000C949700C4
:100060000C9497000C9497000C9497000C949700B4
:100070000C9497000C94EA020C9497000C9497004F
:100080000C9497000C9497000C9497000C94970094
:100090000C9497000C9497000C9497000C94970084
:1000A0000C9497000C9497000C9497000C94970074
:1000B0000C9497000C9497000C9497000C94970064
:1000C0000C9497000C9497000C9497000C94970054
:1000D0000C9497000C9497000C9497000C94970044
:1000E0000C9497000C94DC000C94D40011241FBED7
:1000F000CFEFD1E2DEBFCDBF00E00CBF12E0A0E049
:10010000B2E0E8E8FFE000E00BBF02C007900D920C
:10011000AA34B107D9F722E0AAE4B2E001C01D92E7
:10012000AA35B207E1F70E9499000C94C2070C941B
:100130000000CF93DF93CDB7DEB76A970FB6F89480
:10014000DEBF0FBECDBFF8940E94EF000E946D018C
:100150000E945D020E94AF02789466E072E0CE01D8
:100160000B960E94FE0282E192E09F938F930E9481
:10017000B7030F900F900AE011E0CE0141960E9464
:10018000C201FE017196DE011196802F01900D9241
:100190008A95E1F7CE010B960E9408031A83CE01DF
:1001A00001960E949A02E9CFE0ECF0E0908195FF81
:1001B000FDCF8093C6000895E0ECF0E080818823B5
:1001C000ECF78091C60008959093C5008093C40019
:1001D00088E18093C1008EE08093C200089587E695
:1001E00090E00E94E4006CED70E084ED90E00E94ED
:1001F0006C03089584B1876884B98CB581658CBD22
:1002000008958EBD0DB407FEFDCF8EB50895CF9332
:10021000C82F2F9883E00E9401018C2F0E940101BA
:100220008FEF0E9401012F9ACF910895CF93DF9312
:10023000D82FC62F2F9882E00E9401018D2F0E9497
:1002400001018C2F0E9401012F9ADF91CF91089517
:100250002F98813051F028F0823059F0833069F0C6
:100260000FC081E80E9401010BC082E80E940101D9
:1002700007C084E80E94010103C087E80E940101D1
:100280002F9A089580EA0E94070108951F93CF9343
:10029000DF93182FD62FC42F2F9885E00E940101DD
:1002A000812F0E9401018D2F0E9401018C2F0E943D
:1002B00001012F9ADF91CF911F9108952F9880EC23
:1002C0000E9401012F9A08950E94FA000E945E0187
:1002D00060E08FE00E94160108950E94640160E0D2
:1002E0008FE00E94160160E680E60E94160141E060
:1002F00061E08BE20E94460140E061E08CE20E94F6
:100300004601E9E6F0E0808182608083E89AE09A25
:100310000895EF92FF920F931F93CF93DF937C0189
:1003200060E081E30E941601F70161816295660F2A
:10033000607E82E30E941601F701608185E30E94DE
:100340001601F7018081882399F087010E5F1F4F06
:10035000C0E0D0E0F80161918F018C2F8A5C0E948F
:1003600016012196F701208130E0C217D30794F3DC
:1003700080E00E942801DF91CF911F910F91FF90A3
:10038000EF9008959F92AF92BF92CF92DF92EF923B
:10039000FF920F931F93CF93DF93CDB7DEB72A97CA
:1003A0000FB6F894DEBF0FBECDBF5C0185E60E949C
:1003B0000701982E81E60E940701182F82E60E940D
:1003C0000701829586958770169516951695082FC4
:1003D000010F9920A9F07E0183E0E80EF11C9E0137
:1003E000290D311DF90133966F0116E6812F0E9408
:1003F0000701F70181937F011F5FEC15FD05B1F740
:1004000040E061E08CE20E94460199820A838AE022
:10041000FE013196D50101900D928A95E1F7C50153
:100420002A960FB6F894DEBF0FBECDBFDF91CF91F5
:100430001F910F91FF90EF90DF90CF90BF90AF9002
:100440009F9008951F920F920FB60F9211240BB632
:100450000F922F933F934F935F936F937F938F935D
:100460009F93AF93BF93EF93FF93CF93DF93CDB75A
:10047000DEB72A97DEBFCDBFF894CE0101960E9469
:10048000C20178942A960FB6F894DEBF0FBECDBF96
:10049000DF91CF91FF91EF91BF91AF919F918F919C
:1004A0007F916F915F914F913F912F910F900BBE74
:1004B0000F900FBE0F901F901895E0E8F0E080813C
:1004C00082628083E1E8F0E080818A61808380E459
:1004D0009CE9909387008093860088EB9BE0909343
:1004E0008B0080938A00EFE6F0E080818260808359
:1004F000B19A269A08950F931F938B019C0108507F
:10050000174021093109013619402105310520F430
:1005100070938B0060938A001F910F9108951F9232
:100520000F920FB60F921124B19A0F900FBE0F9039
:100530001F901895FC01628170E0CB01880F991F14
:10054000680F791F660F771F660F771F685F784FF8
:10055000072E000C880B990B0E947B020895EAE796
:10056000F0E08081806880838081876080838098CC
:10057000ACE7B0E08C9180648C938081886080834C
:1005800080818F7E8083089524E030E040E050E059
:10059000EAE7F0E0A8E7B0E08081806480838091A2
:1005A0004E0290914F02892BD1F310924F0210927C
:1005B0004E028D919C911197480F591F215031097E
:1005C00059F7CA0199230CF403969595879595954B
:1005D000879508951F920F920FB60F9211248F9353
:1005E0009F9381E090E090934F0280934E029F9101
:1005F0008F910F900FBE0F901F901895FC011382E2
:10060000128283E090E095838483718360830895F0
:10061000CF93DF93EC010E94C402282F30E0309387
:100620004B0220934A0280914A0290914B028634F9
:1006300091055CF58C819D81009709F446C020915D
:100640004C0230914D0221303105B9F501979D835F
:100650008C8310924D0210924C02009749F48FE265
:1006600092E09F938F930E94B7030F900F9031C039
:100670009F938F938EE392E09F938F930E94B70393
:100680000F900F900F900F9024C080914A0290918C
:100690004B0287399105ECF08C819D81892BC9F043
:1006A00080914C0290914D02892B99F481E090E069
:1006B00090934D0280934C020CC080914A0290911D
:1006C0004B028739910564F704C080914A029091EA
:1006D0004B02DF91CF9108950F931F93CF93DF9338
:1006E000009731F46115710519F480E090E03AC08B
:1006F0008B01EC016EE070E081E090E00E94C605A5
:10070000FC01892B91F380E883830115110571F0B9
:100710001387028781E88383809150029091510270
:10072000892B21F4F0935102E09350022097C9F0F5
:10073000D187C087838182608383809152029091A8
:100740005302892B71F4F0935302E093520280918B
:10075000540290915502892B21F4F0935502E093B5
:100760005402CF01DF91CF911F910F910895CF9344
:10077000DF93CDB7DEB7AE014A5F5F4FFA016191FB
:100780007191AF0180915202909153020E94CB036C
:10079000DF91CF9108952F923F924F925F926F9287
:1007A0007F928F929F92AF92BF92CF92DF92EF9201
:1007B000FF920F931F93CF93DF93CDB7DEB72C97A4
:1007C0000FB6F894DEBF0FBECDBF7C016B018A016E
:1007D000FC0117821682838181FFBDC1CE01019683
:1007E0004C01F7019381F60193FD859193FF81916F
:1007F0006F01882309F4ABC1853239F493FD8591EB
:1008000093FF81916F01853229F4B70190E00E9436
:100810002C07E7CF512C312C20E02032A0F48B3272
:1008200069F030F4803259F0833269F420612CC0D1
:100830008D3239F0803339F4216026C02260246083
:1008400023C0286021C027FD27C030ED380F3A3083
:1008500078F426FF06C0FAE05F9E300D1124532E77
:1008600013C08AE0389E300D1124332E20620CC054
:100870008E3221F426FD6BC1206406C08C3611F443
:10088000206802C0883641F4F60193FD859193FFFC
:1008900081916F018111C1CF982F9F7D9554933025
:1008A00028F40C5F1F4FFFE3F9830DC0833631F04E
:1008B000833771F0833509F05BC022C0F801808175
:1008C00089830E5F1F4F44244394512C540115C05B
:1008D0003801F2E06F0E711CF801A080B18026FF94
:1008E00003C0652D70E002C06FEF7FEFC5012C875C
:1008F0000E9421072C0183012C852F77222E17C0FF
:100900003801F2E06F0E711CF801A080B18026FF63
:1009100003C0652D70E002C06FEF7FEFC5012C872B
:100920000E940F072C012C852068222E830123FCB6
:100930001BC0832D90E048165906B0F4B70180E241
:1009400090E00E942C073A94F4CFF50127FC8591A2
:1009500027FE81915F01B70190E00E942C073110C2
:100960003A94F1E04F1A51084114510471F7E5C06F
:10097000843611F0893639F5F80127FF07C0608108
:100980007181828193810C5F1F4F08C060817181EA
:10099000072E000C880B990B0E5F1F4F2F76722EBF
:1009A00097FF09C090958095709561957F4F8F4F07
:1009B0009F4F2068722E2AE030E0A4010E94640755
:1009C000A82EA81844C0853729F42F7EB22E2AE01D
:1009D00030E025C0F22FF97FBF2E8F36C1F018F41A
:1009E000883579F0B4C0803719F0883721F0AFC06E
:1009F0002F2F2061B22EB4FE0DC08B2D8460B82E37
:100A000009C024FF0AC09F2F9660B92E06C028E0B7
:100A100030E005C020E130E002C020E132E0F80122
:100A2000B7FE07C060817181828193810C5F1F4F87
:100A300006C06081718180E090E00E5F1F4FA401CD
:100A40000E946407A82EA818FB2DFF777F2E76FE44
:100A50000BC0372D3E7FA51450F474FE0AC072FC03
:100A600008C0372D3E7E05C0BA2C372D03C0BA2CE6
:100A700001C0B52C34FF0DC0FE01EA0DF11D8081CF
:100A8000803311F4397E09C032FF06C0B394B394A9
:100A900004C0832F867809F0B39433FD13C030FF70
:100AA00006C05A2CB31418F4530C5B18B32CB314AF
:100AB00068F4B70180E290E03C870E942C07B39471
:100AC0003C85F5CFB31410F43B1801C0312C34FF32
:100AD00012C0B70180E390E03C870E942C073C8560
:100AE00032FF17C031FD03C088E790E002C088E5FF
:100AF00090E0B7010CC0832F867859F031FF02C017
:100B00008BE201C080E237FD8DE2B70190E00E94E8
:100B10002C07A51438F4B70180E390E00E942C075D
:100B20005A94F7CFAA94F401EA0DF11D8081B70120
:100B300090E00E942C07A110F5CF332009F451CE8C
:100B4000B70180E290E00E942C073A94F6CFF701BB
:100B50008681978102C08FEF9FEF2C960FB6F89495
:100B6000DEBF0FBECDBFDF91CF911F910F91FF90E0
:100B7000EF90DF90CF90BF90AF909F908F907F903D
:100B80006F905F904F903F902F9008950F931F9319
:100B9000CF93DF93869F8001879F100D969F100D46
:100BA0001124C8010E94E205EC01009729F0A80178
:100BB00060E070E00E941A07CE01DF91CF911F9193
:100BC0000F910895CF93DF938230910510F482E066
:100BD00090E0E0915802F091590220E030E0C0E04E
:100BE000D0E0309711F14081518148175907C0F08A
:100BF0004817590761F482819381209719F09B83EC
:100C00008A832BC0909359028093580226C02115E5
:100C1000310519F04217530718F49A01BE01DF019C
:100C2000EF010280F381E02DDCCF2115310509F1C0
:100C3000281B390B2430310590F412968D919C912C
:100C400013976115710521F0FB019383828304C022
:100C50009093590280935802FD01329644C0FD01E1
:100C6000E20FF31F81939193225031092D933C930E
:100C70003AC02091560230915702232B41F4209123
:100C800002023091030230935702209356022091C2
:100C90000002309101022115310541F42DB73EB714
:100CA0004091040250910502241B350BE09156023D
:100CB000F0915702E217F307A0F42E1B3F0B281701
:100CC000390778F0AC014E5F5F4F2417350748F0C5
:100CD0004E0F5F1F5093570240935602819391939A
:100CE00002C0E0E0F0E0CF01DF91CF9108950F93D3
:100CF0001F93CF93DF93009709F48CC0FC013297C8
:100D000013821282009158021091590201151105A7
:100D100081F420813181820F931F209156023091FE
:100D200057022817390779F5F0935702E0935602D6
:100D300071C0D80140E050E0AE17BF0750F41296E2
:100D40002D913C911397AD012115310509F1D90180
:100D5000F3CF9D01DA013383228360817181860F95
:100D6000971F8217930769F4EC0128813981260FB8
:100D7000371F2E5F3F4F318320838A819B8193836E
:100D80008283452B29F4F0935902E093580242C024
:100D90001396FC93EE931297ED01499159919E01A0
:100DA000240F351FE217F30771F480819181840FBE
:100DB000951F029611969C938E9382819381139630
:100DC0009C938E931297E0E0F0E0D80112968D91FB
:100DD0009C911397009719F0F8018C01F6CF8D9133
:100DE0009C9198012E5F3F4F820F931F20915602D6
:100DF000309157022817390769F4309729F4109277
:100E000059021092580202C01382128210935702A4
:100E100000935602DF91CF911F910F910895FC012D
:100E20000590615070400110D8F7809590958E0F15
:100E30009F1F0895DC0101C06D9341505040E0F7C1
:100E40000895FC016150704001900110D8F7809521
:100E500090958E0F9F1F08950F931F93CF93DF934D
:100E6000FB01238121FD03C08FEF9FEF28C022FFEC
:100E700016C046815781248135814217530744F4B7
:100E8000A081B1819D012F5F3F4F318320838C93DF
:100E9000268137812F5F3F4F3783268310C0EB01B8
:100EA000092F182F0084F185E02D1995892BE1F683
:100EB0008E819F8101969F838E83812F902FDF915A
:100EC000CF911F910F910895FA01AA27283051F16F
:100ED000203181F1E8946F936E7F6E5F7F4F8F4F6B
:100EE0009F4FAF4FB1E03ED0B4E03CD0670F781FCA
:100EF000891F9A1FA11D680F791F8A1F911DA11DAF
:100F00006A0F711D811D911DA11D20D009F46894E7
:100F10003F912AE0269F11243019305D3193DEF68F
:100F2000CF010895462F4770405D4193B3E00FD045
:100F3000C9F7F6CF462F4F70405D4A3318F0495D30
:100F400031FD4052419302D0A9F7EACFB4E0A69513
:100F50009795879577956795BA95C9F70097610535
:100F6000710508959B01AC010A2E0694579547958B
:100F700037952795BA95C9F7620F731F841F951F80
:080F8000A01D0895F894FFCFB5
:100F880000005A022000556E67205370696C6C652A
:100F9800720056656C6B6F6D6D656E2074696C20A0
:100FA8004D756A6166617320424D57210A0D0059DB
:100FB8006F752064656164206E6F770A0D004C6957
:0A0FC8007665733A2025640A0D00D7
:00000001FF
